{"abi":[{"type":"constructor","inputs":[{"name":"name_","type":"string","internalType":"string"},{"name":"symbol_","type":"string","internalType":"string"},{"name":"baseURI_","type":"string","internalType":"string"},{"name":"initialOwner","type":"address","internalType":"address"}],"stateMutability":"nonpayable"},{"type":"function","name":"approve","inputs":[{"name":"to","type":"address","internalType":"address"},{"name":"tokenId","type":"uint256","internalType":"uint256"}],"outputs":[],"stateMutability":"nonpayable"},{"type":"function","name":"balanceOf","inputs":[{"name":"owner","type":"address","internalType":"address"}],"outputs":[{"name":"","type":"uint256","internalType":"uint256"}],"stateMutability":"view"},{"type":"function","name":"getApproved","inputs":[{"name":"tokenId","type":"uint256","internalType":"uint256"}],"outputs":[{"name":"","type":"address","internalType":"address"}],"stateMutability":"view"},{"type":"function","name":"isApprovedForAll","inputs":[{"name":"owner","type":"address","internalType":"address"},{"name":"operator","type":"address","internalType":"address"}],"outputs":[{"name":"","type":"bool","internalType":"bool"}],"stateMutability":"view"},{"type":"function","name":"mint","inputs":[{"name":"to","type":"address","internalType":"address"}],"outputs":[{"name":"tokenId","type":"uint256","internalType":"uint256"}],"stateMutability":"nonpayable"},{"type":"function","name":"name","inputs":[],"outputs":[{"name":"","type":"string","internalType":"string"}],"stateMutability":"view"},{"type":"function","name":"owner","inputs":[],"outputs":[{"name":"","type":"address","internalType":"address"}],"stateMutability":"view"},{"type":"function","name":"ownerOf","inputs":[{"name":"tokenId","type":"uint256","internalType":"uint256"}],"outputs":[{"name":"","type":"address","internalType":"address"}],"stateMutability":"view"},{"type":"function","name":"renounceOwnership","inputs":[],"outputs":[],"stateMutability":"nonpayable"},{"type":"function","name":"safeTransferFrom","inputs":[{"name":"from","type":"address","internalType":"address"},{"name":"to","type":"address","internalType":"address"},{"name":"tokenId","type":"uint256","internalType":"uint256"}],"outputs":[],"stateMutability":"nonpayable"},{"type":"function","name":"safeTransferFrom","inputs":[{"name":"from","type":"address","internalType":"address"},{"name":"to","type":"address","internalType":"address"},{"name":"tokenId","type":"uint256","internalType":"uint256"},{"name":"data","type":"bytes","internalType":"bytes"}],"outputs":[],"stateMutability":"nonpayable"},{"type":"function","name":"setApprovalForAll","inputs":[{"name":"operator","type":"address","internalType":"address"},{"name":"approved","type":"bool","internalType":"bool"}],"outputs":[],"stateMutability":"nonpayable"},{"type":"function","name":"setBaseURI","inputs":[{"name":"newBase","type":"string","internalType":"string"}],"outputs":[],"stateMutability":"nonpayable"},{"type":"function","name":"supportsInterface","inputs":[{"name":"interfaceId","type":"bytes4","internalType":"bytes4"}],"outputs":[{"name":"","type":"bool","internalType":"bool"}],"stateMutability":"view"},{"type":"function","name":"symbol","inputs":[],"outputs":[{"name":"","type":"string","internalType":"string"}],"stateMutability":"view"},{"type":"function","name":"tokenURI","inputs":[{"name":"tokenId","type":"uint256","internalType":"uint256"}],"outputs":[{"name":"","type":"string","internalType":"string"}],"stateMutability":"view"},{"type":"function","name":"transferFrom","inputs":[{"name":"from","type":"address","internalType":"address"},{"name":"to","type":"address","internalType":"address"},{"name":"tokenId","type":"uint256","internalType":"uint256"}],"outputs":[],"stateMutability":"nonpayable"},{"type":"function","name":"transferOwnership","inputs":[{"name":"newOwner","type":"address","internalType":"address"}],"outputs":[],"stateMutability":"nonpayable"},{"type":"event","name":"AgentIdMinted","inputs":[{"name":"to","type":"address","indexed":true,"internalType":"address"},{"name":"tokenId","type":"uint256","indexed":true,"internalType":"uint256"}],"anonymous":false},{"type":"event","name":"Approval","inputs":[{"name":"owner","type":"address","indexed":true,"internalType":"address"},{"name":"approved","type":"address","indexed":true,"internalType":"address"},{"name":"tokenId","type":"uint256","indexed":true,"internalType":"uint256"}],"anonymous":false},{"type":"event","name":"ApprovalForAll","inputs":[{"name":"owner","type":"address","indexed":true,"internalType":"address"},{"name":"operator","type":"address","indexed":true,"internalType":"address"},{"name":"approved","type":"bool","indexed":false,"internalType":"bool"}],"anonymous":false},{"type":"event","name":"OwnershipTransferred","inputs":[{"name":"previousOwner","type":"address","indexed":true,"internalType":"address"},{"name":"newOwner","type":"address","indexed":true,"internalType":"address"}],"anonymous":false},{"type":"event","name":"Transfer","inputs":[{"name":"from","type":"address","indexed":true,"internalType":"address"},{"name":"to","type":"address","indexed":true,"internalType":"address"},{"name":"tokenId","type":"uint256","indexed":true,"internalType":"uint256"}],"anonymous":false},{"type":"error","name":"ERC721IncorrectOwner","inputs":[{"name":"sender","type":"address","internalType":"address"},{"name":"tokenId","type":"uint256","internalType":"uint256"},{"name":"owner","type":"address","internalType":"address"}]},{"type":"error","name":"ERC721InsufficientApproval","inputs":[{"name":"operator","type":"address","internalType":"address"},{"name":"tokenId","type":"uint256","internalType":"uint256"}]},{"type":"error","name":"ERC721InvalidApprover","inputs":[{"name":"approver","type":"address","internalType":"address"}]},{"type":"error","name":"ERC721InvalidOperator","inputs":[{"name":"operator","type":"address","internalType":"address"}]},{"type":"error","name":"ERC721InvalidOwner","inputs":[{"name":"owner","type":"address","internalType":"address"}]},{"type":"error","name":"ERC721InvalidReceiver","inputs":[{"name":"receiver","type":"address","internalType":"address"}]},{"type":"error","name":"ERC721InvalidSender","inputs":[{"name":"sender","type":"address","internalType":"address"}]},{"type":"error","name":"ERC721NonexistentToken","inputs":[{"name":"tokenId","type":"uint256","internalType":"uint256"}]},{"type":"error","name":"OwnableInvalidOwner","inputs":[{"name":"owner","type":"address","internalType":"address"}]},{"type":"error","name":"OwnableUnauthorizedAccount","inputs":[{"name":"account","type":"address","internalType":"address"}]}],"bytecode":{"object":"0x608060405234620004ad576200182b803803806200001d81620004b1565b9283398101608082820312620004ad5781516001600160401b039190828111620004ad57816200004f918501620004d7565b92602080820151848111620004ad57836200006c918401620004d7565b926040830151858111620004ad576060916200008a918501620004d7565b9201516001600160a01b0380821691829003620004ad57865194868611620002e5575f54956001988988811c98168015620004a2575b86891014620002c6578190601f988981116200044f575b508690898311600114620003eb575f92620003df575b50505f19600383901b1c191690891b175f555b805190878211620002e5578854908982811c92168015620003d4575b86831014620002c657818884931162000381575b5085908883116001146200031d575f9262000311575b50505f19600383901b1c191690881b1787555b8115620002f957600680546001600160a01b031981168417909155167f8be0079c531659141344cd1fd0a4f28419497f9722a3daafe3b4186f6b6457e05f80a3846007558151938411620002e5576008548581811c91168015620002da575b82821014620002c6578381116200027d575b50809284116001146200021457509282939183925f9462000208575b50501b915f199060031b1c1916176008555b6040516112e39081620005488239f35b015192505f80620001e6565b919083601f19811660085f52845f20945f905b8883831062000262575050501062000249575b505050811b01600855620001f8565b01515f1960f88460031b161c191690555f80806200023a565b85870151885590960195948501948793509081019062000227565b60085f52815f208480870160051c820192848810620002bc575b0160051c019086905b828110620002b0575050620001ca565b5f8155018690620002a0565b9250819262000297565b634e487b7160e01b5f52602260045260245ffd5b90607f1690620001b8565b634e487b7160e01b5f52604160045260245ffd5b604051631e4fbdf760e01b81525f6004820152602490fd5b015190505f8062000146565b908a9350601f19831691845f52875f20925f5b898282106200036a575050841162000351575b505050811b01875562000159565b01515f1960f88460031b161c191690555f808062000343565b8385015186558e9790950194938401930162000330565b909150895f52855f208880850160051c820192888610620003ca575b918c91869594930160051c01915b828110620003bb57505062000130565b5f81558594508c9101620003ab565b925081926200039d565b91607f16916200011c565b015190505f80620000ed565b908b9350601f198316915f8052885f20925f5b8a8282106200043857505084116200041f575b505050811b015f5562000100565b01515f1960f88460031b161c191690555f808062000411565b8385015186558f97909501949384019301620003fe565b9091505f8052865f208980850160051c82019289861062000498575b918d91869594930160051c01915b82811062000489575050620000d7565b5f81558594508d910162000479565b925081926200046b565b97607f1697620000c0565b5f80fd5b6040519190601f01601f191682016001600160401b03811183821017620002e557604052565b919080601f84011215620004ad5782516001600160401b038111620002e5576020906200050d601f8201601f19168301620004b1565b92818452828287010111620004ad575f5b818110620005335750825f9394955001015290565b85810183015184820184015282016200051e56fe608060409080825260049081361015610016575f80fd5b5f3560e01c90816301ffc9a714610b205750806306fdde0314610a73578063081812fc14610a3a578063095ea7b31461095e57806323b872dd1461094757806342842e0e1461091957806355f804b3146107925780636352211e146107625780636a627842146104e057806370a082311461048b578063715018a6146104305780638da5cb5b1461040857806395d89b4114610325578063a22cb46514610289578063b88d4fde146101f7578063c87b56dd146101c0578063e985e9c5146101725763f2fde38b146100e6575f80fd5b3461016e57602036600319011261016e576100ff610bd0565b90610108611140565b6001600160a01b03918216928315610158575050600654826001600160601b0360a01b821617600655167f8be0079c531659141344cd1fd0a4f28419497f9722a3daafe3b4186f6b6457e05f80a3005b905f6024925191631e4fbdf760e01b8352820152fd5b5f80fd5b823461016e578060031936011261016e5760209061018e610bd0565b610196610be6565b9060018060a01b038091165f5260058452825f2091165f52825260ff815f20541690519015158152f35b50903461016e57602036600319011261016e576101e06101f39235610e6d565b9051918291602083526020830190610bab565b0390f35b50903461016e57608036600319011261016e57610212610bd0565b61021a610be6565b604435916064359467ffffffffffffffff861161016e573660238701121561016e5785013561025461024b82610c83565b95519586610c61565b808552366024828801011161016e576020815f92602461028799018389013786010152610282838383610cd7565b61116c565b005b50903461016e578060031936011261016e576102a3610bd0565b906024359182151580930361016e576001600160a01b03169283156103105750335f526005602052805f20835f52602052805f2060ff1981541660ff8416179055519081527f17307eab39ab6107e8899845ad3d59bd9653f200f220920489ca2b5937696c3160203392a3005b836024925191630b61174360e31b8352820152fd5b823461016e575f36600319011261016e578051905f90826001926001549361034c85610c9f565b90818452602095866001821691825f146103e657505060011461038b575b50506101f3929161037c910385610c61565b51928284938452830190610bab565b9085925060015f527fb10e2d527612073b26eecdfd717e6a320cf44b4afac2b0732d9fcbe2b7fa0cf6915f925b8284106103ce575050508201018161037c61036a565b8054848a0186015288955087949093019281016103b8565b60ff19168682015292151560051b8501909201925083915061037c905061036a565b823461016e575f36600319011261016e5760065490516001600160a01b039091168152602090f35b3461016e575f36600319011261016e57610448611140565b600680546001600160a01b031981169091555f906001600160a01b03167f8be0079c531659141344cd1fd0a4f28419497f9722a3daafe3b4186f6b6457e08280a3005b50903461016e57602036600319011261016e576001600160a01b036104ae610bd0565b1680156104ca57602092505f5260038252805f20549051908152f35b81516322718ad960e21b81525f81850152602490fd5b50903461016e576020918260031936011261016e576104fd610bd0565b91610506611140565b600754915f199384841461074f576001840160075582519061052782610c31565b5f82526001600160a01b038181169690871561073957878791825f5260028b52875f2054168015159384610708575b505f82815260038c528881208054600101905583815260028c5288812080546001600160a01b031916841790557fddf252ad1be2c89b69c2b068fc378daa952ba7f163c4a11628f55a4df523b3ef9080a46106f2573b6105df575b5050819051927fd21af93d29841c70cb88f8e02e37a32cfc81d30ea3b3b63e7643fac6cf8b03ad5f80a38152f35b829493919451868180610619630a85bd0160e11b95868352338b8401525f6024840152876044840152608060648401526084830190610bab565b03815f895af15f91816106b2575b50610682575050503d5f1461067b573d61064081610c83565b9061064d83519283610c61565b81523d5f8683013e5b8051948561067557505051633250574960e11b81529182015260249150fd5b85925001fd5b6060610656565b939491936001600160e01b0319160361069d5750815f6105b1565b836024925191633250574960e11b8352820152fd5b9091508781813d83116106eb575b6106ca8183610c61565b8101031261016e57516001600160e01b03198116810361016e57905f610627565b503d6106c0565b83516339e3563760e11b81525f81850152602490fd5b5f84815260046020526040902080546001600160a01b0319169055815f5260038c52885f209081540190555f610556565b8551633250574960e11b81525f81870152602490fd5b601182634e487b7160e01b5f525260245ffd5b50903461016e57602036600319011261016e5761078160209235611106565b90516001600160a01b039091168152f35b503461016e57602090602060031936011261016e57803567ffffffffffffffff9182821161016e573660238301121561016e5781013591821161016e57602490366024848301011161016e576107e6611140565b6107f1600854610c9f565b601f81116108ba575b505f91601f841160011461083957508293505f9261082b575b50505f19600383901b1c191660019190911b17600855005b602492500101358280610813565b91601f1984167ff3f7a9fe364faab93b216da50a3214154f22a0a2b415b23a84c8169e8b636ee3935f905b82821061089f575050600195508411610883575b505050811b01600855005b01602401355f19600384901b60f8161c19169055828080610878565b90929487600181928489890101358155019601930190610864565b7ff3f7a9fe364faab93b216da50a3214154f22a0a2b415b23a84c8169e8b636ee3601f850160051c8101916020861061090f575b601f0160051c01905b81811061090457506107fa565b5f81556001016108f7565b90915081906108ee565b823461016e576102879061092c36610bfc565b9192519261093984610c31565b5f8452610282838383610cd7565b3461016e5761028761095836610bfc565b91610cd7565b50903461016e578060031936011261016e57610978610bd0565b9160243561098581611106565b33151580610a27575b80610a00575b6109ea576001600160a01b039485169482918691167f8c5be1e5ebec7d5bd14f71427d1e84f3dd0314c0f7b2291e5b200ac8c7c3b9255f80a45f526020525f20906001600160601b0360a01b8254161790555f80f35b835163a9fbf51f60e01b81523381850152602490fd5b5060018060a01b0381165f526005602052835f20335f5260205260ff845f20541615610994565b506001600160a01b03811633141561098e565b50903461016e57602036600319011261016e578160209235610a5b81611106565b505f52825260018060a01b03815f2054169051908152f35b823461016e575f36600319011261016e578051905f90825f5492610a9684610c9f565b808352602094600190866001821691825f146103e6575050600114610ac75750506101f3929161037c910385610c61565b5f80805286935091907f290decd9548b62a8d60345a988386fc84ba6bc95484008f6362f93160ef3e5635b828410610b08575050508201018161037c61036a565b8054848a018601528895508794909301928101610af2565b823461016e57602036600319011261016e57359063ffffffff60e01b821680920361016e576020916380ac58cd60e01b8114908115610b79575b8115610b68575b5015158152f35b6301ffc9a760e01b14905083610b61565b635b5e139f60e01b81149150610b5a565b5f5b838110610b9b5750505f910152565b8181015183820152602001610b8c565b90602091610bc481518092818552858086019101610b8a565b601f01601f1916010190565b600435906001600160a01b038216820361016e57565b602435906001600160a01b038216820361016e57565b606090600319011261016e576001600160a01b0390600435828116810361016e5791602435908116810361016e579060443590565b6020810190811067ffffffffffffffff821117610c4d57604052565b634e487b7160e01b5f52604160045260245ffd5b90601f8019910116810190811067ffffffffffffffff821117610c4d57604052565b67ffffffffffffffff8111610c4d57601f01601f191660200190565b90600182811c92168015610ccd575b6020831014610cb957565b634e487b7160e01b5f52602260045260245ffd5b91607f1691610cae565b6001600160a01b039182169290918315610e5557815f52602092600284528260409583875f2054169533151580610dc3575b5060029087610d92575b825f5260038152885f2060018154019055835f5252865f20816001600160601b0360a01b825416179055857fddf252ad1be2c89b69c2b068fc378daa952ba7f163c4a11628f55a4df523b3ef5f80a41692838303610d715750505050565b6064945051926364283d7b60e01b8452600484015260248301526044820152fd5b5f84815260046020526040812080546001600160a01b03191690558881526003825289902080545f19019055610d13565b9192509080610e14575b15610ddb579084915f610d09565b868587610df8576024915190637e27328960e01b82526004820152fd5b604491519063177e802f60e01b82523360048301526024820152fd5b503386148015610e39575b80610dcd5750845f52600481523384885f20541614610dcd565b50855f5260058152865f20335f52815260ff875f205416610e1f565b604051633250574960e11b81525f6004820152602490fd5b610e7681611106565b50604051905f90600854610e8981610c9f565b928385526020938585810192600194876001821691825f146110eb57505060011461108f575b610ebb92500386610c61565b845115611078575f92807a184f03e93ff9f4daa797ed6e38ed64bf6a1f010000000000000000818181101561106a575b5050856d04ee2d6d415b85acef81000000008084101561105c575b5050662386f26fc100008083101561104d575b506305f5e1008083101561103e575b506127108083101561102f575b50606482101561101f575b600a80921015611015575b926001850193816021610f76610f6088610c83565b97610f6e604051998a610c61565b808952610c83565b878a019890601f1901368a37870101905b610fe0575b505050509264173539b7b760d91b602593610fbb9693610fca610fdd97604051998a97518092888a0190610b8a565b86019151809386840190610b8a565b0191820152036005810184520182610c61565b90565b5f19019083906f181899199a1a9b1b9c1cb0b131b232b360811b8282061a83530491821561101057919082610f87565b610f8c565b9360010193610f4b565b9390606460029104910193610f40565b6004919592049101935f610f35565b6008919592049101935f610f28565b6010919592049101935f610f19565b95019490910490855f610f06565b604096500491505f80610eeb565b505050505060405161108981610c31565b5f815290565b505060085f5285857ff3f7a9fe364faab93b216da50a3214154f22a0a2b415b23a84c8169e8b636ee3855f915b8583106110d2575050610ebb9350820101610eaf565b80919294505483858c01015201910186908589936110bc565b60ff19168652610ebb94151560051b8401019150610eaf9050565b5f818152600260205260409020546001600160a01b0316908115611128575090565b60249060405190637e27328960e01b82526004820152fd5b6006546001600160a01b0316330361115457565b60405163118cdaa760e01b8152336004820152602490fd5b9192813b61117b575b50505050565b604051630a85bd0160e11b8082523360048301526001600160a01b039485166024830152604482019590955260806064820152602095939092169391908590829081906111cc906084830190610bab565b03815f885af15f918161126d575b50611237575050503d5f14611230573d6111f381610c83565b906112016040519283610c61565b81523d5f8483013e5b8051928361122b57604051633250574960e11b815260048101849052602490fd5b019050fd5b606061120a565b9193506001600160e01b03199091160361125557505f808080611175565b60249060405190633250574960e11b82526004820152fd5b9091508581813d83116112a6575b6112858183610c61565b8101031261016e57516001600160e01b03198116810361016e57905f6111da565b503d61127b56fea2646970667358221220b498fc04e0d44b6d3346d77e29ba2627e8e5ec17f04cd1b050d5b32a58651eb464736f6c63430008180033","linkReferences":{}},"methodIdentifiers":{"approve(address,uint256)":"095ea7b3","balanceOf(address)":"70a08231","getApproved(uint256)":"081812fc","isApprovedForAll(address,address)":"e985e9c5","mint(address)":"6a627842","name()":"06fdde03","owner()":"8da5cb5b","ownerOf(uint256)":"6352211e","renounceOwnership()":"715018a6","safeTransferFrom(address,address,uint256)":"42842e0e","safeTransferFrom(address,address,uint256,bytes)":"b88d4fde","setApprovalForAll(address,bool)":"a22cb465","setBaseURI(string)":"55f804b3","supportsInterface(bytes4)":"01ffc9a7","symbol()":"95d89b41","tokenURI(uint256)":"c87b56dd","transferFrom(address,address,uint256)":"23b872dd","transferOwnership(address)":"f2fde38b"},"id":28}