{"abi":[{"type":"constructor","inputs":[{"name":"initialOwner","type":"address","internalType":"address"},{"name":"initialMintPrice","type":"uint256","internalType":"uint256"}],"stateMutability":"nonpayable"},{"type":"function","name":"FOUNDING_CAP","inputs":[],"outputs":[{"name":"","type":"uint256","internalType":"uint256"}],"stateMutability":"view"},{"type":"function","name":"MAX_HANDLE_LEN","inputs":[],"outputs":[{"name":"","type":"uint256","internalType":"uint256"}],"stateMutability":"view"},{"type":"function","name":"MIN_HANDLE_LEN","inputs":[],"outputs":[{"name":"","type":"uint256","internalType":"uint256"}],"stateMutability":"view"},{"type":"function","name":"approve","inputs":[{"name":"to","type":"address","internalType":"address"},{"name":"tokenId","type":"uint256","internalType":"uint256"}],"outputs":[],"stateMutability":"nonpayable"},{"type":"function","name":"balanceOf","inputs":[{"name":"owner","type":"address","internalType":"address"}],"outputs":[{"name":"","type":"uint256","internalType":"uint256"}],"stateMutability":"view"},{"type":"function","name":"getApproved","inputs":[{"name":"tokenId","type":"uint256","internalType":"uint256"}],"outputs":[{"name":"","type":"address","internalType":"address"}],"stateMutability":"view"},{"type":"function","name":"getIdentity","inputs":[{"name":"tokenId","type":"uint256","internalType":"uint256"}],"outputs":[{"name":"owner_","type":"address","internalType":"address"},{"name":"handle","type":"string","internalType":"string"},{"name":"tldId","type":"uint8","internalType":"uint8"},{"name":"mintedAt","type":"uint64","internalType":"uint64"},{"name":"isFounding","type":"bool","internalType":"bool"}],"stateMutability":"view"},{"type":"function","name":"getTokenId","inputs":[{"name":"handle","type":"string","internalType":"string"},{"name":"tldId","type":"uint8","internalType":"uint8"}],"outputs":[{"name":"","type":"uint256","internalType":"uint256"}],"stateMutability":"view"},{"type":"function","name":"isApprovedForAll","inputs":[{"name":"owner","type":"address","internalType":"address"},{"name":"operator","type":"address","internalType":"address"}],"outputs":[{"name":"","type":"bool","internalType":"bool"}],"stateMutability":"view"},{"type":"function","name":"isAvailable","inputs":[{"name":"handle","type":"string","internalType":"string"},{"name":"tldId","type":"uint8","internalType":"uint8"}],"outputs":[{"name":"","type":"bool","internalType":"bool"}],"stateMutability":"view"},{"type":"function","name":"isFoundingMember","inputs":[{"name":"tokenId","type":"uint256","internalType":"uint256"}],"outputs":[{"name":"","type":"bool","internalType":"bool"}],"stateMutability":"pure"},{"type":"function","name":"isValidTld","inputs":[{"name":"tldId","type":"uint8","internalType":"uint8"}],"outputs":[{"name":"","type":"bool","internalType":"bool"}],"stateMutability":"pure"},{"type":"function","name":"metadataBaseURI","inputs":[],"outputs":[{"name":"","type":"string","internalType":"string"}],"stateMutability":"view"},{"type":"function","name":"mint","inputs":[{"name":"handle","type":"string","internalType":"string"},{"name":"tldId","type":"uint8","internalType":"uint8"}],"outputs":[{"name":"tokenId","type":"uint256","internalType":"uint256"}],"stateMutability":"payable"},{"type":"function","name":"mintPrice","inputs":[],"outputs":[{"name":"","type":"uint256","internalType":"uint256"}],"stateMutability":"view"},{"type":"function","name":"name","inputs":[],"outputs":[{"name":"","type":"string","internalType":"string"}],"stateMutability":"view"},{"type":"function","name":"nameKey","inputs":[{"name":"handle","type":"string","internalType":"string"},{"name":"tldId","type":"uint8","internalType":"uint8"}],"outputs":[{"name":"","type":"bytes32","internalType":"bytes32"}],"stateMutability":"pure"},{"type":"function","name":"nameToTokenId","inputs":[{"name":"","type":"bytes32","internalType":"bytes32"}],"outputs":[{"name":"","type":"uint256","internalType":"uint256"}],"stateMutability":"view"},{"type":"function","name":"owner","inputs":[],"outputs":[{"name":"","type":"address","internalType":"address"}],"stateMutability":"view"},{"type":"function","name":"ownerOf","inputs":[{"name":"tokenId","type":"uint256","internalType":"uint256"}],"outputs":[{"name":"","type":"address","internalType":"address"}],"stateMutability":"view"},{"type":"function","name":"renounceOwnership","inputs":[],"outputs":[],"stateMutability":"nonpayable"},{"type":"function","name":"safeTransferFrom","inputs":[{"name":"from","type":"address","internalType":"address"},{"name":"to","type":"address","internalType":"address"},{"name":"tokenId","type":"uint256","internalType":"uint256"}],"outputs":[],"stateMutability":"nonpayable"},{"type":"function","name":"safeTransferFrom","inputs":[{"name":"from","type":"address","internalType":"address"},{"name":"to","type":"address","internalType":"address"},{"name":"tokenId","type":"uint256","internalType":"uint256"},{"name":"data","type":"bytes","internalType":"bytes"}],"outputs":[],"stateMutability":"nonpayable"},{"type":"function","name":"setApprovalForAll","inputs":[{"name":"operator","type":"address","internalType":"address"},{"name":"approved","type":"bool","internalType":"bool"}],"outputs":[],"stateMutability":"nonpayable"},{"type":"function","name":"setMetadataBaseURI","inputs":[{"name":"baseURI","type":"string","internalType":"string"}],"outputs":[],"stateMutability":"nonpayable"},{"type":"function","name":"setMintPrice","inputs":[{"name":"newPrice","type":"uint256","internalType":"uint256"}],"outputs":[],"stateMutability":"nonpayable"},{"type":"function","name":"supportsInterface","inputs":[{"name":"interfaceId","type":"bytes4","internalType":"bytes4"}],"outputs":[{"name":"","type":"bool","internalType":"bool"}],"stateMutability":"view"},{"type":"function","name":"symbol","inputs":[],"outputs":[{"name":"","type":"string","internalType":"string"}],"stateMutability":"view"},{"type":"function","name":"tldLabel","inputs":[{"name":"tldId","type":"uint8","internalType":"uint8"}],"outputs":[{"name":"","type":"string","internalType":"string"}],"stateMutability":"pure"},{"type":"function","name":"tokenURI","inputs":[{"name":"tokenId","type":"uint256","internalType":"uint256"}],"outputs":[{"name":"","type":"string","internalType":"string"}],"stateMutability":"view"},{"type":"function","name":"totalMinted","inputs":[],"outputs":[{"name":"","type":"uint256","internalType":"uint256"}],"stateMutability":"view"},{"type":"function","name":"transferFrom","inputs":[{"name":"from","type":"address","internalType":"address"},{"name":"to","type":"address","internalType":"address"},{"name":"tokenId","type":"uint256","internalType":"uint256"}],"outputs":[],"stateMutability":"nonpayable"},{"type":"function","name":"transferOwnership","inputs":[{"name":"newOwner","type":"address","internalType":"address"}],"outputs":[],"stateMutability":"nonpayable"},{"type":"function","name":"withdraw","inputs":[],"outputs":[],"stateMutability":"nonpayable"},{"type":"event","name":"Approval","inputs":[{"name":"owner","type":"address","indexed":true,"internalType":"address"},{"name":"approved","type":"address","indexed":true,"internalType":"address"},{"name":"tokenId","type":"uint256","indexed":true,"internalType":"uint256"}],"anonymous":false},{"type":"event","name":"ApprovalForAll","inputs":[{"name":"owner","type":"address","indexed":true,"internalType":"address"},{"name":"operator","type":"address","indexed":true,"internalType":"address"},{"name":"approved","type":"bool","indexed":false,"internalType":"bool"}],"anonymous":false},{"type":"event","name":"IdentityMinted","inputs":[{"name":"minter","type":"address","indexed":true,"internalType":"address"},{"name":"tokenId","type":"uint256","indexed":true,"internalType":"uint256"},{"name":"handle","type":"string","indexed":false,"internalType":"string"},{"name":"tldId","type":"uint8","indexed":false,"internalType":"uint8"},{"name":"isFounding","type":"bool","indexed":false,"internalType":"bool"}],"anonymous":false},{"type":"event","name":"OwnershipTransferred","inputs":[{"name":"previousOwner","type":"address","indexed":true,"internalType":"address"},{"name":"newOwner","type":"address","indexed":true,"internalType":"address"}],"anonymous":false},{"type":"event","name":"Transfer","inputs":[{"name":"from","type":"address","indexed":true,"internalType":"address"},{"name":"to","type":"address","indexed":true,"internalType":"address"},{"name":"tokenId","type":"uint256","indexed":true,"internalType":"uint256"}],"anonymous":false},{"type":"error","name":"ERC721IncorrectOwner","inputs":[{"name":"sender","type":"address","internalType":"address"},{"name":"tokenId","type":"uint256","internalType":"uint256"},{"name":"owner","type":"address","internalType":"address"}]},{"type":"error","name":"ERC721InsufficientApproval","inputs":[{"name":"operator","type":"address","internalType":"address"},{"name":"tokenId","type":"uint256","internalType":"uint256"}]},{"type":"error","name":"ERC721InvalidApprover","inputs":[{"name":"approver","type":"address","internalType":"address"}]},{"type":"error","name":"ERC721InvalidOperator","inputs":[{"name":"operator","type":"address","internalType":"address"}]},{"type":"error","name":"ERC721InvalidOwner","inputs":[{"name":"owner","type":"address","internalType":"address"}]},{"type":"error","name":"ERC721InvalidReceiver","inputs":[{"name":"receiver","type":"address","internalType":"address"}]},{"type":"error","name":"ERC721InvalidSender","inputs":[{"name":"sender","type":"address","internalType":"address"}]},{"type":"error","name":"ERC721NonexistentToken","inputs":[{"name":"tokenId","type":"uint256","internalType":"uint256"}]},{"type":"error","name":"InsufficientPayment","inputs":[]},{"type":"error","name":"InvalidHandle","inputs":[]},{"type":"error","name":"InvalidTld","inputs":[]},{"type":"error","name":"NameTaken","inputs":[]},{"type":"error","name":"OwnableInvalidOwner","inputs":[{"name":"owner","type":"address","internalType":"address"}]},{"type":"error","name":"OwnableUnauthorizedAccount","inputs":[{"name":"account","type":"address","internalType":"address"}]},{"type":"error","name":"TokenNotFound","inputs":[]}],"bytecode":{"object":"0x6080604052600160075534801562000015575f80fd5b5060405162004b3038038062004b3083398181016040528101906200003b9190620002c1565b816040518060400160405280601681526020017f43756c74757265204c61796572204964656e74697479000000000000000000008152506040518060400160405280600481526020017f434c494400000000000000000000000000000000000000000000000000000000815250815f9081620000b8919062000561565b508060019081620000ca919062000561565b5050505f73ffffffffffffffffffffffffffffffffffffffff168173ffffffffffffffffffffffffffffffffffffffff160362000140575f6040517f1e4fbdf700000000000000000000000000000000000000000000000000000000815260040162000137919062000656565b60405180910390fd5b62000151816200016160201b60201c565b5080600881905550505062000671565b5f60065f9054906101000a900473ffffffffffffffffffffffffffffffffffffffff1690508160065f6101000a81548173ffffffffffffffffffffffffffffffffffffffff021916908373ffffffffffffffffffffffffffffffffffffffff1602179055508173ffffffffffffffffffffffffffffffffffffffff168173ffffffffffffffffffffffffffffffffffffffff167f8be0079c531659141344cd1fd0a4f28419497f9722a3daafe3b4186f6b6457e060405160405180910390a35050565b5f80fd5b5f73ffffffffffffffffffffffffffffffffffffffff82169050919050565b5f620002538262000228565b9050919050565b620002658162000247565b811462000270575f80fd5b50565b5f8151905062000283816200025a565b92915050565b5f819050919050565b6200029d8162000289565b8114620002a8575f80fd5b50565b5f81519050620002bb8162000292565b92915050565b5f8060408385031215620002da57620002d962000224565b5b5f620002e98582860162000273565b9250506020620002fc85828601620002ab565b9150509250929050565b5f81519050919050565b7f4e487b71000000000000000000000000000000000000000000000000000000005f52604160045260245ffd5b7f4e487b71000000000000000000000000000000000000000000000000000000005f52602260045260245ffd5b5f60028204905060018216806200038257607f821691505b6020821081036200039857620003976200033d565b5b50919050565b5f819050815f5260205f209050919050565b5f6020601f8301049050919050565b5f82821b905092915050565b5f60088302620003fc7fffffffffffffffffffffffffffffffffffffffffffffffffffffffffffffffff82620003bf565b620004088683620003bf565b95508019841693508086168417925050509392505050565b5f819050919050565b5f62000449620004436200043d8462000289565b62000420565b62000289565b9050919050565b5f819050919050565b620004648362000429565b6200047c620004738262000450565b848454620003cb565b825550505050565b5f90565b6200049262000484565b6200049f81848462000459565b505050565b5b81811015620004c657620004ba5f8262000488565b600181019050620004a5565b5050565b601f8211156200051557620004df816200039e565b620004ea84620003b0565b81016020851015620004fa578190505b620005126200050985620003b0565b830182620004a4565b50505b505050565b5f82821c905092915050565b5f620005375f19846008026200051a565b1980831691505092915050565b5f62000551838362000526565b9150826002028217905092915050565b6200056c8262000306565b67ffffffffffffffff81111562000588576200058762000310565b5b6200059482546200036a565b620005a1828285620004ca565b5f60209050601f831160018114620005d7575f8415620005c2578287015190505b620005ce858262000544565b8655506200063d565b601f198416620005e7866200039e565b5f5b828110156200061057848901518255600182019150602085019450602081019050620005e9565b868310156200063057848901516200062c601f89168262000526565b8355505b6001600288020188555050505b505050505050565b620006508162000247565b82525050565b5f6020820190506200066b5f83018462000645565b92915050565b6144b1806200067f5f395ff3fe6080604052600436106101f8575f3560e01c806395d89b411161010c578063c87b56dd1161009f578063ef791e771161006e578063ef791e771461078c578063f2fde38b146107b6578063f3006c87146107de578063f4a0a5281461080e578063fb94bd8a14610836576101f8565b8063c87b56dd1461069c578063e1379472146106d8578063e985e9c514610714578063e9f5985d14610750576101f8565b8063a835895a116100db578063a835895a146105d2578063adffa9a21461060e578063b69490bc14610638578063b88d4fde14610674576101f8565b806395d89b411461052c5780639f3d1a2a14610556578063a22cb46514610580578063a2309ff8146105a8576101f8565b8063428f15d61161018f5780636817c76c1161015e5780636817c76c1461044657806370a0823114610470578063715018a6146104ac57806385e3f058146104c25780638da5cb5b14610502576101f8565b8063428f15d6146103565780634e48b855146103925780636352211e146103ce578063671fb7401461040a576101f8565b8063095ea7b3116101cb578063095ea7b3146102c857806323b872dd146102f05780633ccfd60b1461031857806342842e0e1461032e576101f8565b806301ffc9a7146101fc57806306fdde031461023857806307cced9b14610262578063081812fc1461028c575b5f80fd5b348015610207575f80fd5b50610222600480360381019061021d9190612c69565b61085e565b60405161022f9190612cae565b60405180910390f35b348015610243575f80fd5b5061024c61093f565b6040516102599190612d51565b60405180910390f35b34801561026d575f80fd5b506102766109ce565b6040516102839190612d89565b60405180910390f35b348015610297575f80fd5b506102b260048036038101906102ad9190612dcc565b6109d3565b6040516102bf9190612e36565b60405180910390f35b3480156102d3575f80fd5b506102ee60048036038101906102e99190612e79565b6109ee565b005b3480156102fb575f80fd5b5061031660048036038101906103119190612eb7565b610a04565b005b348015610323575f80fd5b5061032c610b03565b005b348015610339575f80fd5b50610354600480360381019061034f9190612eb7565b610b86565b005b348015610361575f80fd5b5061037c60048036038101906103779190612f9e565b610ba5565b6040516103899190612cae565b60405180910390f35b34801561039d575f80fd5b506103b860048036038101906103b39190612ffb565b610bed565b6040516103c59190612cae565b60405180910390f35b3480156103d9575f80fd5b506103f460048036038101906103ef9190612dcc565b610bfc565b6040516104019190612e36565b60405180910390f35b348015610415575f80fd5b50610430600480360381019061042b9190612f9e565b610c0d565b60405161043d919061303e565b60405180910390f35b348015610451575f80fd5b5061045a610c42565b6040516104679190612d89565b60405180910390f35b34801561047b575f80fd5b5061049660048036038101906104919190613057565b610c48565b6040516104a39190612d89565b60405180910390f35b3480156104b7575f80fd5b506104c0610cfe565b005b3480156104cd575f80fd5b506104e860048036038101906104e39190612dcc565b610d11565b6040516104f99594939291906130b3565b60405180910390f35b34801561050d575f80fd5b50610516610eb4565b6040516105239190612e36565b60405180910390f35b348015610537575f80fd5b50610540610edc565b60405161054d9190612d51565b60405180910390f35b348015610561575f80fd5b5061056a610f6c565b6040516105779190612d51565b60405180910390f35b34801561058b575f80fd5b506105a660048036038101906105a19190613135565b610ffc565b005b3480156105b3575f80fd5b506105bc611012565b6040516105c99190612d89565b60405180910390f35b3480156105dd575f80fd5b506105f860048036038101906105f39190612ffb565b611027565b6040516106059190612d51565b60405180910390f35b348015610619575f80fd5b5061062261120f565b60405161062f9190612d89565b60405180910390f35b348015610643575f80fd5b5061065e60048036038101906106599190612f9e565b611215565b60405161066b9190612d89565b60405180910390f35b34801561067f575f80fd5b5061069a6004803603810190610695919061329b565b611251565b005b3480156106a7575f80fd5b506106c260048036038101906106bd9190612dcc565b611276565b6040516106cf9190612d51565b60405180910390f35b3480156106e3575f80fd5b506106fe60048036038101906106f99190612dcc565b6112db565b60405161070b9190612cae565b60405180910390f35b34801561071f575f80fd5b5061073a6004803603810190610735919061331b565b6112f4565b6040516107479190612cae565b60405180910390f35b34801561075b575f80fd5b5061077660048036038101906107719190613383565b611382565b6040516107839190612d89565b60405180910390f35b348015610797575f80fd5b506107a0611397565b6040516107ad9190612d89565b60405180910390f35b3480156107c1575f80fd5b506107dc60048036038101906107d79190613057565b61139c565b005b6107f860048036038101906107f39190612f9e565b611420565b6040516108059190612d89565b60405180910390f35b348015610819575f80fd5b50610834600480360381019061082f9190612dcc565b61167d565b005b348015610841575f80fd5b5061085c600480360381019061085791906133ae565b61168f565b005b5f7f80ac58cd000000000000000000000000000000000000000000000000000000007bffffffffffffffffffffffffffffffffffffffffffffffffffffffff1916827bffffffffffffffffffffffffffffffffffffffffffffffffffffffff1916148061092857507f5b5e139f000000000000000000000000000000000000000000000000000000007bffffffffffffffffffffffffffffffffffffffffffffffffffffffff1916827bffffffffffffffffffffffffffffffffffffffffffffffffffffffff1916145b806109385750610937826116ad565b5b9050919050565b60605f805461094d90613426565b80601f016020809104026020016040519081016040528092919081815260200182805461097990613426565b80156109c45780601f1061099b576101008083540402835291602001916109c4565b820191905f5260205f20905b8154815290600101906020018083116109a757829003601f168201915b5050505050905090565b602081565b5f6109dd82611716565b506109e78261179c565b9050919050565b610a0082826109fb6117d5565b6117dc565b5050565b5f73ffffffffffffffffffffffffffffffffffffffff168273ffffffffffffffffffffffffffffffffffffffff1603610a74575f6040517f64a0ae92000000000000000000000000000000000000000000000000000000008152600401610a6b9190612e36565b60405180910390fd5b5f610a878383610a826117d5565b6117ee565b90508373ffffffffffffffffffffffffffffffffffffffff168173ffffffffffffffffffffffffffffffffffffffff1614610afd578382826040517f64283d7b000000000000000000000000000000000000000000000000000000008152600401610af493929190613456565b60405180910390fd5b50505050565b610b0b6119f9565b5f610b14610eb4565b73ffffffffffffffffffffffffffffffffffffffff1647604051610b37906134b8565b5f6040518083038185875af1925050503d805f8114610b71576040519150601f19603f3d011682016040523d82523d5f602084013e610b76565b606091505b5050905080610b83575f80fd5b50565b610ba083838360405180602001604052805f815250611251565b505050565b5f610baf82610bed565b610bbb575f9050610be6565b610bc58484611a80565b5f600a5f610bd4878787610c0d565b81526020019081526020015f20541490505b9392505050565b5f60068260ff16109050919050565b5f610c0682611716565b9050919050565b5f838383604051602001610c23939291906134f8565b6040516020818303038152906040528051906020012090509392505050565b60085481565b5f8073ffffffffffffffffffffffffffffffffffffffff168273ffffffffffffffffffffffffffffffffffffffff1603610cb9575f6040517f89c62b64000000000000000000000000000000000000000000000000000000008152600401610cb09190612e36565b60405180910390fd5b60035f8373ffffffffffffffffffffffffffffffffffffffff1673ffffffffffffffffffffffffffffffffffffffff1681526020019081526020015f20549050919050565b610d066119f9565b610d0f5f611c4c565b565b5f60605f805f8073ffffffffffffffffffffffffffffffffffffffff16610d3787611d0f565b73ffffffffffffffffffffffffffffffffffffffff1603610d84576040517fcbdb7b3000000000000000000000000000000000000000000000000000000000815260040160405180910390fd5b5f600b5f8881526020019081526020015f206040518060600160405290815f82018054610db090613426565b80601f0160208091040260200160405190810160405280929190818152602001828054610ddc90613426565b8015610e275780601f10610dfe57610100808354040283529160200191610e27565b820191905f5260205f20905b815481529060010190602001808311610e0a57829003601f168201915b50505050508152602001600182015f9054906101000a900460ff1660ff1660ff1681526020016001820160019054906101000a900467ffffffffffffffff1667ffffffffffffffff1667ffffffffffffffff16815250509050610e8987611d0f565b815f015182602001518360400151610ea08b6112db565b955095509550955095505091939590929450565b5f60065f9054906101000a900473ffffffffffffffffffffffffffffffffffffffff16905090565b606060018054610eeb90613426565b80601f0160208091040260200160405190810160405280929190818152602001828054610f1790613426565b8015610f625780601f10610f3957610100808354040283529160200191610f62565b820191905f5260205f20905b815481529060010190602001808311610f4557829003601f168201915b5050505050905090565b606060098054610f7b90613426565b80601f0160208091040260200160405190810160405280929190818152602001828054610fa790613426565b8015610ff25780601f10610fc957610100808354040283529160200191610ff2565b820191905f5260205f20905b815481529060010190602001808311610fd557829003601f168201915b5050505050905090565b61100e6110076117d5565b8383611d48565b5050565b5f60016007546110229190613555565b905090565b60605f8260ff1603611070576040518060400160405280600781526020017f63756c7475726500000000000000000000000000000000000000000000000000815250905061120a565b60018260ff16036110b8576040518060400160405280600581526020017f6275696c64000000000000000000000000000000000000000000000000000000815250905061120a565b60028260ff1603611100576040518060400160405280600481526020017f686f6d6500000000000000000000000000000000000000000000000000000000815250905061120a565b60038260ff1603611148576040518060400160405280600381526020017f65636f0000000000000000000000000000000000000000000000000000000000815250905061120a565b60048260ff1603611190576040518060400160405280600781526020017f6361706974616c00000000000000000000000000000000000000000000000000815250905061120a565b60058260ff16036111d8576040518060400160405280600481526020017f6369747900000000000000000000000000000000000000000000000000000000815250905061120a565b6040517f7957df1600000000000000000000000000000000000000000000000000000000815260040160405180910390fd5b919050565b61138881565b5f61121f82610bed565b61122b575f905061124a565b600a5f611239868686610c0d565b81526020019081526020015f205490505b9392505050565b61125c848484610a04565b6112706112676117d5565b85858585611f21565b50505050565b606061128182611716565b505f6009805461129090613426565b905011156112ca5760096112a3836120cd565b6040516020016112b4929190613654565b60405160208183030381529060405290506112d6565b6112d382612197565b90505b919050565b5f80821180156112ed57506113888211155b9050919050565b5f60055f8473ffffffffffffffffffffffffffffffffffffffff1673ffffffffffffffffffffffffffffffffffffffff1681526020019081526020015f205f8373ffffffffffffffffffffffffffffffffffffffff1673ffffffffffffffffffffffffffffffffffffffff1681526020019081526020015f205f9054906101000a900460ff16905092915050565b600a602052805f5260405f205f915090505481565b600181565b6113a46119f9565b5f73ffffffffffffffffffffffffffffffffffffffff168173ffffffffffffffffffffffffffffffffffffffff1603611414575f6040517f1e4fbdf700000000000000000000000000000000000000000000000000000000815260040161140b9190612e36565b60405180910390fd5b61141d81611c4c565b50565b5f61142a82610bed565b611460576040517f7957df1600000000000000000000000000000000000000000000000000000000815260040160405180910390fd5b61146a8484611a80565b6008543410156114a6576040517fcd1c886700000000000000000000000000000000000000000000000000000000815260040160405180910390fd5b5f6114b2858585610c0d565b90505f600a5f8381526020019081526020015f2054146114fe576040517f9e4b268500000000000000000000000000000000000000000000000000000000815260040160405180910390fd5b60075f81548092919061151090613677565b91905055915081600a5f8381526020019081526020015f2081905550604051806060016040528086868080601f0160208091040260200160405190810160405280939291908181526020018383808284375f81840152601f19601f8201169050808301925050505050505081526020018460ff1681526020014267ffffffffffffffff16815250600b5f8481526020019081526020015f205f820151815f0190816115bb9190613849565b506020820151816001015f6101000a81548160ff021916908360ff16021790555060408201518160010160016101000a81548167ffffffffffffffff021916908367ffffffffffffffff160217905550905050611618338361236e565b813373ffffffffffffffffffffffffffffffffffffffff167ff9893cddf8954918380d9ab29ecc749e7c71f27b5da95c2d5eda127aaaa0820c87878761165d886112db565b60405161166d9493929190613918565b60405180910390a3509392505050565b6116856119f9565b8060088190555050565b6116976119f9565b8181600991826116a8929190613960565b505050565b5f7f01ffc9a7000000000000000000000000000000000000000000000000000000007bffffffffffffffffffffffffffffffffffffffffffffffffffffffff1916827bffffffffffffffffffffffffffffffffffffffffffffffffffffffff1916149050919050565b5f8061172183611d0f565b90505f73ffffffffffffffffffffffffffffffffffffffff168173ffffffffffffffffffffffffffffffffffffffff160361179357826040517f7e27328900000000000000000000000000000000000000000000000000000000815260040161178a9190612d89565b60405180910390fd5b80915050919050565b5f60045f8381526020019081526020015f205f9054906101000a900473ffffffffffffffffffffffffffffffffffffffff169050919050565b5f33905090565b6117e9838383600161238b565b505050565b5f806117f984611d0f565b90505f73ffffffffffffffffffffffffffffffffffffffff168373ffffffffffffffffffffffffffffffffffffffff161461183a5761183981848661254a565b5b5f73ffffffffffffffffffffffffffffffffffffffff168173ffffffffffffffffffffffffffffffffffffffff16146118c5576118795f855f8061238b565b600160035f8373ffffffffffffffffffffffffffffffffffffffff1673ffffffffffffffffffffffffffffffffffffffff1681526020019081526020015f205f82825403925050819055505b5f73ffffffffffffffffffffffffffffffffffffffff168573ffffffffffffffffffffffffffffffffffffffff161461194457600160035f8773ffffffffffffffffffffffffffffffffffffffff1673ffffffffffffffffffffffffffffffffffffffff1681526020019081526020015f205f82825401925050819055505b8460025f8681526020019081526020015f205f6101000a81548173ffffffffffffffffffffffffffffffffffffffff021916908373ffffffffffffffffffffffffffffffffffffffff160217905550838573ffffffffffffffffffffffffffffffffffffffff168273ffffffffffffffffffffffffffffffffffffffff167fddf252ad1be2c89b69c2b068fc378daa952ba7f163c4a11628f55a4df523b3ef60405160405180910390a4809150509392505050565b611a016117d5565b73ffffffffffffffffffffffffffffffffffffffff16611a1f610eb4565b73ffffffffffffffffffffffffffffffffffffffff1614611a7e57611a426117d5565b6040517f118cdaa7000000000000000000000000000000000000000000000000000000008152600401611a759190612e36565b60405180910390fd5b565b5f82828080601f0160208091040260200160405190810160405280939291908181526020018383808284375f81840152601f19601f8201169050808301925050505050505090505f815190506001811080611adb5750602081115b15611b12576040517f0125ec3100000000000000000000000000000000000000000000000000000000815260040160405180910390fd5b5f5b81811015611c45575f838281518110611b3057611b2f613a2d565b5b602001015160f81c60f81b90505f603060f81b827effffffffffffffffffffffffffffffffffffffffffffffffffffffffffffff191610158015611b9a5750603960f81b827effffffffffffffffffffffffffffffffffffffffffffffffffffffffffffff191611155b80611bfd5750606160f81b827effffffffffffffffffffffffffffffffffffffffffffffffffffffffffffff191610158015611bfc5750607a60f81b827effffffffffffffffffffffffffffffffffffffffffffffffffffffffffffff191611155b5b905080611c36576040517f0125ec3100000000000000000000000000000000000000000000000000000000815260040160405180910390fd5b50508080600101915050611b14565b5050505050565b5f60065f9054906101000a900473ffffffffffffffffffffffffffffffffffffffff1690508160065f6101000a81548173ffffffffffffffffffffffffffffffffffffffff021916908373ffffffffffffffffffffffffffffffffffffffff1602179055508173ffffffffffffffffffffffffffffffffffffffff168173ffffffffffffffffffffffffffffffffffffffff167f8be0079c531659141344cd1fd0a4f28419497f9722a3daafe3b4186f6b6457e060405160405180910390a35050565b5f60025f8381526020019081526020015f205f9054906101000a900473ffffffffffffffffffffffffffffffffffffffff169050919050565b5f73ffffffffffffffffffffffffffffffffffffffff168373ffffffffffffffffffffffffffffffffffffffff1603611db8575f6040517fa9fbf51f000000000000000000000000000000000000000000000000000000008152600401611daf9190612e36565b60405180910390fd5b5f73ffffffffffffffffffffffffffffffffffffffff168273ffffffffffffffffffffffffffffffffffffffff1603611e2857816040517f5b08ba18000000000000000000000000000000000000000000000000000000008152600401611e1f9190612e36565b60405180910390fd5b8060055f8573ffffffffffffffffffffffffffffffffffffffff1673ffffffffffffffffffffffffffffffffffffffff1681526020019081526020015f205f8473ffffffffffffffffffffffffffffffffffffffff1673ffffffffffffffffffffffffffffffffffffffff1681526020019081526020015f205f6101000a81548160ff0219169083151502179055508173ffffffffffffffffffffffffffffffffffffffff168373ffffffffffffffffffffffffffffffffffffffff167f17307eab39ab6107e8899845ad3d59bd9653f200f220920489ca2b5937696c3183604051611f149190612cae565b60405180910390a3505050565b5f8373ffffffffffffffffffffffffffffffffffffffff163b11156120c6578273ffffffffffffffffffffffffffffffffffffffff1663150b7a02868685856040518563ffffffff1660e01b8152600401611f7f9493929190613aac565b6020604051808303815f875af1925050508015611fba57506040513d601f19601f82011682018060405250810190611fb79190613b0a565b60015b61203b573d805f8114611fe8576040519150601f19603f3d011682016040523d82523d5f602084013e611fed565b606091505b505f81510361203357836040517f64a0ae9200000000000000000000000000000000000000000000000000000000815260040161202a9190612e36565b60405180910390fd5b805160208201fd5b63150b7a0260e01b7bffffffffffffffffffffffffffffffffffffffffffffffffffffffff1916817bffffffffffffffffffffffffffffffffffffffffffffffffffffffff1916146120c457836040517f64a0ae920000000000000000000000000000000000000000000000000000000081526004016120bb9190612e36565b60405180910390fd5b505b5050505050565b60605f60016120db8461260d565b0190505f8167ffffffffffffffff8111156120f9576120f8613177565b5b6040519080825280601f01601f19166020018201604052801561212b5781602001600182028036833780820191505090505b5090505f82602083010190505b60011561218c578080600190039150507f3031323334353637383961626364656600000000000000000000000000000000600a86061a8153600a858161218157612180613b35565b5b0494505f8503612138575b819350505050919050565b60605f600b5f8481526020019081526020015f206040518060600160405290815f820180546121c590613426565b80601f01602080910402602001604051908101604052809291908181526020018280546121f190613426565b801561223c5780601f106122135761010080835404028352916020019161223c565b820191905f5260205f20905b81548152906001019060200180831161221f57829003601f168201915b50505050508152602001600182015f9054906101000a900460ff1660ff1660ff1681526020016001820160019054906101000a900467ffffffffffffffff1667ffffffffffffffff1667ffffffffffffffff168152505090505f6122a38260200151611027565b90505f6122bd835f015183876122b8896112db565b61275e565b90505f6122c982612890565b6040516020016122d99190613b88565b60405160208183030381529060405290505f845f015184604051602001612301929190613bd3565b60405160208183030381529060405290505f81828460405160200161232893929190613d33565b604051602081830303815290604052905061234281612890565b6040516020016123529190613ddf565b6040516020818303038152906040529650505050505050919050565b612387828260405180602001604052805f8152506128a3565b5050565b80806123c357505f73ffffffffffffffffffffffffffffffffffffffff168273ffffffffffffffffffffffffffffffffffffffff1614155b156124f5575f6123d284611716565b90505f73ffffffffffffffffffffffffffffffffffffffff168373ffffffffffffffffffffffffffffffffffffffff161415801561243c57508273ffffffffffffffffffffffffffffffffffffffff168173ffffffffffffffffffffffffffffffffffffffff1614155b801561244f575061244d81846112f4565b155b1561249157826040517fa9fbf51f0000000000000000000000000000000000000000000000000000000081526004016124889190612e36565b60405180910390fd5b81156124f357838573ffffffffffffffffffffffffffffffffffffffff168273ffffffffffffffffffffffffffffffffffffffff167f8c5be1e5ebec7d5bd14f71427d1e84f3dd0314c0f7b2291e5b200ac8c7c3b92560405160405180910390a45b505b8360045f8581526020019081526020015f205f6101000a81548173ffffffffffffffffffffffffffffffffffffffff021916908373ffffffffffffffffffffffffffffffffffffffff16021790555050505050565b6125558383836128c6565b612608575f73ffffffffffffffffffffffffffffffffffffffff168373ffffffffffffffffffffffffffffffffffffffff16036125c957806040517f7e2732890000000000000000000000000000000000000000000000000000000081526004016125c09190612d89565b60405180910390fd5b81816040517f177e802f0000000000000000000000000000000000000000000000000000000081526004016125ff929190613e04565b60405180910390fd5b505050565b5f805f90507a184f03e93ff9f4daa797ed6e38ed64bf6a1f0100000000000000008310612669577a184f03e93ff9f4daa797ed6e38ed64bf6a1f010000000000000000838161265f5761265e613b35565b5b0492506040810190505b6d04ee2d6d415b85acef810000000083106126a6576d04ee2d6d415b85acef8100000000838161269c5761269b613b35565b5b0492506020810190505b662386f26fc1000083106126d557662386f26fc1000083816126cb576126ca613b35565b5b0492506010810190505b6305f5e10083106126fe576305f5e10083816126f4576126f3613b35565b5b0492506008810190505b612710831061272357612710838161271957612718613b35565b5b0492506004810190505b60648310612746576064838161273c5761273b613b35565b5b0492506002810190505b600a8310612755576001810190505b80915050919050565b60605f826127a1576040518060400160405280600781526020017f23356238646566000000000000000000000000000000000000000000000000008152506127d8565b6040518060400160405280600781526020017f23643461383533000000000000000000000000000000000000000000000000008152505b90505f8361281b576040518060400160405280600d81526020017f43554c54555245204c4159455200000000000000000000000000000000000000815250612852565b6040518060400160405280600881526020017f464f554e44494e470000000000000000000000000000000000000000000000008152505b905080878388612861896120cd565b6040516020016128759594939291906142db565b60405160208183030381529060405292505050949350505050565b606061289c825f612986565b9050919050565b6128ad8383612b10565b6128c16128b86117d5565b5f858585611f21565b505050565b5f8073ffffffffffffffffffffffffffffffffffffffff168373ffffffffffffffffffffffffffffffffffffffff161415801561297d57508273ffffffffffffffffffffffffffffffffffffffff168473ffffffffffffffffffffffffffffffffffffffff16148061293e575061293d84846112f4565b5b8061297c57508273ffffffffffffffffffffffffffffffffffffffff166129648361179c565b73ffffffffffffffffffffffffffffffffffffffff16145b5b90509392505050565b60605f8351036129a65760405180602001604052805f8152509050612b0a565b5f826129d7576003600285516129bc91906143d7565b6129c6919061440a565b60046129d2919061443a565b6129fe565b60036002855160046129e9919061443a565b6129f391906143d7565b6129fd919061440a565b5b905060405191507f4142434445464748494a4b4c4d4e4f505152535455565758595a616263646566601f5261067083027f6768696a6b6c6d6e6f707172737475767778797a303132333435363738392b2f18603f526020820181810185865187016020810180515f82525b82841015612abc576003840193508351603f8160121c16518753600187019650603f81600c1c16518753600187019650603f8160061c16518753600187019650603f811651875360018701965050612a69565b80825288612afb5760038a510660018114612ade5760028114612af157612af9565b603d6001880353603d6002880353612af9565b603d60018803535b505b86885284604052505050505050505b92915050565b5f73ffffffffffffffffffffffffffffffffffffffff168273ffffffffffffffffffffffffffffffffffffffff1603612b80575f6040517f64a0ae92000000000000000000000000000000000000000000000000000000008152600401612b779190612e36565b60405180910390fd5b5f612b8c83835f6117ee565b90505f73ffffffffffffffffffffffffffffffffffffffff168173ffffffffffffffffffffffffffffffffffffffff1614612bfe575f6040517f73c6ac6e000000000000000000000000000000000000000000000000000000008152600401612bf59190612e36565b60405180910390fd5b505050565b5f604051905090565b5f80fd5b5f80fd5b5f7fffffffff0000000000000000000000000000000000000000000000000000000082169050919050565b612c4881612c14565b8114612c52575f80fd5b50565b5f81359050612c6381612c3f565b92915050565b5f60208284031215612c7e57612c7d612c0c565b5b5f612c8b84828501612c55565b91505092915050565b5f8115159050919050565b612ca881612c94565b82525050565b5f602082019050612cc15f830184612c9f565b92915050565b5f81519050919050565b5f82825260208201905092915050565b5f5b83811015612cfe578082015181840152602081019050612ce3565b5f8484015250505050565b5f601f19601f8301169050919050565b5f612d2382612cc7565b612d2d8185612cd1565b9350612d3d818560208601612ce1565b612d4681612d09565b840191505092915050565b5f6020820190508181035f830152612d698184612d19565b905092915050565b5f819050919050565b612d8381612d71565b82525050565b5f602082019050612d9c5f830184612d7a565b92915050565b612dab81612d71565b8114612db5575f80fd5b50565b5f81359050612dc681612da2565b92915050565b5f60208284031215612de157612de0612c0c565b5b5f612dee84828501612db8565b91505092915050565b5f73ffffffffffffffffffffffffffffffffffffffff82169050919050565b5f612e2082612df7565b9050919050565b612e3081612e16565b82525050565b5f602082019050612e495f830184612e27565b92915050565b612e5881612e16565b8114612e62575f80fd5b50565b5f81359050612e7381612e4f565b92915050565b5f8060408385031215612e8f57612e8e612c0c565b5b5f612e9c85828601612e65565b9250506020612ead85828601612db8565b9150509250929050565b5f805f60608486031215612ece57612ecd612c0c565b5b5f612edb86828701612e65565b9350506020612eec86828701612e65565b9250506040612efd86828701612db8565b9150509250925092565b5f80fd5b5f80fd5b5f80fd5b5f8083601f840112612f2857612f27612f07565b5b8235905067ffffffffffffffff811115612f4557612f44612f0b565b5b602083019150836001820283011115612f6157612f60612f0f565b5b9250929050565b5f60ff82169050919050565b612f7d81612f68565b8114612f87575f80fd5b50565b5f81359050612f9881612f74565b92915050565b5f805f60408486031215612fb557612fb4612c0c565b5b5f84013567ffffffffffffffff811115612fd257612fd1612c10565b5b612fde86828701612f13565b93509350506020612ff186828701612f8a565b9150509250925092565b5f602082840312156130105761300f612c0c565b5b5f61301d84828501612f8a565b91505092915050565b5f819050919050565b61303881613026565b82525050565b5f6020820190506130515f83018461302f565b92915050565b5f6020828403121561306c5761306b612c0c565b5b5f61307984828501612e65565b91505092915050565b61308b81612f68565b82525050565b5f67ffffffffffffffff82169050919050565b6130ad81613091565b82525050565b5f60a0820190506130c65f830188612e27565b81810360208301526130d88187612d19565b90506130e76040830186613082565b6130f460608301856130a4565b6131016080830184612c9f565b9695505050505050565b61311481612c94565b811461311e575f80fd5b50565b5f8135905061312f8161310b565b92915050565b5f806040838503121561314b5761314a612c0c565b5b5f61315885828601612e65565b925050602061316985828601613121565b9150509250929050565b5f80fd5b7f4e487b71000000000000000000000000000000000000000000000000000000005f52604160045260245ffd5b6131ad82612d09565b810181811067ffffffffffffffff821117156131cc576131cb613177565b5b80604052505050565b5f6131de612c03565b90506131ea82826131a4565b919050565b5f67ffffffffffffffff82111561320957613208613177565b5b61321282612d09565b9050602081019050919050565b828183375f83830152505050565b5f61323f61323a846131ef565b6131d5565b90508281526020810184848401111561325b5761325a613173565b5b61326684828561321f565b509392505050565b5f82601f83011261328257613281612f07565b5b813561329284826020860161322d565b91505092915050565b5f805f80608085870312156132b3576132b2612c0c565b5b5f6132c087828801612e65565b94505060206132d187828801612e65565b93505060406132e287828801612db8565b925050606085013567ffffffffffffffff81111561330357613302612c10565b5b61330f8782880161326e565b91505092959194509250565b5f806040838503121561333157613330612c0c565b5b5f61333e85828601612e65565b925050602061334f85828601612e65565b9150509250929050565b61336281613026565b811461336c575f80fd5b50565b5f8135905061337d81613359565b92915050565b5f6020828403121561339857613397612c0c565b5b5f6133a58482850161336f565b91505092915050565b5f80602083850312156133c4576133c3612c0c565b5b5f83013567ffffffffffffffff8111156133e1576133e0612c10565b5b6133ed85828601612f13565b92509250509250929050565b7f4e487b71000000000000000000000000000000000000000000000000000000005f52602260045260245ffd5b5f600282049050600182168061343d57607f821691505b6020821081036134505761344f6133f9565b5b50919050565b5f6060820190506134695f830186612e27565b6134766020830185612d7a565b6134836040830184612e27565b949350505050565b5f81905092915050565b50565b5f6134a35f8361348b565b91506134ae82613495565b5f82019050919050565b5f6134c282613498565b9150819050919050565b5f6134d78385612cd1565b93506134e483858461321f565b6134ed83612d09565b840190509392505050565b5f6040820190508181035f8301526135118185876134cc565b90506135206020830184613082565b949350505050565b7f4e487b71000000000000000000000000000000000000000000000000000000005f52601160045260245ffd5b5f61355f82612d71565b915061356a83612d71565b925082820390508181111561358257613581613528565b5b92915050565b5f81905092915050565b5f819050815f5260205f209050919050565b5f81546135b081613426565b6135ba8186613588565b9450600182165f81146135d457600181146135e95761361b565b60ff198316865281151582028601935061361b565b6135f285613592565b5f5b83811015613613578154818901526001820191506020810190506135f4565b838801955050505b50505092915050565b5f61362e82612cc7565b6136388185613588565b9350613648818560208601612ce1565b80840191505092915050565b5f61365f82856135a4565b915061366b8284613624565b91508190509392505050565b5f61368182612d71565b91507fffffffffffffffffffffffffffffffffffffffffffffffffffffffffffffffff82036136b3576136b2613528565b5b600182019050919050565b5f6020601f8301049050919050565b5f82821b905092915050565b5f600883026137087fffffffffffffffffffffffffffffffffffffffffffffffffffffffffffffffff826136cd565b61371286836136cd565b95508019841693508086168417925050509392505050565b5f819050919050565b5f61374d61374861374384612d71565b61372a565b612d71565b9050919050565b5f819050919050565b61376683613733565b61377a61377282613754565b8484546136d9565b825550505050565b5f90565b61378e613782565b61379981848461375d565b505050565b5b818110156137bc576137b15f82613786565b60018101905061379f565b5050565b601f821115613801576137d281613592565b6137db846136be565b810160208510156137ea578190505b6137fe6137f6856136be565b83018261379e565b50505b505050565b5f82821c905092915050565b5f6138215f1984600802613806565b1980831691505092915050565b5f6138398383613812565b9150826002028217905092915050565b61385282612cc7565b67ffffffffffffffff81111561386b5761386a613177565b5b6138758254613426565b6138808282856137c0565b5f60209050601f8311600181146138b1575f841561389f578287015190505b6138a9858261382e565b865550613910565b601f1984166138bf86613592565b5f5b828110156138e6578489015182556001820191506020850194506020810190506138c1565b8683101561390357848901516138ff601f891682613812565b8355505b6001600288020188555050505b505050505050565b5f6060820190508181035f8301526139318186886134cc565b90506139406020830185613082565b61394d6040830184612c9f565b95945050505050565b5f82905092915050565b61396a8383613956565b67ffffffffffffffff81111561398357613982613177565b5b61398d8254613426565b6139988282856137c0565b5f601f8311600181146139c5575f84156139b3578287013590505b6139bd858261382e565b865550613a24565b601f1984166139d386613592565b5f5b828110156139fa578489013582556001820191506020850194506020810190506139d5565b86831015613a175784890135613a13601f891682613812565b8355505b6001600288020188555050505b50505050505050565b7f4e487b71000000000000000000000000000000000000000000000000000000005f52603260045260245ffd5b5f81519050919050565b5f82825260208201905092915050565b5f613a7e82613a5a565b613a888185613a64565b9350613a98818560208601612ce1565b613aa181612d09565b840191505092915050565b5f608082019050613abf5f830187612e27565b613acc6020830186612e27565b613ad96040830185612d7a565b8181036060830152613aeb8184613a74565b905095945050505050565b5f81519050613b0481612c3f565b92915050565b5f60208284031215613b1f57613b1e612c0c565b5b5f613b2c84828501613af6565b91505092915050565b7f4e487b71000000000000000000000000000000000000000000000000000000005f52601260045260245ffd5b7f646174613a696d6167652f7376672b786d6c3b6261736536342c000000000000815250565b5f613b9282613b62565b601a82019150613ba28284613624565b915081905092915050565b7f2e00000000000000000000000000000000000000000000000000000000000000815250565b5f613bde8285613624565b9150613be982613bad565b600182019150613bf98284613624565b91508190509392505050565b7f7b226e616d65223a220000000000000000000000000000000000000000000000815250565b7f202d2043756c74757265204c61796572222c0000000000000000000000000000815250565b7f226465736372697074696f6e223a225472616e7366657261626c652043756c745f8201527f757265204c61796572206964656e746974792000000000000000000000000000602082015250565b5f613cab603383613588565b9150613cb682613c51565b603382019050919050565b7f206f6e20426173652e222c000000000000000000000000000000000000000000815250565b7f22696d616765223a220000000000000000000000000000000000000000000000815250565b7f227d000000000000000000000000000000000000000000000000000000000000815250565b5f613d3d82613c05565b600982019150613d4d8286613624565b9150613d5882613c2b565b601282019150613d6782613c9f565b9150613d738285613624565b9150613d7e82613cc1565b600b82019150613d8d82613ce7565b600982019150613d9d8284613624565b9150613da882613d0d565b600282019150819050949350505050565b7f646174613a6170706c69636174696f6e2f6a736f6e3b6261736536342c000000815250565b5f613de982613db9565b601d82019150613df98284613624565b915081905092915050565b5f604082019050613e175f830185612e27565b613e246020830184612d7a565b9392505050565b7f3c73766720786d6c6e733d22687474703a2f2f7777772e77332e6f72672f32305f8201527f30302f737667222076696577426f783d223020302036303020383030223e0000602082015250565b5f613e85603e83613588565b9150613e9082613e2b565b603e82019050919050565b7f3c646566733e3c6c696e6561724772616469656e742069643d226267222078315f8201527f3d2230222079313d2230222078323d2231222079323d2231223e000000000000602082015250565b5f613ef5603a83613588565b9150613f0082613e9b565b603a82019050919050565b7f3c73746f70206f66667365743d223025222073746f702d636f6c6f723d2223315f8201527f3231353163222f3e3c73746f70206f66667365743d2231303025222073746f7060208201527f2d636f6c6f723d2223306330653134222f3e0000000000000000000000000000604082015250565b5f613f8b605283613588565b9150613f9682613f0b565b605282019050919050565b7f3c2f6c696e6561724772616469656e743e3c2f646566733e0000000000000000815250565b7f3c726563742077696474683d2236303022206865696768743d223830302220725f8201527f783d223332222066696c6c3d2275726c2823626729222f3e0000000000000000602082015250565b5f614021603883613588565b915061402c82613fc7565b603882019050919050565b7f3c7465787420783d2234382220793d223732222066696c6c3d222338383822205f8201527f666f6e742d66616d696c793d226d6f6e6f73706163652220666f6e742d73697a60208201527f653d223132223e00000000000000000000000000000000000000000000000000604082015250565b5f6140b7604783613588565b91506140c282614037565b604782019050919050565b7f3c2f746578743e00000000000000000000000000000000000000000000000000815250565b7f3c7465787420783d2234382220793d22333430222066696c6c3d2223663466355f8201527f66372220666f6e742d66616d696c793d2273797374656d2d75692220666f6e7460208201527f2d73697a653d2236342220666f6e742d7765696768743d22363030223e000000604082015250565b5f614173605d83613588565b915061417e826140f3565b605d82019050919050565b7f3c7465787420783d2234382220793d22343130222066696c6c3d220000000000815250565b7f2220666f6e742d66616d696c793d2273657269662220666f6e742d73697a653d5f8201527f2235322220666f6e742d7374796c653d226974616c6963223e2e000000000000602082015250565b5f614209603a83613588565b9150614214826141af565b603a82019050919050565b7f3c7465787420783d2234382220793d22343730222066696c6c3d2223363636225f8201527f20666f6e742d66616d696c793d226d6f6e6f73706163652220666f6e742d736960208201527f7a653d223134223e230000000000000000000000000000000000000000000000604082015250565b5f61429f604983613588565b91506142aa8261421f565b604982019050919050565b7f3c2f746578743e3c2f7376673e00000000000000000000000000000000000000815250565b5f6142e582613e79565b91506142f082613ee9565b91506142fb82613f7f565b915061430682613fa1565b60188201915061431582614015565b9150614320826140ab565b915061432c8288613624565b9150614337826140cd565b60078201915061434682614167565b91506143528287613624565b915061435d826140cd565b60078201915061436c82614189565b601b8201915061437c8286613624565b9150614387826141fd565b91506143938285613624565b915061439e826140cd565b6007820191506143ad82614293565b91506143b98284613624565b91506143c4826142b5565b600d820191508190509695505050505050565b5f6143e182612d71565b91506143ec83612d71565b925082820190508082111561440457614403613528565b5b92915050565b5f61441482612d71565b915061441f83612d71565b92508261442f5761442e613b35565b5b828204905092915050565b5f61444482612d71565b915061444f83612d71565b925082820261445d81612d71565b9150828204841483151761447457614473613528565b5b509291505056fea26469706673582212205f9ba9cc9c5708f43ef3c75c847d8a7808b0489d856e392d47616bf97924872164736f6c63430008180033","linkReferences":{}},"methodIdentifiers":{"FOUNDING_CAP()":"adffa9a2","MAX_HANDLE_LEN()":"07cced9b","MIN_HANDLE_LEN()":"ef791e77","approve(address,uint256)":"095ea7b3","balanceOf(address)":"70a08231","getApproved(uint256)":"081812fc","getIdentity(uint256)":"85e3f058","getTokenId(string,uint8)":"b69490bc","isApprovedForAll(address,address)":"e985e9c5","isAvailable(string,uint8)":"428f15d6","isFoundingMember(uint256)":"e1379472","isValidTld(uint8)":"4e48b855","metadataBaseURI()":"9f3d1a2a","mint(string,uint8)":"f3006c87","mintPrice()":"6817c76c","name()":"06fdde03","nameKey(string,uint8)":"671fb740","nameToTokenId(bytes32)":"e9f5985d","owner()":"8da5cb5b","ownerOf(uint256)":"6352211e","renounceOwnership()":"715018a6","safeTransferFrom(address,address,uint256)":"42842e0e","safeTransferFrom(address,address,uint256,bytes)":"b88d4fde","setApprovalForAll(address,bool)":"a22cb465","setMetadataBaseURI(string)":"fb94bd8a","setMintPrice(uint256)":"f4a0a528","supportsInterface(bytes4)":"01ffc9a7","symbol()":"95d89b41","tldLabel(uint8)":"a835895a","tokenURI(uint256)":"c87b56dd","totalMinted()":"a2309ff8","transferFrom(address,address,uint256)":"23b872dd","transferOwnership(address)":"f2fde38b","withdraw()":"3ccfd60b"},"id":36}