{"abi":[{"type":"constructor","inputs":[{"name":"name_","type":"string","internalType":"string"},{"name":"symbol_","type":"string","internalType":"string"},{"name":"mintPriceWei_","type":"uint256","internalType":"uint256"},{"name":"maxSupply_","type":"uint256","internalType":"uint256"},{"name":"treasury_","type":"address","internalType":"address"},{"name":"baseURI_","type":"string","internalType":"string"},{"name":"initialOwner","type":"address","internalType":"address"}],"stateMutability":"nonpayable"},{"type":"function","name":"approve","inputs":[{"name":"to","type":"address","internalType":"address"},{"name":"tokenId","type":"uint256","internalType":"uint256"}],"outputs":[],"stateMutability":"nonpayable"},{"type":"function","name":"balanceOf","inputs":[{"name":"owner","type":"address","internalType":"address"}],"outputs":[{"name":"","type":"uint256","internalType":"uint256"}],"stateMutability":"view"},{"type":"function","name":"getApproved","inputs":[{"name":"tokenId","type":"uint256","internalType":"uint256"}],"outputs":[{"name":"","type":"address","internalType":"address"}],"stateMutability":"view"},{"type":"function","name":"isApprovedForAll","inputs":[{"name":"owner","type":"address","internalType":"address"},{"name":"operator","type":"address","internalType":"address"}],"outputs":[{"name":"","type":"bool","internalType":"bool"}],"stateMutability":"view"},{"type":"function","name":"maxSupply","inputs":[],"outputs":[{"name":"","type":"uint256","internalType":"uint256"}],"stateMutability":"view"},{"type":"function","name":"mint","inputs":[{"name":"quantity","type":"uint256","internalType":"uint256"}],"outputs":[],"stateMutability":"payable"},{"type":"function","name":"mintPriceWei","inputs":[],"outputs":[{"name":"","type":"uint256","internalType":"uint256"}],"stateMutability":"view"},{"type":"function","name":"name","inputs":[],"outputs":[{"name":"","type":"string","internalType":"string"}],"stateMutability":"view"},{"type":"function","name":"owner","inputs":[],"outputs":[{"name":"","type":"address","internalType":"address"}],"stateMutability":"view"},{"type":"function","name":"ownerOf","inputs":[{"name":"tokenId","type":"uint256","internalType":"uint256"}],"outputs":[{"name":"","type":"address","internalType":"address"}],"stateMutability":"view"},{"type":"function","name":"pause","inputs":[],"outputs":[],"stateMutability":"nonpayable"},{"type":"function","name":"paused","inputs":[],"outputs":[{"name":"","type":"bool","internalType":"bool"}],"stateMutability":"view"},{"type":"function","name":"renounceOwnership","inputs":[],"outputs":[],"stateMutability":"nonpayable"},{"type":"function","name":"safeTransferFrom","inputs":[{"name":"from","type":"address","internalType":"address"},{"name":"to","type":"address","internalType":"address"},{"name":"tokenId","type":"uint256","internalType":"uint256"}],"outputs":[],"stateMutability":"nonpayable"},{"type":"function","name":"safeTransferFrom","inputs":[{"name":"from","type":"address","internalType":"address"},{"name":"to","type":"address","internalType":"address"},{"name":"tokenId","type":"uint256","internalType":"uint256"},{"name":"data","type":"bytes","internalType":"bytes"}],"outputs":[],"stateMutability":"nonpayable"},{"type":"function","name":"setApprovalForAll","inputs":[{"name":"operator","type":"address","internalType":"address"},{"name":"approved","type":"bool","internalType":"bool"}],"outputs":[],"stateMutability":"nonpayable"},{"type":"function","name":"setBaseURI","inputs":[{"name":"newBase","type":"string","internalType":"string"}],"outputs":[],"stateMutability":"nonpayable"},{"type":"function","name":"supportsInterface","inputs":[{"name":"interfaceId","type":"bytes4","internalType":"bytes4"}],"outputs":[{"name":"","type":"bool","internalType":"bool"}],"stateMutability":"view"},{"type":"function","name":"symbol","inputs":[],"outputs":[{"name":"","type":"string","internalType":"string"}],"stateMutability":"view"},{"type":"function","name":"tokenByIndex","inputs":[{"name":"index","type":"uint256","internalType":"uint256"}],"outputs":[{"name":"","type":"uint256","internalType":"uint256"}],"stateMutability":"view"},{"type":"function","name":"tokenOfOwnerByIndex","inputs":[{"name":"owner","type":"address","internalType":"address"},{"name":"index","type":"uint256","internalType":"uint256"}],"outputs":[{"name":"","type":"uint256","internalType":"uint256"}],"stateMutability":"view"},{"type":"function","name":"tokenURI","inputs":[{"name":"tokenId","type":"uint256","internalType":"uint256"}],"outputs":[{"name":"","type":"string","internalType":"string"}],"stateMutability":"view"},{"type":"function","name":"totalSupply","inputs":[],"outputs":[{"name":"","type":"uint256","internalType":"uint256"}],"stateMutability":"view"},{"type":"function","name":"transferFrom","inputs":[{"name":"from","type":"address","internalType":"address"},{"name":"to","type":"address","internalType":"address"},{"name":"tokenId","type":"uint256","internalType":"uint256"}],"outputs":[],"stateMutability":"nonpayable"},{"type":"function","name":"transferOwnership","inputs":[{"name":"newOwner","type":"address","internalType":"address"}],"outputs":[],"stateMutability":"nonpayable"},{"type":"function","name":"treasury","inputs":[],"outputs":[{"name":"","type":"address","internalType":"address"}],"stateMutability":"view"},{"type":"function","name":"unpause","inputs":[],"outputs":[],"stateMutability":"nonpayable"},{"type":"function","name":"withdraw","inputs":[],"outputs":[],"stateMutability":"nonpayable"},{"type":"event","name":"Approval","inputs":[{"name":"owner","type":"address","indexed":true,"internalType":"address"},{"name":"approved","type":"address","indexed":true,"internalType":"address"},{"name":"tokenId","type":"uint256","indexed":true,"internalType":"uint256"}],"anonymous":false},{"type":"event","name":"ApprovalForAll","inputs":[{"name":"owner","type":"address","indexed":true,"internalType":"address"},{"name":"operator","type":"address","indexed":true,"internalType":"address"},{"name":"approved","type":"bool","indexed":false,"internalType":"bool"}],"anonymous":false},{"type":"event","name":"Minted","inputs":[{"name":"to","type":"address","indexed":true,"internalType":"address"},{"name":"tokenId","type":"uint256","indexed":true,"internalType":"uint256"}],"anonymous":false},{"type":"event","name":"OwnershipTransferred","inputs":[{"name":"previousOwner","type":"address","indexed":true,"internalType":"address"},{"name":"newOwner","type":"address","indexed":true,"internalType":"address"}],"anonymous":false},{"type":"event","name":"Paused","inputs":[{"name":"account","type":"address","indexed":false,"internalType":"address"}],"anonymous":false},{"type":"event","name":"Transfer","inputs":[{"name":"from","type":"address","indexed":true,"internalType":"address"},{"name":"to","type":"address","indexed":true,"internalType":"address"},{"name":"tokenId","type":"uint256","indexed":true,"internalType":"uint256"}],"anonymous":false},{"type":"event","name":"Unpaused","inputs":[{"name":"account","type":"address","indexed":false,"internalType":"address"}],"anonymous":false},{"type":"error","name":"ERC721EnumerableForbiddenBatchMint","inputs":[]},{"type":"error","name":"ERC721IncorrectOwner","inputs":[{"name":"sender","type":"address","internalType":"address"},{"name":"tokenId","type":"uint256","internalType":"uint256"},{"name":"owner","type":"address","internalType":"address"}]},{"type":"error","name":"ERC721InsufficientApproval","inputs":[{"name":"operator","type":"address","internalType":"address"},{"name":"tokenId","type":"uint256","internalType":"uint256"}]},{"type":"error","name":"ERC721InvalidApprover","inputs":[{"name":"approver","type":"address","internalType":"address"}]},{"type":"error","name":"ERC721InvalidOperator","inputs":[{"name":"operator","type":"address","internalType":"address"}]},{"type":"error","name":"ERC721InvalidOwner","inputs":[{"name":"owner","type":"address","internalType":"address"}]},{"type":"error","name":"ERC721InvalidReceiver","inputs":[{"name":"receiver","type":"address","internalType":"address"}]},{"type":"error","name":"ERC721InvalidSender","inputs":[{"name":"sender","type":"address","internalType":"address"}]},{"type":"error","name":"ERC721NonexistentToken","inputs":[{"name":"tokenId","type":"uint256","internalType":"uint256"}]},{"type":"error","name":"ERC721OutOfBoundsIndex","inputs":[{"name":"owner","type":"address","internalType":"address"},{"name":"index","type":"uint256","internalType":"uint256"}]},{"type":"error","name":"EnforcedPause","inputs":[]},{"type":"error","name":"ExpectedPause","inputs":[]},{"type":"error","name":"OwnableInvalidOwner","inputs":[{"name":"owner","type":"address","internalType":"address"}]},{"type":"error","name":"OwnableUnauthorizedAccount","inputs":[{"name":"account","type":"address","internalType":"address"}]},{"type":"error","name":"ReentrancyGuardReentrantCall","inputs":[]}],"bytecode":{"object":"0x604060e081523462000585576200206b90813803806200001f8162000589565b938439820160e083820312620005855782516001600160401b039081811162000585578262000050918601620005af565b916020808601518381116200058557826200006d918801620005af565b91858701516060880151906200008660808a016200061f565b9260a08a0151908782116200058557620000a960c091620000b1938d01620005af565b9a016200061f565b87519587871162000358575f54966001998a89811c991680156200057a575b888a101462000339578190601f998a811162000527575b5088908a8311600114620004ba575f92620004ae575b50505f19600383901b1c1916908a1b175f555b80519088821162000358578954908a82811c92168015620004a3575b888310146200033957818984931162000450575b508790898311600114620003ec575f92620003e0575b50505f19600383901b1c191690891b1788555b6001600160a01b03908116908115620003c957600a80546001600160a01b0319811684179091558a51929082167f8be0079c531659141344cd1fd0a4f28419497f9722a3daafe3b4186f6b6457e05f80a388600b5560ff19600c5416600c558416156200039c575081156200036c5760805260a05260c05285519283116200035857600e548481811c911680156200034d575b828210146200033957828111620002f0575b5080918311600114620002895750819293945f926200027d575b50505f19600383901b1c191690821b17600e555b600d5551611a36908162000635823960805181818161027e01526106df015260a05181818161024401526106b6015260c05181818161072c0152610ddb0152f35b015190505f8062000228565b90601f19831695600e5f52825f20925f905b888210620002d85750508385969710620002bf575b505050811b01600e556200023c565b01515f1960f88460031b161c191690555f8080620002b0565b8087859682949686015181550195019301906200029b565b600e5f52815f208380860160051c8201928487106200032f575b0160051c019085905b828110620003235750506200020e565b5f815501859062000313565b925081926200030a565b634e487b7160e01b5f52602260045260245ffd5b90607f1690620001fc565b634e487b7160e01b5f52604160045260245ffd5b875162461bcd60e51b81526004810185905260096024820152686d6178537570706c7960b81b6044820152606490fd5b62461bcd60e51b8152600481018590526008602482015267747265617375727960c01b6044820152606490fd5b8951631e4fbdf760e01b81525f6004820152602490fd5b015190505f8062000156565b908b9350601f19831691845f52895f20925f5b8b82821062000439575050841162000420575b505050811b01885562000169565b01515f1960f88460031b161c191690555f808062000412565b8385015186558f97909501949384019301620003ff565b9091508a5f52875f208980850160051c8201928a861062000499575b918d91869594930160051c01915b8281106200048a57505062000140565b5f81558594508d91016200047a565b925081926200046c565b91607f16916200012c565b015190505f80620000fd565b908c9350601f198316915f80528a5f20925f5b8c828210620005075750508411620004ee575b505050811b015f5562000110565b01515f1960f88460031b161c191690555f8080620004e0565b91929395968291958786015181550195019301908e9594939291620004cd565b9091505f8052885f208a80850160051c8201928b861062000570575b918e91869594930160051c01915b82811062000561575050620000e7565b5f81558594508e910162000551565b9250819262000543565b98607f1698620000d0565b5f80fd5b6040519190601f01601f191682016001600160401b038111838210176200035857604052565b919080601f84011215620005855782516001600160401b0381116200035857602090620005e5601f8201601f1916830162000589565b9281845282828701011162000585575f5b8181106200060b5750825f9394955001015290565b8581018301518482018401528201620005f6565b51906001600160a01b0382168203620005855756fe6080806040526004361015610012575f80fd5b5f3560e01c90816301ffc9a71461138b5750806306fdde03146112e4578063081812fc146112a8578063095ea7b3146111c757806318160ddd146111aa57806323b872dd146111935780632f745c59146111135780633ccfd60b1461109d5780633f4ba83a1461103457806342842e0e146110075780634f6ccce714610fb257806355f804b314610e2c5780635c975abb14610e0a57806361d027b314610dc65780636352211e14610d9657806370a0823114610d6b578063715018a614610d105780638456cb5914610cb75780638da5cb5b14610c8f57806395d89b4114610bc5578063a0712d6814610671578063a22cb465146105d0578063b88d4fde1461053b578063c87b56dd146102a1578063cb2c972214610267578063d5abeb011461022d578063e985e9c5146101db5763f2fde38b14610150575f80fd5b346101d75760203660031901126101d757610169611456565b6101716118a3565b6001600160a01b039081169081156101bf57600a54826001600160601b0360a01b821617600a55167f8be0079c531659141344cd1fd0a4f28419497f9722a3daafe3b4186f6b6457e05f80a3005b604051631e4fbdf760e01b81525f6004820152602490fd5b5f80fd5b346101d75760403660031901126101d7576101f4611456565b6101fc61146c565b9060018060a01b038091165f52600560205260405f2091165f52602052602060ff60405f2054166040519015158152f35b346101d7575f3660031901126101d75760206040517f00000000000000000000000000000000000000000000000000000000000000008152f35b346101d7575f3660031901126101d75760206040517f00000000000000000000000000000000000000000000000000000000000000008152f35b346101d7576020806003193601126101d757600435906102c082611869565b50604051600e545f6102d182611511565b8084528385810192600194876001821691825f146105205750506001146104c4575b6102ff925003846114d3565b5f94807a184f03e93ff9f4daa797ed6e38ed64bf6a1f01000000000000000081818110156104b6575b50506d04ee2d6d415b85acef8100000000808310156104a8575b50662386f26fc1000080831015610499575b506305f5e1008083101561048a575b506127108083101561047b575b50606482101561046b575b600a80921015610461575b9260018701938160216103b161039b886114f5565b976103a9604051998a6114d3565b8089526114f5565b878a019a90601f1901368c37870101905b61042c575b6103e98861041460258a8d8b6103f88c6040519889955180928a880190611410565b84019151809388840190611410565b0164173539b7b760d91b858201520360058101855201836114d3565b610428604051928284938452830190611431565b0390f35b5f19019083906f181899199a1a9b1b9c1cb0b131b232b360811b8282061a83530491821561045c579190826103c2565b6103c7565b9560010195610386565b959060646002910491019561037b565b60049197920491019587610370565b60089197920491019587610363565b60109197920491019587610354565b869197920491019587610342565b604098500491508780610328565b5050600e5f5283857fbb7b4a454dc3493923482f07822329ed19e8244eff582cc204f8554c3620c3fd855f915b8583106105075750506102ff93508201016102f3565b80919294505483858a01015201910186908587936104f1565b60ff191686526102ff94151560051b84010191506102f39050565b346101d75760803660031901126101d757610554611456565b61055c61146c565b906044356064359267ffffffffffffffff84116101d757366023850112156101d75783600401359261058d846114f5565b9361059b60405195866114d3565b80855236602482880101116101d7576020815f9260246105ce990183890137860101526105c9838383611549565b6118ed565b005b346101d75760403660031901126101d7576105e9611456565b602435908115158092036101d7576001600160a01b031690811561065857335f52600560205260405f20825f5260205260405f2060ff1981541660ff83161790556040519081527f17307eab39ab6107e8899845ad3d59bd9653f200f220920489ca2b5937696c3160203392a3005b604051630b61174360e31b815260048101839052602490fd5b60203660031901126101d7576002600b5414610bb3576002600b556106946118cf565b600435151580610ba6575b15610b7b57600880546004358101809111610a11577f000000000000000000000000000000000000000000000000000000000000000010610b4b576004357f0000000000000000000000000000000000000000000000000000000000000000818102918115918304141715610a11573403610b1c575f3315908115915b600435821061079b575f808080347f00000000000000000000000000000000000000000000000000000000000000006001600160a01b03165af161075e6117bb565b501561076b576001600b55005b60405162461bcd60e51b8152602060048201526008602482015267747265617375727960c01b6044820152606490fd5b600d918254915f19808414610a11576001948585019055604051916107bf836114b7565b5f8352610b04575f848152600260205260409020546001600160a01b031694851580159291908884610ad0575b610ab9575b865f52600260205260405f20336001600160601b0360a01b8254161790558633897fddf252ad1be2c89b69c2b068fc378daa952ba7f163c4a11628f55a4df523b3ef5f80a415610a39578854865f5260096020528060405f2055600160401b811015610a255761086981610881938993018c556117ea565b90919082549060031b91821b915f19901b1916179055565b5f9533036109d3575b506109bb57333b6108c6575b50600191337f30385c845b448a36257a6a1716e6ad2e1bc2cbe333cde1e69fe849ad6511adfe5f80a3019061071c565b60206109009160405180938192630a85bd0160e11b83523360048401525f6024840152876044840152608060648401526084830190611431565b03815f335af15f9181610976575b506109405761091b6117bb565b8051908161093b57604051633250574960e11b8152336004820152602490fd5b602001fd5b6001600160e01b03191663757a42ff60e11b0161095e576001610896565b604051633250574960e11b8152336004820152602490fd5b9091506020813d6020116109b3575b81610992602093836114d3565b810103126101d757516001600160e01b0319811681036101d757908761090e565b3d9150610985565b6040516339e3563760e11b81525f6004820152602490fd5b6109dc33611833565b908101908111610a1157335f52600660205260405f20815f526020528460405f2055845f52600760205260405f20558761088a565b634e487b7160e01b5f52601160045260245ffd5b634e487b7160e01b5f52604160045260245ffd5b5033861461088157610a4a86611833565b855f5260078060205260405f205490828203610a89575b5050855f525f6040812055865f52600660205260405f20905f526020525f6040812055610881565b5f898152600660209081526040808320868452825280832054858452818420819055835292905220558980610a61565b335f52600360205260405f208281540190556107f1565b505f87815260046020526040902080546001600160a01b0319169055875f5260036020528860405f208481540190556107ec565b604051633250574960e11b81525f6004820152602490fd5b60405162461bcd60e51b81526020600482015260076024820152661c185e5b595b9d60ca1b6044820152606490fd5b60405162461bcd60e51b81526020600482015260086024820152671cdbdb19081bdd5d60c21b6044820152606490fd5b60405162461bcd60e51b815260206004820152600360248201526271747960e81b6044820152606490fd5b506014600435111561069f565b604051633ee5aeb560e01b8152600490fd5b346101d7575f3660031901126101d7576040515f60018260015492610be984611511565b92838352602094856001821691825f14610c6f575050600114610c14575b50610414925003836114d3565b84915060015f527fb10e2d527612073b26eecdfd717e6a320cf44b4afac2b0732d9fcbe2b7fa0cf6905f915b858310610c57575050610414935082010185610c07565b80548389018501528794508693909201918101610c40565b60ff19168582015261041495151560051b8501019250879150610c079050565b346101d7575f3660031901126101d757600a546040516001600160a01b039091168152602090f35b346101d7575f3660031901126101d757610ccf6118a3565b610cd76118cf565b600160ff19600c541617600c557f62e78cea01bee320cd4e420270b5ea74000d11b0c9f74754ebdbfc544b05a2586020604051338152a1005b346101d7575f3660031901126101d757610d286118a3565b600a80546001600160a01b031981169091555f906001600160a01b03167f8be0079c531659141344cd1fd0a4f28419497f9722a3daafe3b4186f6b6457e08280a3005b346101d75760203660031901126101d7576020610d8e610d89611456565b611833565b604051908152f35b346101d75760203660031901126101d7576020610db4600435611869565b6040516001600160a01b039091168152f35b346101d7575f3660031901126101d7576040517f00000000000000000000000000000000000000000000000000000000000000006001600160a01b03168152602090f35b346101d7575f3660031901126101d757602060ff600c54166040519015158152f35b346101d7576020806003193601126101d75767ffffffffffffffff6004358181116101d757366023820112156101d75780600401359182116101d75760249036602484830101116101d757610e7f6118a3565b610e8a600e54611511565b601f8111610f53575b505f91601f8411600114610ed257508293505f92610ec4575b50505f19600383901b1c191660019190911b17600e55005b602492500101358280610eac565b91601f1984167fbb7b4a454dc3493923482f07822329ed19e8244eff582cc204f8554c3620c3fd935f905b828210610f38575050600195508411610f1c575b505050811b01600e55005b01602401355f19600384901b60f8161c19169055828080610f11565b90929487600181928489890101358155019601930190610efd565b7fbb7b4a454dc3493923482f07822329ed19e8244eff582cc204f8554c3620c3fd601f850160051c81019160208610610fa8575b601f0160051c01905b818110610f9d5750610e93565b5f8155600101610f90565b9091508190610f87565b346101d75760203660031901126101d757600435600854811015610fe957610fdb6020916117ea565b90546040519160031b1c8152f35b6044906040519063295f44f760e21b82525f60048301526024820152fd5b346101d7576105ce61101836611482565b9060405192611026846114b7565b5f84526105c9838383611549565b346101d7575f3660031901126101d75761104c6118a3565b600c5460ff81161561108b5760ff1916600c557f5db9ee0a495bf2e6ff9c91a7834c1ba4fdd244a5e8aa4e537bd38aeae4b073aa6020604051338152a1005b604051638dfc202b60e01b8152600490fd5b346101d7575f3660031901126101d7576110b56118a3565b47806110bd57005b600a545f918291829182916001600160a01b03165af16110db6117bb565b50156110e357005b60405162461bcd60e51b8152602060048201526008602482015267776974686472617760c01b6044820152606490fd5b346101d75760403660031901126101d75761112c611456565b6024359061113981611833565b8210156111685760018060a01b03165f52600660205260405f20905f52602052602060405f2054604051908152f35b60405163295f44f760e21b81526001600160a01b039190911660048201526024810191909152604490fd5b346101d7576105ce6111a436611482565b91611549565b346101d7575f3660031901126101d7576020600854604051908152f35b346101d75760403660031901126101d7576111e0611456565b6024356111ec81611869565b33151580611295575b8061126c575b611254576001600160a01b039283169282918491167f8c5be1e5ebec7d5bd14f71427d1e84f3dd0314c0f7b2291e5b200ac8c7c3b9255f80a45f90815260046020526040902080546001600160a01b0319169091179055005b60405163a9fbf51f60e01b8152336004820152602490fd5b5060018060a01b0381165f52600560205260405f20335f5260205260ff60405f205416156111fb565b506001600160a01b0381163314156111f5565b346101d75760203660031901126101d7576004356112c581611869565b505f526004602052602060018060a01b0360405f205416604051908152f35b346101d7575f3660031901126101d7576040515f8054908261130583611511565b91828252602093600190856001821691825f14610c6f5750506001146113325750610414925003836114d3565b5f808052859250907f290decd9548b62a8d60345a988386fc84ba6bc95484008f6362f93160ef3e5635b858310611373575050610414935082010185610c07565b8054838901850152879450869390920191810161135c565b346101d75760203660031901126101d7576004359063ffffffff60e01b82168092036101d75760209163780e9d6360e01b81149081156113cd575b5015158152f35b6380ac58cd60e01b8114915081156113ff575b81156113ee575b50836113c6565b6301ffc9a760e01b149050836113e7565b635b5e139f60e01b811491506113e0565b5f5b8381106114215750505f910152565b8181015183820152602001611412565b9060209161144a81518092818552858086019101611410565b601f01601f1916010190565b600435906001600160a01b03821682036101d757565b602435906001600160a01b03821682036101d757565b60609060031901126101d7576001600160a01b039060043582811681036101d7579160243590811681036101d7579060443590565b6020810190811067ffffffffffffffff821117610a2557604052565b90601f8019910116810190811067ffffffffffffffff821117610a2557604052565b67ffffffffffffffff8111610a2557601f01601f191660200190565b90600182811c9216801561153f575b602083101461152b57565b634e487b7160e01b5f52602260045260245ffd5b91607f1691611520565b6001600160a01b0382811693918415610b0457825f5260206002815260409583875f205416953315158061172d575b50861580156116fc575b825f5260038452885f2060018154019055865f5260028452885f20836001600160601b0360a01b8254161790558683897fddf252ad1be2c89b69c2b068fc378daa952ba7f163c4a11628f55a4df523b3ef5f80a41561168057600854865f526009845280895f2055600160401b811015610a25578661086982600161160a94016008556117ea565b818703611645575b50505016928383036116245750505050565b6064945051926364283d7b60e01b8452600484015260248301526044820152fd5b61164e90611833565b5f19810192908311610a11576007915f5260068152875f20835f52815285885f2055855f5252855f20555f8080611612565b86821461160a5761169087611833565b865f5260078452885f20548181036116c5575b50865f525f89812055875f5260068452885f20905f5283525f8881205561160a565b885f5260068552895f20825f528552895f2054895f52600686528a5f20825f528652808b5f20555f5260078552895f20555f6116a3565b5f87815260046020526040812080546001600160a01b03191690558881526003855289902080545f19019055611582565b8061177a575b1561173e575f611578565b87868861175b576024915190637e27328960e01b82526004820152fd5b905163177e802f60e01b81523360048201526024810191909152604490fd5b50338714801561179f575b806117335750855f52600483523385895f20541614611733565b50865f5260058352875f20335f52835260ff885f205416611785565b3d156117e5573d906117cc826114f5565b916117da60405193846114d3565b82523d5f602084013e565b606090565b60085481101561181f5760085f527ff3f7a9fe364faab93b216da50a3214154f22a0a2b415b23a84c8169e8b636ee301905f90565b634e487b7160e01b5f52603260045260245ffd5b6001600160a01b03168015611851575f52600360205260405f205490565b6040516322718ad960e21b81525f6004820152602490fd5b5f818152600260205260409020546001600160a01b031690811561188b575090565b60249060405190637e27328960e01b82526004820152fd5b600a546001600160a01b031633036118b757565b60405163118cdaa760e01b8152336004820152602490fd5b60ff600c54166118db57565b60405163d93c066560e01b8152600490fd5b91929092833b6118fe575b50505050565b60209060018060a01b03809516946119456040519485938493630a85bd0160e11b988986523360048701521660248501526044840152608060648401526084830190611431565b03815f875af15f91816119bb575b5061198a57826119616117bb565b805191908261198357604051633250574960e11b815260048101839052602490fd5b9050602001fd5b6001600160e01b031916036119a357505f8080806118f8565b60249060405190633250574960e11b82526004820152fd5b9091506020813d6020116119f8575b816119d7602093836114d3565b810103126101d757516001600160e01b0319811681036101d757905f611953565b3d91506119ca56fea2646970667358221220866b1ee21b8cbb518f02d1d29f16e93909865ce8acb4059c61f2cf8cb9ab462564736f6c63430008180033","linkReferences":{}},"methodIdentifiers":{"approve(address,uint256)":"095ea7b3","balanceOf(address)":"70a08231","getApproved(uint256)":"081812fc","isApprovedForAll(address,address)":"e985e9c5","maxSupply()":"d5abeb01","mint(uint256)":"a0712d68","mintPriceWei()":"cb2c9722","name()":"06fdde03","owner()":"8da5cb5b","ownerOf(uint256)":"6352211e","pause()":"8456cb59","paused()":"5c975abb","renounceOwnership()":"715018a6","safeTransferFrom(address,address,uint256)":"42842e0e","safeTransferFrom(address,address,uint256,bytes)":"b88d4fde","setApprovalForAll(address,bool)":"a22cb465","setBaseURI(string)":"55f804b3","supportsInterface(bytes4)":"01ffc9a7","symbol()":"95d89b41","tokenByIndex(uint256)":"4f6ccce7","tokenOfOwnerByIndex(address,uint256)":"2f745c59","tokenURI(uint256)":"c87b56dd","totalSupply()":"18160ddd","transferFrom(address,address,uint256)":"23b872dd","transferOwnership(address)":"f2fde38b","treasury()":"61d027b3","unpause()":"3f4ba83a","withdraw()":"3ccfd60b"},"id":43}