{"abi":[{"type":"constructor","inputs":[{"name":"initialOwner","type":"address","internalType":"address"},{"name":"token_","type":"address","internalType":"address"},{"name":"treasury_","type":"address","internalType":"address"},{"name":"merkleRoot_","type":"bytes32","internalType":"bytes32"},{"name":"claimFeeWei_","type":"uint256","internalType":"uint256"},{"name":"endsAt_","type":"uint256","internalType":"uint256"}],"stateMutability":"nonpayable"},{"type":"function","name":"claim","inputs":[{"name":"amount","type":"uint256","internalType":"uint256"},{"name":"proof","type":"bytes32[]","internalType":"bytes32[]"}],"outputs":[],"stateMutability":"payable"},{"type":"function","name":"claimFeeWei","inputs":[],"outputs":[{"name":"","type":"uint256","internalType":"uint256"}],"stateMutability":"view"},{"type":"function","name":"claimed","inputs":[{"name":"","type":"address","internalType":"address"}],"outputs":[{"name":"","type":"bool","internalType":"bool"}],"stateMutability":"view"},{"type":"function","name":"endsAt","inputs":[],"outputs":[{"name":"","type":"uint256","internalType":"uint256"}],"stateMutability":"view"},{"type":"function","name":"merkleRoot","inputs":[],"outputs":[{"name":"","type":"bytes32","internalType":"bytes32"}],"stateMutability":"view"},{"type":"function","name":"owner","inputs":[],"outputs":[{"name":"","type":"address","internalType":"address"}],"stateMutability":"view"},{"type":"function","name":"pause","inputs":[],"outputs":[],"stateMutability":"nonpayable"},{"type":"function","name":"paused","inputs":[],"outputs":[{"name":"","type":"bool","internalType":"bool"}],"stateMutability":"view"},{"type":"function","name":"renounceOwnership","inputs":[],"outputs":[],"stateMutability":"nonpayable"},{"type":"function","name":"setClaimFeeWei","inputs":[{"name":"v","type":"uint256","internalType":"uint256"}],"outputs":[],"stateMutability":"nonpayable"},{"type":"function","name":"setEndsAt","inputs":[{"name":"t","type":"uint256","internalType":"uint256"}],"outputs":[],"stateMutability":"nonpayable"},{"type":"function","name":"setMerkleRoot","inputs":[{"name":"newRoot","type":"bytes32","internalType":"bytes32"}],"outputs":[],"stateMutability":"nonpayable"},{"type":"function","name":"token","inputs":[],"outputs":[{"name":"","type":"address","internalType":"contract IBCDGenesisMint"}],"stateMutability":"view"},{"type":"function","name":"transferOwnership","inputs":[{"name":"newOwner","type":"address","internalType":"address"}],"outputs":[],"stateMutability":"nonpayable"},{"type":"function","name":"treasury","inputs":[],"outputs":[{"name":"","type":"address","internalType":"address"}],"stateMutability":"view"},{"type":"function","name":"unpause","inputs":[],"outputs":[],"stateMutability":"nonpayable"},{"type":"event","name":"ClaimFeeUpdated","inputs":[{"name":"wei_","type":"uint256","indexed":false,"internalType":"uint256"}],"anonymous":false},{"type":"event","name":"EndsAtUpdated","inputs":[{"name":"endsAt_","type":"uint256","indexed":false,"internalType":"uint256"}],"anonymous":false},{"type":"event","name":"GenesisClaimed","inputs":[{"name":"account","type":"address","indexed":true,"internalType":"address"},{"name":"amount","type":"uint256","indexed":false,"internalType":"uint256"}],"anonymous":false},{"type":"event","name":"MerkleRootUpdated","inputs":[{"name":"root","type":"bytes32","indexed":true,"internalType":"bytes32"}],"anonymous":false},{"type":"event","name":"OwnershipTransferred","inputs":[{"name":"previousOwner","type":"address","indexed":true,"internalType":"address"},{"name":"newOwner","type":"address","indexed":true,"internalType":"address"}],"anonymous":false},{"type":"event","name":"Paused","inputs":[{"name":"account","type":"address","indexed":false,"internalType":"address"}],"anonymous":false},{"type":"event","name":"Unpaused","inputs":[{"name":"account","type":"address","indexed":false,"internalType":"address"}],"anonymous":false},{"type":"error","name":"EnforcedPause","inputs":[]},{"type":"error","name":"ExpectedPause","inputs":[]},{"type":"error","name":"OwnableInvalidOwner","inputs":[{"name":"owner","type":"address","internalType":"address"}]},{"type":"error","name":"OwnableUnauthorizedAccount","inputs":[{"name":"account","type":"address","internalType":"address"}]},{"type":"error","name":"ReentrancyGuardReentrantCall","inputs":[]}],"bytecode":{"object":"0x60c03461018557601f610b2f38819003918201601f191683019291906001600160401b03841183851017610189578160c092849260409687528339810103126101855761004b8161019d565b906100586020820161019d565b61006384830161019d565b6060830151608084015160a0909401519490926001600160a01b039182169190821561016e5781905f5493895194818482167f8be0079c531659141344cd1fd0a4f28419497f9722a3daafe3b4186f6b6457e05f80a36001600160a81b031916175f55600180551691821561014457508216156101155760805260a0526002556003556004555161097d90816101b2823960805181818160e50152610606015260a0518181816103eb01526105a90152f35b855162461bcd60e51b8152602060048201526008602482015267747265617375727960c01b6044820152606490fd5b62461bcd60e51b81526020600482015260056024820152643a37b5b2b760d91b6044820152606490fd5b8751631e4fbdf760e01b81525f6004820152602490fd5b5f80fd5b634e487b7160e01b5f52604160045260245ffd5b51906001600160a01b03821682036101855756fe6080604081815260049182361015610015575f80fd5b5f925f3560e01c9182630a09284a146108ae575081632eb4a7ab146108905781632f52ebb7146104ad5781633f4ba83a1461043f5781635c975abb1461041a57816361d027b3146103d65781636e50eb3f14610388578163715018a61461032c5781637cb64759146102e55781638456cb59146102865781638da5cb5b1461025e5781639596fd4d1461023f578163c41c8c22146101f1578163c884ef83146101b2578163f2fde38b14610118575063fc0c546a146100d2575f80fd5b34610114578160031936011261011457517f00000000000000000000000000000000000000000000000000000000000000006001600160a01b03168152602090f35b5080fd5b919050346101ae5760203660031901126101ae576001600160a01b038235818116939192908490036101aa5761014c61091c565b83156101945750505f54826bffffffffffffffffffffffff60a01b8216175f55167f8be0079c531659141344cd1fd0a4f28419497f9722a3daafe3b4186f6b6457e05f80a380f35b51631e4fbdf760e01b8152908101849052602490fd5b8480fd5b8280fd5b9050346101ae5760203660031901126101ae57356001600160a01b038116908190036101ae57818360ff92602095526005855220541690519015158152f35b9050346101ae5760203660031901126101ae577f64374f1a975abb9bc8e8857d704b9ead41989ff599d90c1e8f7d34bc2ebea92a91602091359061023361091c565b8160035551908152a180f35b5050346101145781600319360112610114576020906003549051908152f35b505034610114578160031936011261011457905490516001600160a01b039091168152602090f35b50503461011457816003193601126101145760207f62e78cea01bee320cd4e420270b5ea74000d11b0c9f74754ebdbfc544b05a258916102c461091c565b6102cc6108fc565b835460ff60a01b1916600160a01b17845551338152a180f35b839034610114576020366003190112610114573561030161091c565b806002557f90004c04698bc3322499a575ed3752dd4abf33e0a7294c06a787a0fe01bea9418280a280f35b833461038557806003193601126103855761034561091c565b5f80546001600160a01b0319811682556001600160a01b03167f8be0079c531659141344cd1fd0a4f28419497f9722a3daafe3b4186f6b6457e08280a380f35b80fd5b919050346101ae5760203660031901126101ae57816020917f86a33d42743f7f729b6bfc7a27e2f14b481ebb22d72069eb5e4548309df53cfe933580926103cd61091c565b5551908152a180f35b505034610114578160031936011261011457517f00000000000000000000000000000000000000000000000000000000000000006001600160a01b03168152602090f35b50503461011457816003193601126101145760ff6020925460a01c1690519015158152f35b9050346101ae57826003193601126101ae5761045961091c565b82549060ff8260a01c161561049f575060ff60a01b19168255513381527f5db9ee0a495bf2e6ff9c91a7834c1ba4fdd244a5e8aa4e537bd38aeae4b073aa90602090a180f35b8251638dfc202b60e01b8152fd5b9050816003193601126106f85780359060249283359367ffffffffffffffff908186116106f857366023870112156106f85785840135938285116106f8576005963683878a1b830101116106f857600197600289541461088057600289556105136108fc565b82548061084b575b50335f5260209681885260ff875f20541661081f5788156107f45786513389820190815260208082018c90528282039081018352601f199593929061056390604001826108c6565b5190209160025492915f915b8183106107bf575050500361079757335f908152908752859020805460ff191689179055600354801561076657340361073f575f808080347f00000000000000000000000000000000000000000000000000000000000000006001600160a01b03165af1903d15610739573d858111610727576105f588885193601f84011601836108c6565b81525f873d92013e5b156106fc575b7f00000000000000000000000000000000000000000000000000000000000000006001600160a01b031692833b156106f857845163176e25e960e01b8152338382019081526020810189905290945f9186919082908490829060400103925af180156106ee576106a2575b50505050907f7594eb93cd7fe696f504f501077ce732e752d13f0c3bdae478d2675d4eba9eea91519283523392a2805580f35b90919280949850116106dd57505084525f937f7594eb93cd7fe696f504f501077ce732e752d13f0c3bdae478d2675d4eba9eea85808061066f565b604190634e487b7160e01b5f52525ffd5b85513d5f823e3d90fd5b5f80fd5b60086064928686519362461bcd60e51b855284015282015267747265617375727960c01b6044820152fd5b84604185634e487b7160e01b5f52525ffd5b506105fe565b5060036064928686519362461bcd60e51b85528401528201526266656560e81b6044820152fd5b505034156106045760066064928686519362461bcd60e51b8552840152820152656e6f2066656560d01b6044820152fd5b90506064928686519362461bcd60e51b855284015282015264383937b7b360d91b6044820152fd5b9091928884871b83010135908181105f146107e6575f528b528c8a5f205b9301919061056f565b905f528b528c8a5f206107dd565b865162461bcd60e51b815280850189905260068187015265185b5bdd5b9d60d21b6044820152606490fd5b865162461bcd60e51b81528085018990526007818701526618db185a5b595960ca1b6044820152606490fd5b4211610857575f61051b565b9050606492602086519362461bcd60e51b855284015282015264195b99195960da1b6044820152fd5b8551633ee5aeb560e01b81528390fd5b82346106f8575f3660031901126106f8576020906002549051908152f35b346106f8575f3660031901126106f857602091548152f35b90601f8019910116810190811067ffffffffffffffff8211176108e857604052565b634e487b7160e01b5f52604160045260245ffd5b60ff5f5460a01c1661090a57565b60405163d93c066560e01b8152600490fd5b5f546001600160a01b0316330361092f57565b60405163118cdaa760e01b8152336004820152602490fdfea2646970667358221220a6f20f4a9f3b8c527fb6dad0ba3d7e25a93a04cf7ac9b3c2962c02acb838d9fc64736f6c63430008180033","linkReferences":{}},"methodIdentifiers":{"claim(uint256,bytes32[])":"2f52ebb7","claimFeeWei()":"9596fd4d","claimed(address)":"c884ef83","endsAt()":"0a09284a","merkleRoot()":"2eb4a7ab","owner()":"8da5cb5b","pause()":"8456cb59","paused()":"5c975abb","renounceOwnership()":"715018a6","setClaimFeeWei(uint256)":"c41c8c22","setEndsAt(uint256)":"6e50eb3f","setMerkleRoot(bytes32)":"7cb64759","token()":"fc0c546a","transferOwnership(address)":"f2fde38b","treasury()":"61d027b3","unpause()":"3f4ba83a"},"id":45}