{"abi":[{"type":"constructor","inputs":[{"name":"name_","type":"string","internalType":"string"},{"name":"symbol_","type":"string","internalType":"string"},{"name":"mintPriceWei_","type":"uint256","internalType":"uint256"},{"name":"maxSupply_","type":"uint256","internalType":"uint256"},{"name":"treasury_","type":"address","internalType":"address"},{"name":"baseURI_","type":"string","internalType":"string"},{"name":"initialOwner","type":"address","internalType":"address"}],"stateMutability":"nonpayable"},{"type":"function","name":"ENTROPY_DELAY_BLOCKS","inputs":[],"outputs":[{"name":"","type":"uint256","internalType":"uint256"}],"stateMutability":"view"},{"type":"function","name":"approve","inputs":[{"name":"to","type":"address","internalType":"address"},{"name":"tokenId","type":"uint256","internalType":"uint256"}],"outputs":[],"stateMutability":"nonpayable"},{"type":"function","name":"balanceOf","inputs":[{"name":"owner","type":"address","internalType":"address"}],"outputs":[{"name":"","type":"uint256","internalType":"uint256"}],"stateMutability":"view"},{"type":"function","name":"close","inputs":[],"outputs":[],"stateMutability":"nonpayable"},{"type":"function","name":"commitDraw","inputs":[{"name":"commitment","type":"bytes32","internalType":"bytes32"}],"outputs":[],"stateMutability":"nonpayable"},{"type":"function","name":"drawCommitment","inputs":[],"outputs":[{"name":"","type":"bytes32","internalType":"bytes32"}],"stateMutability":"view"},{"type":"function","name":"entropyBlock","inputs":[],"outputs":[{"name":"","type":"uint256","internalType":"uint256"}],"stateMutability":"view"},{"type":"function","name":"getApproved","inputs":[{"name":"tokenId","type":"uint256","internalType":"uint256"}],"outputs":[{"name":"","type":"address","internalType":"address"}],"stateMutability":"view"},{"type":"function","name":"isApprovedForAll","inputs":[{"name":"owner","type":"address","internalType":"address"},{"name":"operator","type":"address","internalType":"address"}],"outputs":[{"name":"","type":"bool","internalType":"bool"}],"stateMutability":"view"},{"type":"function","name":"maxSupply","inputs":[],"outputs":[{"name":"","type":"uint256","internalType":"uint256"}],"stateMutability":"view"},{"type":"function","name":"mint","inputs":[{"name":"quantity","type":"uint256","internalType":"uint256"}],"outputs":[],"stateMutability":"payable"},{"type":"function","name":"mintPriceWei","inputs":[],"outputs":[{"name":"","type":"uint256","internalType":"uint256"}],"stateMutability":"view"},{"type":"function","name":"name","inputs":[],"outputs":[{"name":"","type":"string","internalType":"string"}],"stateMutability":"view"},{"type":"function","name":"owner","inputs":[],"outputs":[{"name":"","type":"address","internalType":"address"}],"stateMutability":"view"},{"type":"function","name":"ownerOf","inputs":[{"name":"tokenId","type":"uint256","internalType":"uint256"}],"outputs":[{"name":"","type":"address","internalType":"address"}],"stateMutability":"view"},{"type":"function","name":"phase","inputs":[],"outputs":[{"name":"","type":"uint8","internalType":"enum RaffleTicketCampaign.Phase"}],"stateMutability":"view"},{"type":"function","name":"renounceOwnership","inputs":[],"outputs":[],"stateMutability":"nonpayable"},{"type":"function","name":"revealDraw","inputs":[{"name":"secret","type":"bytes32","internalType":"bytes32"}],"outputs":[],"stateMutability":"nonpayable"},{"type":"function","name":"safeTransferFrom","inputs":[{"name":"from","type":"address","internalType":"address"},{"name":"to","type":"address","internalType":"address"},{"name":"tokenId","type":"uint256","internalType":"uint256"}],"outputs":[],"stateMutability":"nonpayable"},{"type":"function","name":"safeTransferFrom","inputs":[{"name":"from","type":"address","internalType":"address"},{"name":"to","type":"address","internalType":"address"},{"name":"tokenId","type":"uint256","internalType":"uint256"},{"name":"data","type":"bytes","internalType":"bytes"}],"outputs":[],"stateMutability":"nonpayable"},{"type":"function","name":"setApprovalForAll","inputs":[{"name":"operator","type":"address","internalType":"address"},{"name":"approved","type":"bool","internalType":"bool"}],"outputs":[],"stateMutability":"nonpayable"},{"type":"function","name":"supportsInterface","inputs":[{"name":"interfaceId","type":"bytes4","internalType":"bytes4"}],"outputs":[{"name":"","type":"bool","internalType":"bool"}],"stateMutability":"view"},{"type":"function","name":"symbol","inputs":[],"outputs":[{"name":"","type":"string","internalType":"string"}],"stateMutability":"view"},{"type":"function","name":"tokenByIndex","inputs":[{"name":"index","type":"uint256","internalType":"uint256"}],"outputs":[{"name":"","type":"uint256","internalType":"uint256"}],"stateMutability":"view"},{"type":"function","name":"tokenOfOwnerByIndex","inputs":[{"name":"owner","type":"address","internalType":"address"},{"name":"index","type":"uint256","internalType":"uint256"}],"outputs":[{"name":"","type":"uint256","internalType":"uint256"}],"stateMutability":"view"},{"type":"function","name":"tokenURI","inputs":[{"name":"tokenId","type":"uint256","internalType":"uint256"}],"outputs":[{"name":"","type":"string","internalType":"string"}],"stateMutability":"view"},{"type":"function","name":"totalSupply","inputs":[],"outputs":[{"name":"","type":"uint256","internalType":"uint256"}],"stateMutability":"view"},{"type":"function","name":"transferFrom","inputs":[{"name":"from","type":"address","internalType":"address"},{"name":"to","type":"address","internalType":"address"},{"name":"tokenId","type":"uint256","internalType":"uint256"}],"outputs":[],"stateMutability":"nonpayable"},{"type":"function","name":"transferOwnership","inputs":[{"name":"newOwner","type":"address","internalType":"address"}],"outputs":[],"stateMutability":"nonpayable"},{"type":"function","name":"treasury","inputs":[],"outputs":[{"name":"","type":"address","internalType":"address"}],"stateMutability":"view"},{"type":"function","name":"winningTokenId","inputs":[],"outputs":[{"name":"","type":"uint256","internalType":"uint256"}],"stateMutability":"view"},{"type":"event","name":"Approval","inputs":[{"name":"owner","type":"address","indexed":true,"internalType":"address"},{"name":"approved","type":"address","indexed":true,"internalType":"address"},{"name":"tokenId","type":"uint256","indexed":true,"internalType":"uint256"}],"anonymous":false},{"type":"event","name":"ApprovalForAll","inputs":[{"name":"owner","type":"address","indexed":true,"internalType":"address"},{"name":"operator","type":"address","indexed":true,"internalType":"address"},{"name":"approved","type":"bool","indexed":false,"internalType":"bool"}],"anonymous":false},{"type":"event","name":"DrawCommitted","inputs":[{"name":"commitment","type":"bytes32","indexed":false,"internalType":"bytes32"}],"anonymous":false},{"type":"event","name":"EntropyScheduled","inputs":[{"name":"entropyBlock","type":"uint256","indexed":false,"internalType":"uint256"}],"anonymous":false},{"type":"event","name":"Minted","inputs":[{"name":"to","type":"address","indexed":true,"internalType":"address"},{"name":"tokenId","type":"uint256","indexed":true,"internalType":"uint256"}],"anonymous":false},{"type":"event","name":"OwnershipTransferred","inputs":[{"name":"previousOwner","type":"address","indexed":true,"internalType":"address"},{"name":"newOwner","type":"address","indexed":true,"internalType":"address"}],"anonymous":false},{"type":"event","name":"PhaseClosed","inputs":[{"name":"totalMinted","type":"uint256","indexed":false,"internalType":"uint256"}],"anonymous":false},{"type":"event","name":"Transfer","inputs":[{"name":"from","type":"address","indexed":true,"internalType":"address"},{"name":"to","type":"address","indexed":true,"internalType":"address"},{"name":"tokenId","type":"uint256","indexed":true,"internalType":"uint256"}],"anonymous":false},{"type":"event","name":"WinnerDrawn","inputs":[{"name":"winner","type":"address","indexed":true,"internalType":"address"},{"name":"tokenId","type":"uint256","indexed":true,"internalType":"uint256"}],"anonymous":false},{"type":"error","name":"ERC721EnumerableForbiddenBatchMint","inputs":[]},{"type":"error","name":"ERC721IncorrectOwner","inputs":[{"name":"sender","type":"address","internalType":"address"},{"name":"tokenId","type":"uint256","internalType":"uint256"},{"name":"owner","type":"address","internalType":"address"}]},{"type":"error","name":"ERC721InsufficientApproval","inputs":[{"name":"operator","type":"address","internalType":"address"},{"name":"tokenId","type":"uint256","internalType":"uint256"}]},{"type":"error","name":"ERC721InvalidApprover","inputs":[{"name":"approver","type":"address","internalType":"address"}]},{"type":"error","name":"ERC721InvalidOperator","inputs":[{"name":"operator","type":"address","internalType":"address"}]},{"type":"error","name":"ERC721InvalidOwner","inputs":[{"name":"owner","type":"address","internalType":"address"}]},{"type":"error","name":"ERC721InvalidReceiver","inputs":[{"name":"receiver","type":"address","internalType":"address"}]},{"type":"error","name":"ERC721InvalidSender","inputs":[{"name":"sender","type":"address","internalType":"address"}]},{"type":"error","name":"ERC721NonexistentToken","inputs":[{"name":"tokenId","type":"uint256","internalType":"uint256"}]},{"type":"error","name":"ERC721OutOfBoundsIndex","inputs":[{"name":"owner","type":"address","internalType":"address"},{"name":"index","type":"uint256","internalType":"uint256"}]},{"type":"error","name":"OwnableInvalidOwner","inputs":[{"name":"owner","type":"address","internalType":"address"}]},{"type":"error","name":"OwnableUnauthorizedAccount","inputs":[{"name":"account","type":"address","internalType":"address"}]},{"type":"error","name":"ReentrancyGuardReentrantCall","inputs":[]}],"bytecode":{"object":"0x604060e08152346200057b576200234990813803806200001f816200057f565b938439820160e0838203126200057b5782516001600160401b03908181116200057b578262000050918601620005a5565b916020808601518381116200057b57826200006d918801620005a5565b91858701516060880151906200008660808a0162000615565b9260a08a0151908782116200057b57620000a960c091620000b1938d01620005a5565b9a0162000615565b8751958787116200034e575f54966001998a89811c9916801562000570575b888a10146200032f578190601f998a81116200051d575b5088908a8311600114620004b0575f92620004a4575b50505f19600383901b1c1916908a1b175f555b8051908882116200034e578954908a82811c9216801562000499575b888310146200032f57818984931162000446575b508790898311600114620003e2575f92620003d6575b50505f19600383901b1c191690891b1788555b6001600160a01b03908116908115620003bf57600a80546001600160a01b0319811684179091558a51929082167f8be0079c531659141344cd1fd0a4f28419497f9722a3daafe3b4186f6b6457e05f80a388600b558416156200039257508115620003625760805260a05260c05285519283116200034e57600e548481811c9116801562000343575b828210146200032f57828111620002e6575b50809183116001146200027f5750819293945f9262000273575b50505f19600383901b1c191690821b17600e555b600d5551611d1e90816200062b823960805181818161029f01526107d9015260a05181818161026501526107b0015260c051818181610826015261112c0152f35b015190505f806200021e565b90601f19831695600e5f52825f20925f905b888210620002ce5750508385969710620002b5575b505050811b01600e5562000232565b01515f1960f88460031b161c191690555f8080620002a6565b80878596829496860151815501950193019062000291565b600e5f52815f208380860160051c82019284871062000325575b0160051c019085905b8281106200031957505062000204565b5f815501859062000309565b9250819262000300565b634e487b7160e01b5f52602260045260245ffd5b90607f1690620001f2565b634e487b7160e01b5f52604160045260245ffd5b875162461bcd60e51b81526004810185905260096024820152686d6178537570706c7960b81b6044820152606490fd5b62461bcd60e51b8152600481018590526008602482015267747265617375727960c01b6044820152606490fd5b8951631e4fbdf760e01b81525f6004820152602490fd5b015190505f8062000156565b908b9350601f19831691845f52895f20925f5b8b8282106200042f575050841162000416575b505050811b01885562000169565b01515f1960f88460031b161c191690555f808062000408565b8385015186558f97909501949384019301620003f5565b9091508a5f52875f208980850160051c8201928a86106200048f575b918d91869594930160051c01915b8281106200048057505062000140565b5f81558594508d910162000470565b9250819262000462565b91607f16916200012c565b015190505f80620000fd565b908c9350601f198316915f80528a5f20925f5b8c828210620004fd5750508411620004e4575b505050811b015f5562000110565b01515f1960f88460031b161c191690555f8080620004d6565b91929395968291958786015181550195019301908e9594939291620004c3565b9091505f8052885f208a80850160051c8201928b861062000566575b918e91869594930160051c01915b82811062000557575050620000e7565b5f81558594508e910162000547565b9250819262000539565b98607f1698620000d0565b5f80fd5b6040519190601f01601f191682016001600160401b038111838210176200034e57604052565b919080601f840112156200057b5782516001600160401b0381116200034e57602090620005db601f8201601f191683016200057f565b928184528282870101116200057b575f5b818110620006015750825f9394955001015290565b8581018301518482018401528201620005ec565b51906001600160a01b03821682036200057b5756fe6080806040526004361015610012575f80fd5b5f3560e01c90816301ffc9a71461161e5750806306fdde0314611561578063081812fc14611525578063095ea7b31461144457806318160ddd1461142757806323b872dd146114105780632f745c591461139057806342842e0e1461136357806343d726d6146112615780634f6ccce71461124357806358120a3a1461115b57806361d027b3146111175780636352211e146110e757806370a08231146110bc578063715018a6146110615780637c9820b2146110445780638da5cb5b1461101c578063910f94f114610dd557806395d89b4114610cf3578063a0712d6814610761578063a1a13dec14610744578063a22cb465146106a3578063a5cab6f714610688578063b187964a1461066b578063b1c9fe6e1461062e578063b88d4fde14610599578063c87b56dd146102c2578063cb2c972214610288578063d5abeb011461024e578063e985e9c5146101fc5763f2fde38b14610171575f80fd5b346101f85760203660031901126101f85761018a6116e9565b610192611ba9565b6001600160a01b039081169081156101e057600a54826001600160601b0360a01b821617600a55167f8be0079c531659141344cd1fd0a4f28419497f9722a3daafe3b4186f6b6457e05f80a3005b604051631e4fbdf760e01b81525f6004820152602490fd5b5f80fd5b346101f85760403660031901126101f8576102156116e9565b61021d6116ff565b9060018060a01b038091165f52600560205260405f2091165f52602052602060ff60405f2054166040519015158152f35b346101f8575f3660031901126101f85760206040517f00000000000000000000000000000000000000000000000000000000000000008152f35b346101f8575f3660031901126101f85760206040517f00000000000000000000000000000000000000000000000000000000000000008152f35b346101f8576020806003193601126101f8576004356102e081611b6f565b506040515f90600e5460019080821c82821691821561058f575b878210831461057b57818552879585870193869288908215610560575050600114610504575b61032c92500384611766565b8251156104ea575f94807a184f03e93ff9f4daa797ed6e38ed64bf6a1f01000000000000000081818110156104dc575b50506d04ee2d6d415b85acef8100000000808310156104ce575b50662386f26fc10000808310156104bf575b506305f5e100808310156104b0575b50612710808310156104a1575b506064821015610491575b600a80921015610488575b92808701938160216103e46103ce88611788565b976103dc604051998a611766565b808952611788565b878a019a90601f1901368c37870101905b610453575b505050509361043993929161042d61041e96604051978895518092888801906116a3565b840191518093868401906116a3565b01038084520182611766565b905b61044f6040519282849384528301906116c4565b0390f35b5f19019083906f181899199a1a9b1b9c1cb0b131b232b360811b8282061a835304918215610483579190826103f5565b6103fa565b958301956103ba565b95906064600291049101956103af565b600491979204910195886103a4565b60089197920491019588610397565b60109197920491019588610388565b869197920491019588610376565b60409850049150888061035c565b50505050506040516104fb8161174a565b5f81529061043b565b5050600e5f5283857fbb7b4a454dc3493923482f07822329ed19e8244eff582cc204f8554c3620c3fd855f915b85831061054757505061032c9350820101610320565b80919294505483858a0101520191018690858793610531565b60ff1916865261032c94151560051b84010191506103209050565b634e487b7160e01b5f52602260045260245ffd5b90607f16906102fa565b346101f85760803660031901126101f8576105b26116e9565b6105ba6116ff565b906044356064359267ffffffffffffffff84116101f857366023850112156101f8578360040135926105eb84611788565b936105f96040519586611766565b80855236602482880101116101f8576020815f92602461062c990183890137860101526106278383836117a4565b611bd5565b005b346101f8575f3660031901126101f85760ff600c54166040516003821015610657576020918152f35b634e487b7160e01b5f52602160045260245ffd5b346101f8575f3660031901126101f8576020600f54604051908152f35b346101f8575f3660031901126101f857602060405160058152f35b346101f85760403660031901126101f8576106bc6116e9565b602435908115158092036101f8576001600160a01b031690811561072b57335f52600560205260405f20825f5260205260405f2060ff1981541660ff83161790556040519081527f17307eab39ab6107e8899845ad3d59bd9653f200f220920489ca2b5937696c3160203392a3005b604051630b61174360e31b815260048101839052602490fd5b346101f8575f3660031901126101f8576020601054604051908152f35b60203660031901126101f8576002600b5414610ce1576002600b5560ff600c5416600381101561065757610caf57600435151580610ca2575b15610c77576008546004358101809111610b0d577f000000000000000000000000000000000000000000000000000000000000000010610c47576004357f0000000000000000000000000000000000000000000000000000000000000000818102918115918304141715610b0d573403610c18575f3315908115915b6004358210610895575f808080347f00000000000000000000000000000000000000000000000000000000000000006001600160a01b03165af1610858611b40565b5015610865576001600b55005b60405162461bcd60e51b8152602060048201526008602482015267747265617375727960c01b6044820152606490fd5b600d918254915f19808414610b0d576001948585019055604051916108b98361174a565b5f8352610c00575f848152600260205260409020546001600160a01b031694851580159291908884610bcc575b610bb5575b865f52600260205260405f20336001600160601b0360a01b8254161790558633897fddf252ad1be2c89b69c2b068fc378daa952ba7f163c4a11628f55a4df523b3ef5f80a415610b3557600854865f5260096020528060405f2055600160401b811015610b21576109658161097d93899301600855611a16565b90919082549060031b91821b915f19901b1916179055565b5f953303610acf575b50610ab757333b6109c2575b50600191337f30385c845b448a36257a6a1716e6ad2e1bc2cbe333cde1e69fe849ad6511adfe5f80a30190610816565b60206109fc9160405180938192630a85bd0160e11b83523360048401525f60248401528760448401526080606484015260848301906116c4565b03815f335af15f9181610a72575b50610a3c57610a17611b40565b80519081610a3757604051633250574960e11b8152336004820152602490fd5b602001fd5b6001600160e01b03191663757a42ff60e11b01610a5a576001610992565b604051633250574960e11b8152336004820152602490fd5b9091506020813d602011610aaf575b81610a8e60209383611766565b810103126101f857516001600160e01b0319811681036101f8579086610a0a565b3d9150610a81565b6040516339e3563760e11b81525f6004820152602490fd5b610ad833611b0a565b908101908111610b0d57335f52600660205260405f20815f526020528460405f2055845f52600760205260405f205586610986565b634e487b7160e01b5f52601160045260245ffd5b634e487b7160e01b5f52604160045260245ffd5b5033861461097d57610b4686611b0a565b855f5260078060205260405f205490828203610b85575b5050855f525f6040812055865f52600660205260405f20905f526020525f604081205561097d565b5f898152600660209081526040808320868452825280832054858452818420819055835292905220558880610b5d565b335f52600360205260405f208281540190556108eb565b505f87815260046020526040902080546001600160a01b0319169055875f5260036020528860405f208481540190556108e6565b604051633250574960e11b81525f6004820152602490fd5b60405162461bcd60e51b81526020600482015260076024820152661c185e5b595b9d60ca1b6044820152606490fd5b60405162461bcd60e51b81526020600482015260086024820152671cdbdb19081bdd5d60c21b6044820152606490fd5b60405162461bcd60e51b815260206004820152600360248201526271747960e81b6044820152606490fd5b506014600435111561079a565b60405162461bcd60e51b815260206004820152600a6024820152696e6f742061637469766560b01b6044820152606490fd5b604051633ee5aeb560e01b8152600490fd5b346101f8575f3660031901126101f8576040515f600190600154918260011c9160018416918215610dcb575b602094858510841461057b5785879486865291825f14610dab575050600114610d50575b5061043b92500383611766565b84915060015f527fb10e2d527612073b26eecdfd717e6a320cf44b4afac2b0732d9fcbe2b7fa0cf6905f915b858310610d9357505061043b935082010185610d43565b80548389018501528794508693909201918101610d7c565b60ff19168582015261043b95151560051b8501019250879150610d439050565b92607f1692610d1f565b346101f8576020806003193601126101f857600435610df2611ba9565b600c549160ff83166003811015610657576001610e0f9114611a9a565b600f54908115610fee576040519181830192848452828152604081019167ffffffffffffffff9482841086851117610b2157836040528251902003610fc6575050601154610e5e811515611ad4565b80431115610f92576101008101808211610b0d574311610f5b5740918215610f29576008549360405192830193845260408301523060601b60608301528360748301526074825260a082019082821090821117610b21576040525190208115610f1557600291610ece9106611a5f565b601081905560ff1990921617600c556001600160a01b03610eee82611b6f565b167fc7a4ac1b113d8834e9a4b3a5968fadc610a4822ede2b7418dca2aa5f20f918de5f80a3005b634e487b7160e01b5f52601260045260245ffd5b60405162461bcd60e51b815260048101839052600a6024820152696e6f20656e74726f707960b01b6044820152606490fd5b60405162461bcd60e51b815260048101839052600f60248201526e195b9d1c9bdc1e48195e1c1a5c9959608a1b6044820152606490fd5b60405162461bcd60e51b815260048101839052600c60248201526b19585c9b1e481c995d99585b60a21b6044820152606490fd5b6084651cd958dc995d60d21b9160649462461bcd60e51b855260448201526006858201520152fd5b6064906040519062461bcd60e51b8252600482015260076024820152660858dbdb5b5a5d60ca1b6044820152fd5b346101f8575f3660031901126101f857600a546040516001600160a01b039091168152602090f35b346101f8575f3660031901126101f8576020601154604051908152f35b346101f8575f3660031901126101f857611079611ba9565b600a80546001600160a01b031981169091555f906001600160a01b03167f8be0079c531659141344cd1fd0a4f28419497f9722a3daafe3b4186f6b6457e08280a3005b346101f85760203660031901126101f85760206110df6110da6116e9565b611b0a565b604051908152f35b346101f85760203660031901126101f8576020611105600435611b6f565b6040516001600160a01b039091168152f35b346101f8575f3660031901126101f8576040517f00000000000000000000000000000000000000000000000000000000000000006001600160a01b03168152602090f35b346101f85760203660031901126101f857600435611177611ba9565b60ff600c541660038110156106575760016111929114611a9a565b600f54611212576011546111a7811515611ad4565b4310156111df576020817fd30b09948e86883221365568bf4ebe42e5edf26b0bf39ebfa4cff9cb4e3446fe92600f55604051908152a1005b60405162461bcd60e51b815260206004820152600b60248201526a1b185d194818dbdb5b5a5d60aa1b6044820152606490fd5b60405162461bcd60e51b815260206004820152600960248201526818dbdb5b5a5d1d195960ba1b6044820152606490fd5b346101f85760203660031901126101f85760206110df600435611a5f565b346101f8575f3660031901126101f857611279611ba9565b600c5460ff8116600381101561065757611336576008549081156113095760019060ff191617600c556005430190814311610b0d57817f6878c275a9871209c183b41024d8d6581fe7eed93ff70618b81b67b0a08d342a602080937f6a4a94bfe07fe91ded5bf0a7373de8398f476ac0c0363afafd3f9fa55c9a31f595601155604051908152a1604051908152a1005b60405162461bcd60e51b8152602060048201526005602482015264656d70747960d81b6044820152606490fd5b60405162461bcd60e51b8152602060048201526005602482015264706861736560d81b6044820152606490fd5b346101f85761062c61137436611715565b90604051926113828461174a565b5f84526106278383836117a4565b346101f85760403660031901126101f8576113a96116e9565b602435906113b681611b0a565b8210156113e55760018060a01b03165f52600660205260405f20905f52602052602060405f2054604051908152f35b60405163295f44f760e21b81526001600160a01b039190911660048201526024810191909152604490fd5b346101f85761062c61142136611715565b916117a4565b346101f8575f3660031901126101f8576020600854604051908152f35b346101f85760403660031901126101f85761145d6116e9565b60243561146981611b6f565b33151580611512575b806114e9575b6114d1576001600160a01b039283169282918491167f8c5be1e5ebec7d5bd14f71427d1e84f3dd0314c0f7b2291e5b200ac8c7c3b9255f80a45f90815260046020526040902080546001600160a01b0319169091179055005b60405163a9fbf51f60e01b8152336004820152602490fd5b5060018060a01b0381165f52600560205260405f20335f5260205260ff60405f20541615611478565b506001600160a01b038116331415611472565b346101f85760203660031901126101f85760043561154281611b6f565b505f526004602052602060018060a01b0360405f205416604051908152f35b346101f8575f3660031901126101f8576040515f80549060018260011c9160018416918215611614575b602094858510841461057b5785879486865291825f14610dab5750506001146115bb575061043b92500383611766565b5f808052859250907f290decd9548b62a8d60345a988386fc84ba6bc95484008f6362f93160ef3e5635b8583106115fc57505061043b935082010185610d43565b805483890185015287945086939092019181016115e5565b92607f169261158b565b346101f85760203660031901126101f8576004359063ffffffff60e01b82168092036101f85760209163780e9d6360e01b8114908115611660575b5015158152f35b6380ac58cd60e01b811491508115611692575b8115611681575b5083611659565b6301ffc9a760e01b1490508361167a565b635b5e139f60e01b81149150611673565b5f5b8381106116b45750505f910152565b81810151838201526020016116a5565b906020916116dd815180928185528580860191016116a3565b601f01601f1916010190565b600435906001600160a01b03821682036101f857565b602435906001600160a01b03821682036101f857565b60609060031901126101f8576001600160a01b039060043582811681036101f8579160243590811681036101f8579060443590565b6020810190811067ffffffffffffffff821117610b2157604052565b90601f8019910116810190811067ffffffffffffffff821117610b2157604052565b67ffffffffffffffff8111610b2157601f01601f191660200190565b6001600160a01b0382811693918415610c0057825f5260206002815260409583875f2054169533151580611988575b5086158015611957575b825f5260038452885f2060018154019055865f5260028452885f20836001600160601b0360a01b8254161790558683897fddf252ad1be2c89b69c2b068fc378daa952ba7f163c4a11628f55a4df523b3ef5f80a4156118db57600854865f526009845280895f2055600160401b811015610b2157866109658260016118659401600855611a16565b8187036118a0575b505050169283830361187f5750505050565b6064945051926364283d7b60e01b8452600484015260248301526044820152fd5b6118a990611b0a565b5f19810192908311610b0d576007915f5260068152875f20835f52815285885f2055855f5252855f20555f808061186d565b868214611865576118eb87611b0a565b865f5260078452885f2054818103611920575b50865f525f89812055875f5260068452885f20905f5283525f88812055611865565b885f5260068552895f20825f528552895f2054895f52600686528a5f20825f528652808b5f20555f5260078552895f20555f6118fe565b5f87815260046020526040812080546001600160a01b03191690558881526003855289902080545f190190556117dd565b806119d5575b15611999575f6117d3565b8786886119b6576024915190637e27328960e01b82526004820152fd5b905163177e802f60e01b81523360048201526024810191909152604490fd5b5033871480156119fa575b8061198e5750855f52600483523385895f2054161461198e565b50865f5260058352875f20335f52835260ff885f2054166119e0565b600854811015611a4b5760085f527ff3f7a9fe364faab93b216da50a3214154f22a0a2b415b23a84c8169e8b636ee301905f90565b634e487b7160e01b5f52603260045260245ffd5b600854811015611a7c57611a7290611a16565b90549060031b1c90565b6044906040519063295f44f760e21b82525f60048301526024820152fd5b15611aa157565b60405162461bcd60e51b815260206004820152600b60248201526a636c6f736564206f6e6c7960a81b6044820152606490fd5b15611adb57565b60405162461bcd60e51b8152602060048201526007602482015266656e74726f707960c81b6044820152606490fd5b6001600160a01b03168015611b28575f52600360205260405f205490565b6040516322718ad960e21b81525f6004820152602490fd5b3d15611b6a573d90611b5182611788565b91611b5f6040519384611766565b82523d5f602084013e565b606090565b5f818152600260205260409020546001600160a01b0316908115611b91575090565b60249060405190637e27328960e01b82526004820152fd5b600a546001600160a01b03163303611bbd57565b60405163118cdaa760e01b8152336004820152602490fd5b91929092833b611be6575b50505050565b60209060018060a01b0380951694611c2d6040519485938493630a85bd0160e11b9889865233600487015216602485015260448401526080606484015260848301906116c4565b03815f875af15f9181611ca3575b50611c725782611c49611b40565b8051919082611c6b57604051633250574960e11b815260048101839052602490fd5b9050602001fd5b6001600160e01b03191603611c8b57505f808080611be0565b60249060405190633250574960e11b82526004820152fd5b9091506020813d602011611ce0575b81611cbf60209383611766565b810103126101f857516001600160e01b0319811681036101f857905f611c3b565b3d9150611cb256fea2646970667358221220ad8753f8b3370747f23ec7677ee6620b8cb3bb925fbd0fe9f65e0fb00bed6be164736f6c63430008180033","linkReferences":{}},"methodIdentifiers":{"ENTROPY_DELAY_BLOCKS()":"a5cab6f7","approve(address,uint256)":"095ea7b3","balanceOf(address)":"70a08231","close()":"43d726d6","commitDraw(bytes32)":"58120a3a","drawCommitment()":"b187964a","entropyBlock()":"7c9820b2","getApproved(uint256)":"081812fc","isApprovedForAll(address,address)":"e985e9c5","maxSupply()":"d5abeb01","mint(uint256)":"a0712d68","mintPriceWei()":"cb2c9722","name()":"06fdde03","owner()":"8da5cb5b","ownerOf(uint256)":"6352211e","phase()":"b1c9fe6e","renounceOwnership()":"715018a6","revealDraw(bytes32)":"910f94f1","safeTransferFrom(address,address,uint256)":"42842e0e","safeTransferFrom(address,address,uint256,bytes)":"b88d4fde","setApprovalForAll(address,bool)":"a22cb465","supportsInterface(bytes4)":"01ffc9a7","symbol()":"95d89b41","tokenByIndex(uint256)":"4f6ccce7","tokenOfOwnerByIndex(address,uint256)":"2f745c59","tokenURI(uint256)":"c87b56dd","totalSupply()":"18160ddd","transferFrom(address,address,uint256)":"23b872dd","transferOwnership(address)":"f2fde38b","treasury()":"61d027b3","winningTokenId()":"a1a13dec"},"id":44}