{"abi":[{"type":"function","name":"checkIn","inputs":[],"outputs":[],"stateMutability":"nonpayable"},{"type":"function","name":"lastCheckInDay","inputs":[{"name":"","type":"address","internalType":"address"}],"outputs":[{"name":"","type":"uint256","internalType":"uint256"}],"stateMutability":"view"},{"type":"event","name":"CheckedIn","inputs":[{"name":"user","type":"address","indexed":true,"internalType":"address"},{"name":"dayIndex","type":"uint256","indexed":false,"internalType":"uint256"}],"anonymous":false},{"type":"error","name":"DailyCheckIn__AlreadyCheckedIn","inputs":[]}],"bytecode":{"object":"0x6080806040523461001657610113908161001b8239f35b5f80fdfe608060409080825260043610156013575f80fd5b5f3560e01c908163183ff08514606c575063c483da22146031575f80fd5b3460685760203660031901126068576004356001600160a01b03811691908290036068576020915f525f8252805f20549051908152f35b5f80fd5b82346068575f36600319011260685762015180420491335f525f60205282825f20541460cb5750335f525f60205281815f2055519081527fdddb6e14f7f2101397a6526aab95e964de7f1f44ed06aa47a1c9a0e6b992445660203392a2005b6001622b5d3160e01b03198152600490fdfea2646970667358221220e6fd27daf5444acdb6ce5fae20380351b88ab56c0f9ec5c7c92e5e9fa1254bf564736f6c63430008180033","linkReferences":{}},"methodIdentifiers":{"checkIn()":"183ff085","lastCheckInDay(address)":"c483da22"},"id":36}