{"abi":[{"type":"constructor","inputs":[{"name":"name_","type":"string","internalType":"string"},{"name":"symbol_","type":"string","internalType":"string"},{"name":"mintPriceWei_","type":"uint256","internalType":"uint256"},{"name":"dailyMintCap_","type":"uint256","internalType":"uint256"},{"name":"treasury_","type":"address","internalType":"address"},{"name":"liquidityVault_","type":"address","internalType":"address"},{"name":"liquidityBps_","type":"uint16","internalType":"uint16"},{"name":"referrerBps_","type":"uint16","internalType":"uint16"},{"name":"baseURI_","type":"string","internalType":"string"},{"name":"initialOwner","type":"address","internalType":"address"}],"stateMutability":"nonpayable"},{"type":"function","name":"agentTypeOf","inputs":[{"name":"tokenId","type":"uint256","internalType":"uint256"}],"outputs":[{"name":"","type":"uint8","internalType":"uint8"}],"stateMutability":"view"},{"type":"function","name":"approve","inputs":[{"name":"to","type":"address","internalType":"address"},{"name":"tokenId","type":"uint256","internalType":"uint256"}],"outputs":[],"stateMutability":"nonpayable"},{"type":"function","name":"balanceOf","inputs":[{"name":"owner","type":"address","internalType":"address"}],"outputs":[{"name":"","type":"uint256","internalType":"uint256"}],"stateMutability":"view"},{"type":"function","name":"dailyMintCap","inputs":[],"outputs":[{"name":"","type":"uint256","internalType":"uint256"}],"stateMutability":"view"},{"type":"function","name":"getApproved","inputs":[{"name":"tokenId","type":"uint256","internalType":"uint256"}],"outputs":[{"name":"","type":"address","internalType":"address"}],"stateMutability":"view"},{"type":"function","name":"isApprovedForAll","inputs":[{"name":"owner","type":"address","internalType":"address"},{"name":"operator","type":"address","internalType":"address"}],"outputs":[{"name":"","type":"bool","internalType":"bool"}],"stateMutability":"view"},{"type":"function","name":"liquidityBps","inputs":[],"outputs":[{"name":"","type":"uint16","internalType":"uint16"}],"stateMutability":"view"},{"type":"function","name":"liquidityVault","inputs":[],"outputs":[{"name":"","type":"address","internalType":"address"}],"stateMutability":"view"},{"type":"function","name":"mint","inputs":[{"name":"agentTypeId","type":"uint8","internalType":"uint8"},{"name":"referrer","type":"address","internalType":"address"}],"outputs":[],"stateMutability":"payable"},{"type":"function","name":"mintPriceWei","inputs":[],"outputs":[{"name":"","type":"uint256","internalType":"uint256"}],"stateMutability":"view"},{"type":"function","name":"mintsToday","inputs":[],"outputs":[{"name":"","type":"uint256","internalType":"uint256"}],"stateMutability":"view"},{"type":"function","name":"name","inputs":[],"outputs":[{"name":"","type":"string","internalType":"string"}],"stateMutability":"view"},{"type":"function","name":"owner","inputs":[],"outputs":[{"name":"","type":"address","internalType":"address"}],"stateMutability":"view"},{"type":"function","name":"ownerOf","inputs":[{"name":"tokenId","type":"uint256","internalType":"uint256"}],"outputs":[{"name":"","type":"address","internalType":"address"}],"stateMutability":"view"},{"type":"function","name":"pause","inputs":[],"outputs":[],"stateMutability":"nonpayable"},{"type":"function","name":"paused","inputs":[],"outputs":[{"name":"","type":"bool","internalType":"bool"}],"stateMutability":"view"},{"type":"function","name":"referralClaimable","inputs":[{"name":"referrer","type":"address","internalType":"address"}],"outputs":[{"name":"","type":"uint256","internalType":"uint256"}],"stateMutability":"view"},{"type":"function","name":"referrerBps","inputs":[],"outputs":[{"name":"","type":"uint16","internalType":"uint16"}],"stateMutability":"view"},{"type":"function","name":"renounceOwnership","inputs":[],"outputs":[],"stateMutability":"nonpayable"},{"type":"function","name":"safeTransferFrom","inputs":[{"name":"from","type":"address","internalType":"address"},{"name":"to","type":"address","internalType":"address"},{"name":"tokenId","type":"uint256","internalType":"uint256"}],"outputs":[],"stateMutability":"nonpayable"},{"type":"function","name":"safeTransferFrom","inputs":[{"name":"from","type":"address","internalType":"address"},{"name":"to","type":"address","internalType":"address"},{"name":"tokenId","type":"uint256","internalType":"uint256"},{"name":"data","type":"bytes","internalType":"bytes"}],"outputs":[],"stateMutability":"nonpayable"},{"type":"function","name":"setApprovalForAll","inputs":[{"name":"operator","type":"address","internalType":"address"},{"name":"approved","type":"bool","internalType":"bool"}],"outputs":[],"stateMutability":"nonpayable"},{"type":"function","name":"setBaseURI","inputs":[{"name":"newBase","type":"string","internalType":"string"}],"outputs":[],"stateMutability":"nonpayable"},{"type":"function","name":"supportsInterface","inputs":[{"name":"interfaceId","type":"bytes4","internalType":"bytes4"}],"outputs":[{"name":"","type":"bool","internalType":"bool"}],"stateMutability":"view"},{"type":"function","name":"symbol","inputs":[],"outputs":[{"name":"","type":"string","internalType":"string"}],"stateMutability":"view"},{"type":"function","name":"tokenURI","inputs":[{"name":"tokenId","type":"uint256","internalType":"uint256"}],"outputs":[{"name":"","type":"string","internalType":"string"}],"stateMutability":"view"},{"type":"function","name":"transferFrom","inputs":[{"name":"from","type":"address","internalType":"address"},{"name":"to","type":"address","internalType":"address"},{"name":"tokenId","type":"uint256","internalType":"uint256"}],"outputs":[],"stateMutability":"nonpayable"},{"type":"function","name":"transferOwnership","inputs":[{"name":"newOwner","type":"address","internalType":"address"}],"outputs":[],"stateMutability":"nonpayable"},{"type":"function","name":"treasury","inputs":[],"outputs":[{"name":"","type":"address","internalType":"address"}],"stateMutability":"view"},{"type":"function","name":"unpause","inputs":[],"outputs":[],"stateMutability":"nonpayable"},{"type":"function","name":"withdrawReferral","inputs":[],"outputs":[],"stateMutability":"nonpayable"},{"type":"event","name":"Approval","inputs":[{"name":"owner","type":"address","indexed":true,"internalType":"address"},{"name":"approved","type":"address","indexed":true,"internalType":"address"},{"name":"tokenId","type":"uint256","indexed":true,"internalType":"uint256"}],"anonymous":false},{"type":"event","name":"ApprovalForAll","inputs":[{"name":"owner","type":"address","indexed":true,"internalType":"address"},{"name":"operator","type":"address","indexed":true,"internalType":"address"},{"name":"approved","type":"bool","indexed":false,"internalType":"bool"}],"anonymous":false},{"type":"event","name":"Minted","inputs":[{"name":"to","type":"address","indexed":true,"internalType":"address"},{"name":"tokenId","type":"uint256","indexed":true,"internalType":"uint256"},{"name":"agentTypeId","type":"uint8","indexed":true,"internalType":"uint8"},{"name":"referrer","type":"address","indexed":false,"internalType":"address"}],"anonymous":false},{"type":"event","name":"OwnershipTransferred","inputs":[{"name":"previousOwner","type":"address","indexed":true,"internalType":"address"},{"name":"newOwner","type":"address","indexed":true,"internalType":"address"}],"anonymous":false},{"type":"event","name":"Paused","inputs":[{"name":"account","type":"address","indexed":false,"internalType":"address"}],"anonymous":false},{"type":"event","name":"ReferralWithdrawn","inputs":[{"name":"to","type":"address","indexed":true,"internalType":"address"},{"name":"amount","type":"uint256","indexed":false,"internalType":"uint256"}],"anonymous":false},{"type":"event","name":"Transfer","inputs":[{"name":"from","type":"address","indexed":true,"internalType":"address"},{"name":"to","type":"address","indexed":true,"internalType":"address"},{"name":"tokenId","type":"uint256","indexed":true,"internalType":"uint256"}],"anonymous":false},{"type":"event","name":"Unpaused","inputs":[{"name":"account","type":"address","indexed":false,"internalType":"address"}],"anonymous":false},{"type":"error","name":"DailyCap","inputs":[]},{"type":"error","name":"ERC721IncorrectOwner","inputs":[{"name":"sender","type":"address","internalType":"address"},{"name":"tokenId","type":"uint256","internalType":"uint256"},{"name":"owner","type":"address","internalType":"address"}]},{"type":"error","name":"ERC721InsufficientApproval","inputs":[{"name":"operator","type":"address","internalType":"address"},{"name":"tokenId","type":"uint256","internalType":"uint256"}]},{"type":"error","name":"ERC721InvalidApprover","inputs":[{"name":"approver","type":"address","internalType":"address"}]},{"type":"error","name":"ERC721InvalidOperator","inputs":[{"name":"operator","type":"address","internalType":"address"}]},{"type":"error","name":"ERC721InvalidOwner","inputs":[{"name":"owner","type":"address","internalType":"address"}]},{"type":"error","name":"ERC721InvalidReceiver","inputs":[{"name":"receiver","type":"address","internalType":"address"}]},{"type":"error","name":"ERC721InvalidSender","inputs":[{"name":"sender","type":"address","internalType":"address"}]},{"type":"error","name":"ERC721NonexistentToken","inputs":[{"name":"tokenId","type":"uint256","internalType":"uint256"}]},{"type":"error","name":"EnforcedPause","inputs":[]},{"type":"error","name":"ExpectedPause","inputs":[]},{"type":"error","name":"InvalidPayment","inputs":[]},{"type":"error","name":"InvalidReferrer","inputs":[]},{"type":"error","name":"OwnableInvalidOwner","inputs":[{"name":"owner","type":"address","internalType":"address"}]},{"type":"error","name":"OwnableUnauthorizedAccount","inputs":[{"name":"account","type":"address","internalType":"address"}]},{"type":"error","name":"ReentrancyGuardReentrantCall","inputs":[]}],"bytecode":{"object":"0x6040610140815234620006f9576200214d803803806200001f81620006fd565b92833981019061014081830312620006f95780516001600160401b038111620006f957826200005091830162000723565b60208201519093906001600160401b038111620006f957836200007591840162000723565b938183015160608401516200008d6080860162000793565b6200009b60a0870162000793565b91620000aa60c08801620007a8565b93620000b960e08901620007a8565b61010089810151909a9197916001600160401b038211620006f957620000e1918b0162000723565b9a620000f2610120809b0162000793565b825190926001600160401b03821162000448575f5490600182811c92168015620006ee575b6020831014620004295781601f84931162000691575b50602090601f83116001146200061d575f9262000611575b50508160011b915f199060031b1c1916175f555b8051906001600160401b038211620004485760015490600182811c9216801562000606575b6020831014620004295781601f849311620005a5575b50602090601f83116001146200052a575f926200051e575b50508160011b915f199060031b1c1916176001555b6001600160a01b039081169081156200050757600680546001600160a01b0319811684179091558951929082167f8be0079c531659141344cd1fd0a4f28419497f9722a3daafe3b4186f6b6457e05f80a3600160075560ff19600854166008556001600a5580851615159081620004fa575b5015620004d1575061ffff8086169087168101809111620004bd576127101062000493578115158062000489575b156200045c5760805260a05260c05260e0528452825283516001600160401b0381116200044857600954600181811c911680156200043d575b60208210146200042957601f8111620003c1575b50602094601f821160011462000358579481929394955f926200034c575b50508160011b915f199060031b1c1916176009555b51906119549283620007b984396080518381816102a5015261087d015260a0518381816108bb0152611121015260c051838181610a840152610e3c015260e051838181610b1c0152610dca0152518281816102e2015261090401525181818161018e015261093d0152f35b015190505f80620002cc565b601f1982169560095f5260205f20915f5b888110620003a8575083600195969798106200038f575b505050811b01600955620002e1565b01515f1960f88460031b161c191690555f808062000380565b9192602060018192868501518155019401920162000369565b60095f527f6e1540171b6c0c960b71a7020d9f60077f6af931a8bbf590da0223dacf75c7af601f830160051c810191602084106200041e575b601f0160051c01905b818110620004125750620002ae565b5f815560010162000403565b9091508190620003fa565b634e487b7160e01b5f52602260045260245ffd5b90607f16906200029a565b634e487b7160e01b5f52604160045260245ffd5b865162461bcd60e51b8152602060048201526006602482015265706172616d7360d01b6044820152606490fd5b5080151562000261565b865162461bcd60e51b815260206004820152600360248201526262707360e81b6044820152606490fd5b634e487b7160e01b5f52601160045260245ffd5b60649062461bcd60e51b815260206004820152600460248201526330b2323960e11b6044820152fd5b9050851615155f62000233565b8851631e4fbdf760e01b81525f6004820152602490fd5b015190505f80620001ac565b60015f90815293505f805160206200212d83398151915291905b601f198416851062000589576001945083601f1981161062000570575b505050811b01600155620001c1565b01515f1960f88460031b161c191690555f808062000561565b8181015183556020948501946001909301929091019062000544565b60015f529091505f805160206200212d833981519152601f840160051c81019160208510620005fb575b90601f859493920160051c01905b818110620005ec575062000194565b5f8155849350600101620005dd565b9091508190620005cf565b91607f16916200017e565b015190505f8062000145565b5f8080525f805160206200210d8339815191529350601f198516905b8181106200067857509084600195949392106200065f575b505050811b015f5562000159565b01515f1960f88460031b161c191690555f808062000651565b9293602060018192878601518155019501930162000639565b5f80529091505f805160206200210d833981519152601f840160051c810160208510620006e6575b90849392915b601f830160051c82018110620006d75750506200012d565b5f8155859450600101620006bf565b5080620006b9565b91607f169162000117565b5f80fd5b6040519190601f01601f191682016001600160401b038111838210176200044857604052565b919080601f84011215620006f95782516001600160401b038111620004485760209062000759601f8201601f19168301620006fd565b92818452828287010111620006f9575f5b8181106200077f5750825f9394955001015290565b85810183015184820184015282016200076a565b51906001600160a01b0382168203620006f957565b519061ffff82168203620006f95756fe6080604090808252600480361015610015575f80fd5b5f3560e01c91826301ffc9a71461131b5750816306fdde031461126e578163081812fc14611236578163095ea7b31461115b57816323b872dd146111445781632832bcb51461110a5781633310104a146110e05781633f4ba83a1461107957816342842e0e1461104b57816355f804b314610ec55781635c975abb14610ea25781635e2d7a2814610e6b57816361d027b314610e285781636352211e14610df9578163708666ad14610db657816370a0823114610d62578163715018a614610d075781637bf75f6c146108475781638456cb59146107ee5781638da5cb5b146107c657816395d89b41146106f25781639ea0e074146106c3578163a22cb46514610628578163b88d4fde14610597578163c5dd8f971461056c578163c87b56dd14610306578163c9f62af2146102c8578163cb2c97221461028e578163e985e9c514610240578163f2fde38b146101b6575063fdc89f1814610175575f80fd5b346101b2575f3660031901126101b2576020905161ffff7f0000000000000000000000000000000000000000000000000000000000000000168152f35b5f80fd5b9050346101b25760203660031901126101b2576101d16113cb565b906101da61179e565b6001600160a01b0391821692831561022a575050600654826001600160601b0360a01b821617600655167f8be0079c531659141344cd1fd0a4f28419497f9722a3daafe3b4186f6b6457e05f80a3005b905f6024925191631e4fbdf760e01b8352820152fd5b82346101b257806003193601126101b25760209061025c6113cb565b6102646113e1565b9060018060a01b038091165f5260058452825f2091165f52825260ff815f20541690519015158152f35b82346101b2575f3660031901126101b257602090517f00000000000000000000000000000000000000000000000000000000000000008152f35b82346101b2575f3660031901126101b2576020905161ffff7f0000000000000000000000000000000000000000000000000000000000000000168152f35b82346101b257602090816003193601126101b25782359261032684611764565b505f939081907a184f03e93ff9f4daa797ed6e38ed64bf6a1f010000000000000000828181101561055d575b50506d04ee2d6d415b85acef81000000008083101561054f575b50662386f26fc1000080831015610540575b506305f5e10080831015610531575b5061271080831015610525575b50506064811015610517575b600a8091101561050d575b6001808601916103d86103c38461147e565b936103d08751958661145c565b80855261147e565b9382602188860199601f19809801368c37860101905b6104df575b50505083519586925f926009549061040a8261149a565b91896001821691825f146104bd57505060011461045d575b5050918061043d61044a959361045998979551938491611385565b010390810186528561145c565b519282849384528301906113a6565b0390f35b889293945060095f527f6e1540171b6c0c960b71a7020d9f60077f6af931a8bbf590da0223dacf75c7af905f915b8383106104a35750505084010191908061043d610422565b80549783018501979097528a968a9490920191810161048b565b60ff1916818901528315159093028701909201945082915061043d9050610422565b5f19019082906f181899199a1a9b1b9c1cb0b131b232b360811b8282061a8353049083826103ee57506103f3565b93600101936103b1565b6064600291049401936103a6565b9501949004858061039a565b6008919692049101948661038d565b6010919692049101948661037e565b85919692049101948661036c565b91965091500482948680610352565b82346101b2575f3660031901126101b2576020906201518042045f52600c8252805f20549051908152f35b82346101b25760803660031901126101b2576105b16113cb565b6105b96113e1565b604435916064359467ffffffffffffffff86116101b257366023870112156101b2578501356105f36105ea8261147e565b9551958661145c565b80855236602482880101116101b2576020815f926024610626990183890137860101526106218383836114d2565b61180b565b005b82346101b257806003193601126101b2576106416113cb565b90602435918215158093036101b2576001600160a01b03169283156106ae5750335f526005602052805f20835f52602052805f2060ff1981541660ff8416179055519081527f17307eab39ab6107e8899845ad3d59bd9653f200f220920489ca2b5937696c3160203392a3005b836024925191630b61174360e31b8352820152fd5b346101b2575f3660031901126101b2576106db6117ca565b6106e36117ed565b6106eb6116d9565b6001600755005b82346101b2575f3660031901126101b2578051905f9082600192600154936107198561149a565b90818452602095866001821691825f146107a4575050600114610749575b5050610459929161044a91038561145c565b9085925060015f527fb10e2d527612073b26eecdfd717e6a320cf44b4afac2b0732d9fcbe2b7fa0cf6915f925b82841061078c575050508201018161044a610737565b8054848a018601528895508794909301928101610776565b60ff19168682015292151560051b8501909201925083915061044a9050610737565b82346101b2575f3660031901126101b25760065490516001600160a01b039091168152602090f35b82346101b2575f3660031901126101b25760207f62e78cea01bee320cd4e420270b5ea74000d11b0c9f74754ebdbfc544b05a2589161082b61179e565b6108336117ed565b600160ff19600854161760085551338152a1005b9050816003193601126101b25780359160ff83168093036101b25761086a6113e1565b916108736117ca565b61087b6117ed565b7f000000000000000000000000000000000000000000000000000000000000000091823403610cfa5762015180420491825f52602092600c8452825f20547f00000000000000000000000000000000000000000000000000000000000000001115610ceb576001600160a01b0395861694338614610cdb5761271061097161ffff928261092a857f00000000000000000000000000000000000000000000000000000000000000001683611668565b049384938a15610ccd5761096361096c927f00000000000000000000000000000000000000000000000000000000000000001684611668565b0494859261168f565b61168f565b925f52600c8652845f20610985815461169c565b9055600a54976109948961169c565b600a55885f52600b8752855f208a60ff198254161790558551906109b78261142c565b5f82523315610cb757895f5260028852865f205416898115159182610c86575b335f5260038a52885f2060018154019055815f5260028a52885f20336001600160601b0360a01b82541617905533907fddf252ad1be2c89b69c2b068fc378daa952ba7f163c4a11628f55a4df523b3ef5f80a4610c7057333b610b7a575b5080610b15575b5080610ae5575b5080610a7d575b5050907f4c26f738cdce3887186cf08632f9b2c88e585cf444469504b7004f6f31fb807291519283523392a46001600755005b5f808080937f00000000000000000000000000000000000000000000000000000000000000005af1610aad6116aa565b5015610ab95780610a4a565b82606492519162461bcd60e51b83528201526008602482015267747265617375727960c01b6044820152fd5b855f52600d8552835f208054918201809211610b0257555f610a43565b601184634e487b7160e01b5f525260245ffd5b5f808080937f00000000000000000000000000000000000000000000000000000000000000005af1610b456116aa565b5015610b51575f610a3c565b835162461bcd60e51b815280840186905260036024820152626c697160e81b6044820152606490fd5b93610bbb87879996839b989c999c5180938192630a85bd0160e11b9687845233908401525f60248401528b60448401526080606484015260848301906113a6565b03815f335af15f9181610c30575b50610bfd578a8a8a610bd96116aa565b80519384610bf7578251633250574960e11b81523381860152602490fd5b84925001fd5b96999598949795966001600160e01b03191603610c1a575f610a35565b8451633250574960e11b81523381860152602490fd5b9091508b81813d8311610c69575b610c48818361145c565b810103126101b257516001600160e01b0319811681036101b257905f610bc9565b503d610c3e565b85516339e3563760e11b81525f81870152602490fd5b5f82815260046020526040812080546001600160a01b031916905581815260038b5289902080545f190190556109d7565b8651633250574960e11b81525f81880152602490fd5b505061096c5f94859261168f565b8351630c22084560e31b81528390fd5b509051635de5d03360e11b8152fd5b5163078d696560e31b8152fd5b346101b2575f3660031901126101b257610d1f61179e565b600680546001600160a01b031981169091555f906001600160a01b03167f8be0079c531659141344cd1fd0a4f28419497f9722a3daafe3b4186f6b6457e08280a3005b82346101b25760203660031901126101b2576001600160a01b03610d846113cb565b168015610da057602092505f5260038252805f20549051908152f35b81516322718ad960e21b81525f81850152602490fd5b82346101b2575f3660031901126101b257517f00000000000000000000000000000000000000000000000000000000000000006001600160a01b03168152602090f35b82346101b25760203660031901126101b257610e1760209235611764565b90516001600160a01b039091168152f35b82346101b2575f3660031901126101b257517f00000000000000000000000000000000000000000000000000000000000000006001600160a01b03168152602090f35b82346101b25760203660031901126101b2576020906001600160a01b03610e906113cb565b165f52600d8252805f20549051908152f35b82346101b2575f3660031901126101b25760209060ff6008541690519015158152f35b346101b25760209060206003193601126101b257803567ffffffffffffffff918282116101b257366023830112156101b2578101359182116101b25760249036602484830101116101b257610f1861179e565b610f2360095461149a565b601f8111610fec575b505f91601f8411600114610f6b57508293505f92610f5d575b50505f19600383901b1c191660019190911b17600955005b602492500101358280610f45565b91601f1984167f6e1540171b6c0c960b71a7020d9f60077f6af931a8bbf590da0223dacf75c7af935f905b828210610fd1575050600195508411610fb5575b505050811b01600955005b01602401355f19600384901b60f8161c19169055828080610faa565b90929487600181928489890101358155019601930190610f96565b7f6e1540171b6c0c960b71a7020d9f60077f6af931a8bbf590da0223dacf75c7af601f850160051c81019160208610611041575b601f0160051c01905b8181106110365750610f2c565b5f8155600101611029565b9091508190611020565b82346101b2576106269061105e366113f7565b9192519261106b8461142c565b5f84526106218383836114d2565b82346101b2575f3660031901126101b25761109261179e565b6008549160ff8316156110d2577f5db9ee0a495bf2e6ff9c91a7834c1ba4fdd244a5e8aa4e537bd38aeae4b073aa6020838560ff191660085551338152a1005b9051638dfc202b60e01b8152fd5b82346101b25760203660031901126101b257602091355f52600b825260ff815f2054169051908152f35b82346101b2575f3660031901126101b257602090517f00000000000000000000000000000000000000000000000000000000000000008152f35b346101b257610626611155366113f7565b916114d2565b82346101b257806003193601126101b2576111746113cb565b9160243561118181611764565b33151580611223575b806111fc575b6111e6576001600160a01b039485169482918691167f8c5be1e5ebec7d5bd14f71427d1e84f3dd0314c0f7b2291e5b200ac8c7c3b9255f80a45f526020525f20906001600160601b0360a01b8254161790555f80f35b835163a9fbf51f60e01b81523381850152602490fd5b5060018060a01b0381165f526005602052835f20335f5260205260ff845f20541615611190565b506001600160a01b03811633141561118a565b82346101b25760203660031901126101b257816020923561125681611764565b505f52825260018060a01b03815f2054169051908152f35b82346101b2575f3660031901126101b2578051905f90825f54926112918461149a565b808352602094600190866001821691825f146107a45750506001146112c2575050610459929161044a91038561145c565b5f80805286935091907f290decd9548b62a8d60345a988386fc84ba6bc95484008f6362f93160ef3e5635b828410611303575050508201018161044a610737565b8054848a0186015288955087949093019281016112ed565b90346101b25760203660031901126101b257359063ffffffff60e01b82168092036101b2576020916380ac58cd60e01b8114908115611374575b8115611363575b5015158152f35b6301ffc9a760e01b1490508361135c565b635b5e139f60e01b81149150611355565b5f5b8381106113965750505f910152565b8181015183820152602001611387565b906020916113bf81518092818552858086019101611385565b601f01601f1916010190565b600435906001600160a01b03821682036101b257565b602435906001600160a01b03821682036101b257565b60609060031901126101b2576001600160a01b039060043582811681036101b2579160243590811681036101b2579060443590565b6020810190811067ffffffffffffffff82111761144857604052565b634e487b7160e01b5f52604160045260245ffd5b90601f8019910116810190811067ffffffffffffffff82111761144857604052565b67ffffffffffffffff811161144857601f01601f191660200190565b90600182811c921680156114c8575b60208310146114b457565b634e487b7160e01b5f52602260045260245ffd5b91607f16916114a9565b6001600160a01b03918216929091831561165057815f52602092600284528260409583875f20541695331515806115be575b506002908761158d575b825f5260038152885f2060018154019055835f5252865f20816001600160601b0360a01b825416179055857fddf252ad1be2c89b69c2b068fc378daa952ba7f163c4a11628f55a4df523b3ef5f80a4169283830361156c5750505050565b6064945051926364283d7b60e01b8452600484015260248301526044820152fd5b5f84815260046020526040812080546001600160a01b03191690558881526003825289902080545f1901905561150e565b919250908061160f575b156115d6579084915f611504565b8685876115f3576024915190637e27328960e01b82526004820152fd5b604491519063177e802f60e01b82523360048301526024820152fd5b503386148015611634575b806115c85750845f52600481523384885f205416146115c8565b50855f5260058152865f20335f52815260ff875f20541661161a565b604051633250574960e11b81525f6004820152602490fd5b8181029291811591840414171561167b57565b634e487b7160e01b5f52601160045260245ffd5b9190820391821161167b57565b5f19811461167b5760010190565b3d156116d4573d906116bb8261147e565b916116c9604051938461145c565b82523d5f602084013e565b606090565b335f52600d60205260405f208054908115611760575f90555f80808084335af16117016116aa565b5015611735576040519081527f8d38441deb8d3c27d5ddaa8308892edabf1c6556c655494ac56ab41f7d85220860203392a2565b60405162461bcd60e51b81526020600482015260036024820152623932b360e91b6044820152606490fd5b5050565b5f818152600260205260409020546001600160a01b0316908115611786575090565b60249060405190637e27328960e01b82526004820152fd5b6006546001600160a01b031633036117b257565b60405163118cdaa760e01b8152336004820152602490fd5b6002600754146117db576002600755565b604051633ee5aeb560e01b8152600490fd5b60ff600854166117f957565b60405163d93c066560e01b8152600490fd5b91929092833b61181c575b50505050565b60209060018060a01b03809516946118636040519485938493630a85bd0160e11b9889865233600487015216602485015260448401526080606484015260848301906113a6565b03815f875af15f91816118d9575b506118a8578261187f6116aa565b80519190826118a157604051633250574960e11b815260048101839052602490fd5b9050602001fd5b6001600160e01b031916036118c157505f808080611816565b60249060405190633250574960e11b82526004820152fd5b9091506020813d602011611916575b816118f56020938361145c565b810103126101b257516001600160e01b0319811681036101b257905f611871565b3d91506118e856fea2646970667358221220ac195f971c9ff4402b0ac470e4023a89e74159ffb0b58f6a2c5db6e80004ccd764736f6c63430008180033290decd9548b62a8d60345a988386fc84ba6bc95484008f6362f93160ef3e563b10e2d527612073b26eecdfd717e6a320cf44b4afac2b0732d9fcbe2b7fa0cf6","linkReferences":{}},"methodIdentifiers":{"agentTypeOf(uint256)":"3310104a","approve(address,uint256)":"095ea7b3","balanceOf(address)":"70a08231","dailyMintCap()":"2832bcb5","getApproved(uint256)":"081812fc","isApprovedForAll(address,address)":"e985e9c5","liquidityBps()":"c9f62af2","liquidityVault()":"708666ad","mint(uint8,address)":"7bf75f6c","mintPriceWei()":"cb2c9722","mintsToday()":"c5dd8f97","name()":"06fdde03","owner()":"8da5cb5b","ownerOf(uint256)":"6352211e","pause()":"8456cb59","paused()":"5c975abb","referralClaimable(address)":"5e2d7a28","referrerBps()":"fdc89f18","renounceOwnership()":"715018a6","safeTransferFrom(address,address,uint256)":"42842e0e","safeTransferFrom(address,address,uint256,bytes)":"b88d4fde","setApprovalForAll(address,bool)":"a22cb465","setBaseURI(string)":"55f804b3","supportsInterface(bytes4)":"01ffc9a7","symbol()":"95d89b41","tokenURI(uint256)":"c87b56dd","transferFrom(address,address,uint256)":"23b872dd","transferOwnership(address)":"f2fde38b","treasury()":"61d027b3","unpause()":"3f4ba83a","withdrawReferral()":"9ea0e074"},"id":40}