{"abi":[{"type":"constructor","inputs":[{"name":"initialOwner","type":"address","internalType":"address"}],"stateMutability":"nonpayable"},{"type":"function","name":"attestDay","inputs":[{"name":"dayId","type":"uint256","internalType":"uint256"},{"name":"digest","type":"bytes32","internalType":"bytes32"},{"name":"metadataUri","type":"string","internalType":"string"}],"outputs":[],"stateMutability":"nonpayable"},{"type":"function","name":"dayDigest","inputs":[{"name":"","type":"uint256","internalType":"uint256"}],"outputs":[{"name":"","type":"bytes32","internalType":"bytes32"}],"stateMutability":"view"},{"type":"function","name":"dayMetadataUri","inputs":[{"name":"","type":"uint256","internalType":"uint256"}],"outputs":[{"name":"","type":"string","internalType":"string"}],"stateMutability":"view"},{"type":"function","name":"owner","inputs":[],"outputs":[{"name":"","type":"address","internalType":"address"}],"stateMutability":"view"},{"type":"function","name":"renounceOwnership","inputs":[],"outputs":[],"stateMutability":"nonpayable"},{"type":"function","name":"transferOwnership","inputs":[{"name":"newOwner","type":"address","internalType":"address"}],"outputs":[],"stateMutability":"nonpayable"},{"type":"event","name":"DayAttested","inputs":[{"name":"dayId","type":"uint256","indexed":true,"internalType":"uint256"},{"name":"digest","type":"bytes32","indexed":true,"internalType":"bytes32"},{"name":"metadataUri","type":"string","indexed":false,"internalType":"string"},{"name":"attestor","type":"address","indexed":true,"internalType":"address"}],"anonymous":false},{"type":"event","name":"OwnershipTransferred","inputs":[{"name":"previousOwner","type":"address","indexed":true,"internalType":"address"},{"name":"newOwner","type":"address","indexed":true,"internalType":"address"}],"anonymous":false},{"type":"error","name":"OwnableInvalidOwner","inputs":[{"name":"owner","type":"address","internalType":"address"}]},{"type":"error","name":"OwnableUnauthorizedAccount","inputs":[{"name":"account","type":"address","internalType":"address"}]}],"bytecode":{"object":"0x6080346100b957601f61066238819003918201601f19168301916001600160401b038311848410176100bd578084926020946040528339810103126100b957516001600160a01b0390818116908190036100b95780156100a1575f80546001600160a01b03198116831782556040519316907f8be0079c531659141344cd1fd0a4f28419497f9722a3daafe3b4186f6b6457e09080a361059090816100d28239f35b604051631e4fbdf760e01b81525f6004820152602490fd5b5f80fd5b634e487b7160e01b5f52604160045260245ffdfe6080604081815260049182361015610015575f80fd5b5f3560e01c9081633e9b45da146103d25750806344740cca146103ab578063715018a6146103545780638da5cb5b1461032d5780639a3b7717146100f35763f2fde38b14610061575f80fd5b346100ef5760203660031901126100ef576001600160a01b038235818116939192908490036100ef5761009261052f565b83156100d95750505f54826bffffffffffffffffffffffff60a01b8216175f55167f8be0079c531659141344cd1fd0a4f28419497f9722a3daafe3b4186f6b6457e05f80a3005b905f6024925191631e4fbdf760e01b8352820152fd5b5f80fd5b5090346100ef5760603660031901126100ef5780356024908135916044359467ffffffffffffffff948587116100ef57366023880112156100ef57868101359586116100ef57368387890101116100ef5761014c61052f565b83156103065784156102dc5750825f5260019160209280845285835f205560028452825f209061017c82546104f7565b601f8111610296575b505f601f891160011461020d57918880809b93867fb0b6aa560e023ff436f146940b0eab1cc12157148808e54c04d54b174ad5e1349a9b9c97965f94610200575b50501b905f198660031b1c19161790555b8284519580875286015201828401375f8287018201523395601f01601f191682018290030190a4005b860101359250855f6101c6565b601f19891690835f52865f20915f5b81811061027f5750918a9b93918b7fb0b6aa560e023ff436f146940b0eab1cc12157148808e54c04d54b174ad5e1349a9b9c97969410610264575b505084811b0190556101d7565b84018501355f19600388901b60f8161c191690555f80610257565b8c830187013584559284019291880191880161021c565b825f52855f20601f8a0160051c810191878b106102d2575b601f0160051c019082905b8281106102c7575050610185565b5f81550182906102b9565b90915081906102ae565b6006836020606494519362461bcd60e51b855284015282015265191a59d95cdd60d21b6044820152fd5b6003836020606494519362461bcd60e51b85528401528201526264617960e81b6044820152fd5b50346100ef575f3660031901126100ef575f5490516001600160a01b039091168152602090f35b346100ef575f3660031901126100ef5761036c61052f565b5f80546001600160a01b0319811682556001600160a01b03167f8be0079c531659141344cd1fd0a4f28419497f9722a3daafe3b4186f6b6457e08280a3005b50346100ef5760203660031901126100ef57602091355f5260018252805f20549051908152f35b9050346100ef576020806003193601126100ef57819084355f5260028152835f205f908054610400816104f7565b91828652600191856001821691825f146104d957505060011461049b575b505050601f801994859203011682019482861067ffffffffffffffff87111761048857509084929183855280845281519182828601525f5b8381106104725750505f84830186015250601f01168101030190f35b8181018301518882018801528795508201610456565b604190634e487b7160e01b5f525260245ffd5b5f9081528481209594935091905b8183106104c1575050828293945001015f808061041e565b855487840185015294850194869450918301916104a9565b93509450505060ff191682850152151560051b8301015f808061041e565b90600182811c92168015610525575b602083101461051157565b634e487b7160e01b5f52602260045260245ffd5b91607f1691610506565b5f546001600160a01b0316330361054257565b60405163118cdaa760e01b8152336004820152602490fdfea26469706673582212200ae8fc7c27474afa0626b1655771593fa5736aa6c7368d3eed841d65ec54953a64736f6c63430008180033","linkReferences":{}},"methodIdentifiers":{"attestDay(uint256,bytes32,string)":"9a3b7717","dayDigest(uint256)":"44740cca","dayMetadataUri(uint256)":"3e9b45da","owner()":"8da5cb5b","renounceOwnership()":"715018a6","transferOwnership(address)":"f2fde38b"},"id":21}