{"abi":[{"type":"constructor","inputs":[{"name":"initialOwner","type":"address","internalType":"address"},{"name":"cap_","type":"uint256","internalType":"uint256"}],"stateMutability":"nonpayable"},{"type":"function","name":"allowance","inputs":[{"name":"owner","type":"address","internalType":"address"},{"name":"spender","type":"address","internalType":"address"}],"outputs":[{"name":"","type":"uint256","internalType":"uint256"}],"stateMutability":"view"},{"type":"function","name":"approve","inputs":[{"name":"spender","type":"address","internalType":"address"},{"name":"value","type":"uint256","internalType":"uint256"}],"outputs":[{"name":"","type":"bool","internalType":"bool"}],"stateMutability":"nonpayable"},{"type":"function","name":"balanceOf","inputs":[{"name":"account","type":"address","internalType":"address"}],"outputs":[{"name":"","type":"uint256","internalType":"uint256"}],"stateMutability":"view"},{"type":"function","name":"cap","inputs":[],"outputs":[{"name":"","type":"uint256","internalType":"uint256"}],"stateMutability":"view"},{"type":"function","name":"decimals","inputs":[],"outputs":[{"name":"","type":"uint8","internalType":"uint8"}],"stateMutability":"view"},{"type":"function","name":"disableOwnerMintForever","inputs":[],"outputs":[],"stateMutability":"nonpayable"},{"type":"function","name":"fixedSaleContract","inputs":[],"outputs":[{"name":"","type":"address","internalType":"address"}],"stateMutability":"view"},{"type":"function","name":"genesisClaimContract","inputs":[],"outputs":[{"name":"","type":"address","internalType":"address"}],"stateMutability":"view"},{"type":"function","name":"genesisMint","inputs":[{"name":"to","type":"address","internalType":"address"},{"name":"amount","type":"uint256","internalType":"uint256"}],"outputs":[],"stateMutability":"nonpayable"},{"type":"function","name":"name","inputs":[],"outputs":[{"name":"","type":"string","internalType":"string"}],"stateMutability":"view"},{"type":"function","name":"owner","inputs":[],"outputs":[{"name":"","type":"address","internalType":"address"}],"stateMutability":"view"},{"type":"function","name":"ownerMint","inputs":[{"name":"to","type":"address","internalType":"address"},{"name":"amount","type":"uint256","internalType":"uint256"}],"outputs":[],"stateMutability":"nonpayable"},{"type":"function","name":"ownerMintDisabled","inputs":[],"outputs":[{"name":"","type":"bool","internalType":"bool"}],"stateMutability":"view"},{"type":"function","name":"renounceOwnership","inputs":[],"outputs":[],"stateMutability":"nonpayable"},{"type":"function","name":"saleMint","inputs":[{"name":"to","type":"address","internalType":"address"},{"name":"amount","type":"uint256","internalType":"uint256"}],"outputs":[],"stateMutability":"nonpayable"},{"type":"function","name":"setFixedSaleContract","inputs":[{"name":"sale","type":"address","internalType":"address"}],"outputs":[],"stateMutability":"nonpayable"},{"type":"function","name":"setGenesisClaimContract","inputs":[{"name":"claim","type":"address","internalType":"address"}],"outputs":[],"stateMutability":"nonpayable"},{"type":"function","name":"symbol","inputs":[],"outputs":[{"name":"","type":"string","internalType":"string"}],"stateMutability":"view"},{"type":"function","name":"totalSupply","inputs":[],"outputs":[{"name":"","type":"uint256","internalType":"uint256"}],"stateMutability":"view"},{"type":"function","name":"transfer","inputs":[{"name":"to","type":"address","internalType":"address"},{"name":"value","type":"uint256","internalType":"uint256"}],"outputs":[{"name":"","type":"bool","internalType":"bool"}],"stateMutability":"nonpayable"},{"type":"function","name":"transferFrom","inputs":[{"name":"from","type":"address","internalType":"address"},{"name":"to","type":"address","internalType":"address"},{"name":"value","type":"uint256","internalType":"uint256"}],"outputs":[{"name":"","type":"bool","internalType":"bool"}],"stateMutability":"nonpayable"},{"type":"function","name":"transferOwnership","inputs":[{"name":"newOwner","type":"address","internalType":"address"}],"outputs":[],"stateMutability":"nonpayable"},{"type":"event","name":"Approval","inputs":[{"name":"owner","type":"address","indexed":true,"internalType":"address"},{"name":"spender","type":"address","indexed":true,"internalType":"address"},{"name":"value","type":"uint256","indexed":false,"internalType":"uint256"}],"anonymous":false},{"type":"event","name":"FixedSaleContractSet","inputs":[{"name":"sale","type":"address","indexed":true,"internalType":"address"}],"anonymous":false},{"type":"event","name":"GenesisClaimContractSet","inputs":[{"name":"claim","type":"address","indexed":true,"internalType":"address"}],"anonymous":false},{"type":"event","name":"OwnerMintDisabled","inputs":[],"anonymous":false},{"type":"event","name":"OwnershipTransferred","inputs":[{"name":"previousOwner","type":"address","indexed":true,"internalType":"address"},{"name":"newOwner","type":"address","indexed":true,"internalType":"address"}],"anonymous":false},{"type":"event","name":"Transfer","inputs":[{"name":"from","type":"address","indexed":true,"internalType":"address"},{"name":"to","type":"address","indexed":true,"internalType":"address"},{"name":"value","type":"uint256","indexed":false,"internalType":"uint256"}],"anonymous":false},{"type":"error","name":"ERC20ExceededCap","inputs":[{"name":"increasedSupply","type":"uint256","internalType":"uint256"},{"name":"cap","type":"uint256","internalType":"uint256"}]},{"type":"error","name":"ERC20InsufficientAllowance","inputs":[{"name":"spender","type":"address","internalType":"address"},{"name":"allowance","type":"uint256","internalType":"uint256"},{"name":"needed","type":"uint256","internalType":"uint256"}]},{"type":"error","name":"ERC20InsufficientBalance","inputs":[{"name":"sender","type":"address","internalType":"address"},{"name":"balance","type":"uint256","internalType":"uint256"},{"name":"needed","type":"uint256","internalType":"uint256"}]},{"type":"error","name":"ERC20InvalidApprover","inputs":[{"name":"approver","type":"address","internalType":"address"}]},{"type":"error","name":"ERC20InvalidCap","inputs":[{"name":"cap","type":"uint256","internalType":"uint256"}]},{"type":"error","name":"ERC20InvalidReceiver","inputs":[{"name":"receiver","type":"address","internalType":"address"}]},{"type":"error","name":"ERC20InvalidSender","inputs":[{"name":"sender","type":"address","internalType":"address"}]},{"type":"error","name":"ERC20InvalidSpender","inputs":[{"name":"spender","type":"address","internalType":"address"}]},{"type":"error","name":"OwnableInvalidOwner","inputs":[{"name":"owner","type":"address","internalType":"address"}]},{"type":"error","name":"OwnableUnauthorizedAccount","inputs":[{"name":"account","type":"address","internalType":"address"}]}],"bytecode":{"object":"0x60a034620003ce576001600160401b0390601f1990601f620010e53881900382810185168401919086831185841017620002db578085926040948552833981010312620003ce5781516001600160a01b03948582169491859003620003ce57602080940151926200006f620003d2565b601781527f4275696c64696e672043756c7475726520446f6c6c617200000000000000000086820152620000a2620003d2565b91600392838152621090d160ea1b888201528251858111620002db5784546001948582811c92168015620003c3575b8b831014620003af5781858493116200035c575b508a90858311600114620002fb575f92620002ef575b50505f1982871b1c191690841b1784555b8051948511620002db5760049788548481811c91168015620002d0575b82821014620002bd5783811162000275575b50809286116001146200020d5750849550908492915f9562000201575b50501b925f19911b1c19161782555b8015620001ea576080528115620001d35750600580546001600160a01b03198116831790915560405192167f8be0079c531659141344cd1fd0a4f28419497f9722a3daafe3b4186f6b6457e05f80a3610cf29081620003f3823960805181818161061a0152610b860152f35b6024905f60405191631e4fbdf760e01b8352820152fd5b60405163392e1e2760e01b81525f81840152602490fd5b015193505f8062000158565b93929585908116895f52855f20955f905b898383106200025a575050501062000240575b50505050811b01825562000167565b01519060f8845f19921b161c191690555f80808062000231565b8587015189559097019694850194889350908101906200021e565b895f52815f208480890160051c820192848a10620002b3575b0160051c019085905b828110620002a75750506200013b565b5f815501859062000297565b925081926200028e565b60228a634e487b7160e01b5f525260245ffd5b90607f169062000129565b634e487b7160e01b5f52604160045260245ffd5b015190505f80620000fb565b908987941691885f528c5f20928d5f905b8282106200034457505084116200032c575b505050811b0184556200010c565b01515f1983891b60f8161c191690555f80806200031e565b8385015186558a979095019493840193018e6200030c565b909150865f528a5f208580850160051c8201928d8610620003a5575b918891869594930160051c01915b82811062000396575050620000e5565b5f815585945088910162000386565b9250819262000378565b634e487b7160e01b5f52602260045260245ffd5b91607f1691620000d1565b5f80fd5b60408051919082016001600160401b03811183821017620002db5760405256fe604060808152600480361015610013575f80fd5b5f3560e01c8062251afa146109ce57806306fdde03146108f2578063095ea7b314610849578063176e25e9146107dd57806318160ddd146107bf5780631ace6f6014610797578063218d25081461076f57806323722cd31461074957806323b872dd14610658578063313ce5671461063d578063355274ea1461060357806347457a2c1461059a578063484b973c1461052957806359cfd28f1461047657806370a0823114610440578063715018a6146103e55780638da5cb5b146103bd57806395d89b411461029d578063a9059cbb1461026d578063ced41977146101e1578063dd62ed3e146101985763f2fde38b1461010c575f80fd5b3461019457602036600319011261019457610125610a84565b9061012e610af7565b6001600160a01b0391821692831561017e575050600554826001600160601b0360a01b821617600555167f8be0079c531659141344cd1fd0a4f28419497f9722a3daafe3b4186f6b6457e05f80a3005b905f6024925191631e4fbdf760e01b8352820152fd5b5f80fd5b82346101945780600319360112610194576020906101b4610a84565b6101bc610a9a565b9060018060a01b038091165f5260018452825f2091165f528252805f20549051908152f35b5034610194575f366003190112610194576101fa610af7565b6007549160ff8360a01c166102405760ff60a01b198316600160a01b176007557f523e387fb828b86ed03115c51c5e56592a2844a469afa2ccb7184bf78cd5af7f5f80a1005b906020606492519162461bcd60e51b83528201526007602482015266616c726561647960c81b6044820152fd5b823461019457806003193601126101945760209061029661028c610a84565b6024359033610bfa565b5160018152f35b509034610194575f366003190112610194578051905f835460018160011c90600183169283156103b3575b60209384841081146103a0578388529081156103845750600114610330575b505050829003601f01601f191682019267ffffffffffffffff84118385101761031d5750829182610319925282610ab0565b0390f35b604190634e487b7160e01b5f525260245ffd5b5f878152929350837f8a35acfbc15ff81a39ae7d344fd709f28e8600b4aa8c65c6b64bfe7fe36bd19b5b83851061037057505050508301015f80806102e7565b80548886018301529301928490820161035a565b60ff1916878501525050151560051b84010190505f80806102e7565b602289634e487b7160e01b5f525260245ffd5b91607f16916102c8565b8234610194575f3660031901126101945760055490516001600160a01b039091168152602090f35b34610194575f366003190112610194576103fd610af7565b600580546001600160a01b031981169091555f906001600160a01b03167f8be0079c531659141344cd1fd0a4f28419497f9722a3daafe3b4186f6b6457e08280a3005b8234610194576020366003190112610194576020906001600160a01b03610465610a84565b165f525f8252805f20549051908152f35b50903461019457602036600319011261019457610491610a84565b610499610af7565b600754926001600160a01b0392838516158061051e575b156104f05750501680916001600160601b0360a01b16176007557fd686625c31e76b7eeaf10eeb0a44832563c322ba1119257b9a8d2d03d5f2ed225f80a2005b906020606492519162461bcd60e51b835282015260086024820152671cd85b19481cd95d60c21b6044820152fd5b5083831615156104b0565b5034610194578160031936011261019457610542610a84565b9161054b610af7565b60ff60075460a01c166105665761056460243584610b23565b005b906020606492519162461bcd60e51b8352820152600e60248201526d37bbb732b91036b4b73a1037b33360911b6044820152fd5b50346101945781600319360112610194576105b3610a84565b6007549092906001600160a01b031633036105d45761056460243584610b23565b906020606492519162461bcd60e51b835282015260096024820152686f6e6c792073616c6560b81b6044820152fd5b8234610194575f36600319011261019457602090517f00000000000000000000000000000000000000000000000000000000000000008152f35b8234610194575f366003190112610194576020905160128152f35b503461019457606036600319011261019457610672610a84565b61067a610a9a565b906044359260018060a01b038216805f526001602052855f20335f52602052855f2054915f1983036106b5575b602087610296888888610bfa565b85831061071d5781156107075733156106f157505f908152600160209081528682203383528152908690209185900390915582906102966106a7565b6024905f885191634a1406b160e11b8352820152fd5b6024905f88519163e602df0560e01b8352820152fd5b8651637dc7a0d960e11b8152339181019182526020820193909352604081018690528291506060010390fd5b8234610194575f3660031901126101945760209060ff60075460a01c1690519015158152f35b8234610194575f3660031901126101945760065490516001600160a01b039091168152602090f35b8234610194575f3660031901126101945760075490516001600160a01b039091168152602090f35b8234610194575f366003190112610194576020906002549051908152f35b50346101945781600319360112610194576107f6610a84565b6006549092906001600160a01b031633036108175761056460243584610b23565b906020606492519162461bcd60e51b8352820152600c60248201526b6f6e6c792067656e6573697360a01b6044820152fd5b509034610194578060031936011261019457610863610a84565b6024359033156108dc576001600160a01b03169081156108c65760209350335f5260018452825f20825f52845280835f205582519081527f8c5be1e5ebec7d5bd14f71427d1e84f3dd0314c0f7b2291e5b200ac8c7c3b925843392a35160018152f35b8251634a1406b160e11b81525f81860152602490fd5b825163e602df0560e01b81525f81860152602490fd5b509034610194575f366003190112610194578051905f60035460018160011c90600183169283156109c4575b60209384841081146103a057838852908115610384575060011461096e57505050829003601f01601f191682019267ffffffffffffffff84118385101761031d5750829182610319925282610ab0565b60035f908152929350837fc2575a0e9e593c00f959f8c92f12db2869c3395a3b0502d05e2516446f71f85b5b8385106109b057505050508301015f80806102e7565b80548886018301529301928490820161099a565b91607f169161091e565b509034610194576020366003190112610194576109e9610a84565b6109f1610af7565b600654926001600160a01b03928385161580610a79575b15610a485750501680916001600160601b0360a01b16176006557f4b56cc9eb5b7c7ee545321b178436c5b917ed15069ec9845b82d04f5cdf1b81d5f80a2005b906020606492519162461bcd60e51b8352820152600b60248201526a19d95b995cda5cc81cd95d60aa1b6044820152fd5b508383161515610a08565b600435906001600160a01b038216820361019457565b602435906001600160a01b038216820361019457565b602080825282518183018190529093925f5b828110610ae357505060409293505f838284010152601f8019910116010190565b818101860151848201604001528501610ac2565b6005546001600160a01b03163303610b0b57565b60405163118cdaa760e01b8152336004820152602490fd5b6001600160a01b0316908115610be25760025490808201809211610bce5760207fddf252ad1be2c89b69c2b068fc378daa952ba7f163c4a11628f55a4df523b3ef915f9360025584845283825260408420818154019055604051908152a36002547f0000000000000000000000000000000000000000000000000000000000000000808211610bb0575050565b604492506040519163279e7e1560e21b835260048301526024820152fd5b634e487b7160e01b5f52601160045260245ffd5b60405163ec442f0560e01b81525f6004820152602490fd5b916001600160a01b03808416928315610ca45716928315610be257825f525f60205260405f205490828210610c725750817fddf252ad1be2c89b69c2b068fc378daa952ba7f163c4a11628f55a4df523b3ef92602092855f525f84520360405f2055845f5260405f20818154019055604051908152a3565b60405163391434e360e21b81526001600160a01b03919091166004820152602481019190915260448101829052606490fd5b604051634b637e8f60e11b81525f6004820152602490fdfea264697066735822122048a727dafebad6b7dc7024d218d556b9fa4629e9e6ffd79486f1a5b1c75c9f7c64736f6c63430008180033","linkReferences":{}},"methodIdentifiers":{"allowance(address,address)":"dd62ed3e","approve(address,uint256)":"095ea7b3","balanceOf(address)":"70a08231","cap()":"355274ea","decimals()":"313ce567","disableOwnerMintForever()":"ced41977","fixedSaleContract()":"1ace6f60","genesisClaimContract()":"218d2508","genesisMint(address,uint256)":"176e25e9","name()":"06fdde03","owner()":"8da5cb5b","ownerMint(address,uint256)":"484b973c","ownerMintDisabled()":"23722cd3","renounceOwnership()":"715018a6","saleMint(address,uint256)":"47457a2c","setFixedSaleContract(address)":"59cfd28f","setGenesisClaimContract(address)":"00251afa","symbol()":"95d89b41","totalSupply()":"18160ddd","transfer(address,uint256)":"a9059cbb","transferFrom(address,address,uint256)":"23b872dd","transferOwnership(address)":"f2fde38b"},"id":52}