{"abi":[{"type":"constructor","inputs":[{"name":"initialOwner","type":"address","internalType":"address"},{"name":"token_","type":"address","internalType":"address"},{"name":"treasury_","type":"address","internalType":"address"},{"name":"paymentToken_","type":"address","internalType":"address"}],"stateMutability":"nonpayable"},{"type":"receive","stateMutability":"payable"},{"type":"function","name":"buy","inputs":[{"name":"roundId","type":"uint256","internalType":"uint256"},{"name":"bcdAmountWei","type":"uint256","internalType":"uint256"},{"name":"merkleMaxBcdWei","type":"uint256","internalType":"uint256"},{"name":"proof","type":"bytes32[]","internalType":"bytes32[]"}],"outputs":[],"stateMutability":"payable"},{"type":"function","name":"configureRound","inputs":[{"name":"roundId","type":"uint256","internalType":"uint256"},{"name":"r","type":"tuple","internalType":"struct BCDFixedPriceSale.Round","components":[{"name":"start","type":"uint64","internalType":"uint64"},{"name":"end","type":"uint64","internalType":"uint64"},{"name":"merkleRoot","type":"bytes32","internalType":"bytes32"},{"name":"paymentPerWholeBcd","type":"uint256","internalType":"uint256"},{"name":"maxBcdWei","type":"uint256","internalType":"uint256"},{"name":"perWalletPublicCapWei","type":"uint256","internalType":"uint256"}]}],"outputs":[],"stateMutability":"nonpayable"},{"type":"function","name":"feeBps","inputs":[],"outputs":[{"name":"","type":"uint256","internalType":"uint256"}],"stateMutability":"view"},{"type":"function","name":"owner","inputs":[],"outputs":[{"name":"","type":"address","internalType":"address"}],"stateMutability":"view"},{"type":"function","name":"pause","inputs":[],"outputs":[],"stateMutability":"nonpayable"},{"type":"function","name":"paused","inputs":[],"outputs":[{"name":"","type":"bool","internalType":"bool"}],"stateMutability":"view"},{"type":"function","name":"paymentToken","inputs":[],"outputs":[{"name":"","type":"address","internalType":"contract IERC20"}],"stateMutability":"view"},{"type":"function","name":"renounceOwnership","inputs":[],"outputs":[],"stateMutability":"nonpayable"},{"type":"function","name":"rescueERC20","inputs":[{"name":"a","type":"address","internalType":"address"}],"outputs":[],"stateMutability":"nonpayable"},{"type":"function","name":"rescueETH","inputs":[],"outputs":[],"stateMutability":"nonpayable"},{"type":"function","name":"roundSoldBcdWei","inputs":[{"name":"roundId","type":"uint256","internalType":"uint256"}],"outputs":[{"name":"soldBcdWei","type":"uint256","internalType":"uint256"}],"stateMutability":"view"},{"type":"function","name":"rounds","inputs":[{"name":"roundId","type":"uint256","internalType":"uint256"}],"outputs":[{"name":"start","type":"uint64","internalType":"uint64"},{"name":"end","type":"uint64","internalType":"uint64"},{"name":"merkleRoot","type":"bytes32","internalType":"bytes32"},{"name":"paymentPerWholeBcd","type":"uint256","internalType":"uint256"},{"name":"maxBcdWei","type":"uint256","internalType":"uint256"},{"name":"perWalletPublicCapWei","type":"uint256","internalType":"uint256"}],"stateMutability":"view"},{"type":"function","name":"setFeeBps","inputs":[{"name":"bps","type":"uint256","internalType":"uint256"}],"outputs":[],"stateMutability":"nonpayable"},{"type":"function","name":"token","inputs":[],"outputs":[{"name":"","type":"address","internalType":"contract IBCDSaleMintable"}],"stateMutability":"view"},{"type":"function","name":"transferOwnership","inputs":[{"name":"newOwner","type":"address","internalType":"address"}],"outputs":[],"stateMutability":"nonpayable"},{"type":"function","name":"treasury","inputs":[],"outputs":[{"name":"","type":"address","internalType":"address"}],"stateMutability":"view"},{"type":"function","name":"unpause","inputs":[],"outputs":[],"stateMutability":"nonpayable"},{"type":"function","name":"walletBoughtBcdWei","inputs":[{"name":"roundId","type":"uint256","internalType":"uint256"},{"name":"buyer","type":"address","internalType":"address"}],"outputs":[{"name":"boughtBcdWei","type":"uint256","internalType":"uint256"}],"stateMutability":"view"},{"type":"event","name":"FeeBpsUpdated","inputs":[{"name":"feeBps","type":"uint256","indexed":false,"internalType":"uint256"}],"anonymous":false},{"type":"event","name":"OwnershipTransferred","inputs":[{"name":"previousOwner","type":"address","indexed":true,"internalType":"address"},{"name":"newOwner","type":"address","indexed":true,"internalType":"address"}],"anonymous":false},{"type":"event","name":"Paused","inputs":[{"name":"account","type":"address","indexed":false,"internalType":"address"}],"anonymous":false},{"type":"event","name":"Purchased","inputs":[{"name":"roundId","type":"uint256","indexed":true,"internalType":"uint256"},{"name":"buyer","type":"address","indexed":true,"internalType":"address"},{"name":"bcdWei","type":"uint256","indexed":false,"internalType":"uint256"},{"name":"paymentToTreasury","type":"uint256","indexed":false,"internalType":"uint256"}],"anonymous":false},{"type":"event","name":"RoundConfigured","inputs":[{"name":"roundId","type":"uint256","indexed":true,"internalType":"uint256"},{"name":"start","type":"uint64","indexed":false,"internalType":"uint64"},{"name":"end","type":"uint64","indexed":false,"internalType":"uint64"},{"name":"merkleRoot","type":"bytes32","indexed":false,"internalType":"bytes32"},{"name":"paymentPerWholeBcd","type":"uint256","indexed":false,"internalType":"uint256"},{"name":"maxBcdWei","type":"uint256","indexed":false,"internalType":"uint256"}],"anonymous":false},{"type":"event","name":"Unpaused","inputs":[{"name":"account","type":"address","indexed":false,"internalType":"address"}],"anonymous":false},{"type":"error","name":"AddressEmptyCode","inputs":[{"name":"target","type":"address","internalType":"address"}]},{"type":"error","name":"AddressInsufficientBalance","inputs":[{"name":"account","type":"address","internalType":"address"}]},{"type":"error","name":"EnforcedPause","inputs":[]},{"type":"error","name":"ExpectedPause","inputs":[]},{"type":"error","name":"FailedInnerCall","inputs":[]},{"type":"error","name":"MathOverflowedMulDiv","inputs":[]},{"type":"error","name":"OwnableInvalidOwner","inputs":[{"name":"owner","type":"address","internalType":"address"}]},{"type":"error","name":"OwnableUnauthorizedAccount","inputs":[{"name":"account","type":"address","internalType":"address"}]},{"type":"error","name":"ReentrancyGuardReentrantCall","inputs":[]},{"type":"error","name":"SafeERC20FailedOperation","inputs":[{"name":"token","type":"address","internalType":"address"}]}],"bytecode":{"object":"0x60e0346200019c57601f620014a438819003918201601f19168301916001600160401b03831184841017620001a0578084926080946040528339810103126200019c576200004d81620001b4565b906200005c60208201620001b4565b906200007960606200007160408401620001b4565b9201620001b4565b6001600160a01b03939092908416908115620001845784905f549260405193818482167f8be0079c531659141344cd1fd0a4f28419497f9722a3daafe3b4186f6b6457e05f80a36001600160a81b031916175f556001805516908115158062000178575b156200014a575060805260a0521660c0526040516112da9081620001ca82396080518181816101000152610486015260a051818181610408015281816106390152818161097901528181610dbb0152610f50015260c0518181816103d2015281816109140152610edb0152f35b62461bcd60e51b81526020600482015260096024820152683d32b9379030b2323960b91b6044820152606490fd5b508483161515620000dd565b604051631e4fbdf760e01b81525f6004820152602490fd5b5f80fd5b634e487b7160e01b5f52604160045260245ffd5b51906001600160a01b03821682036200019c5756fe6080604052600436101561001a575b3615610018575f80fd5b005b5f803560e01c806320800a0014610f2757806324a9d85314610f0a5780633013ce2914610ec65780633f47317c14610e7d5780633f4ba83a14610e0e5780635c975abb14610dea57806361d027b314610da6578063715018a614610d4f57806372c27b6214610cca57806379616d5a14610ca05780638456cb5914610c405780638c65c81f14610bd55780638da5cb5b14610bae578063b318e1cd14610a29578063ccec3716146108e4578063eae10891146101bf578063f2fde38b146101325763fc0c546a146100eb575061000e565b3461012f578060031936011261012f576040517f00000000000000000000000000000000000000000000000000000000000000006001600160a01b03168152602090f35b80fd5b503461012f57602036600319011261012f5761014c610fe0565b61015461108e565b6001600160a01b039081169081156101a6575f54826bffffffffffffffffffffffff60a01b8216175f55167f8be0079c531659141344cd1fd0a4f28419497f9722a3daafe3b4186f6b6457e05f80a380f35b604051631e4fbdf760e01b815260048101849052602490fd5b50608036600319011261055c576001600160401b036064351161055c5736602360643501121561055c576001600160401b03606435600401351161055c573660246064356004013560051b60643501011161055c576002600154146108d257600260015561022b6110b9565b6004355f52600360205260405f206040519060c082018281106001600160401b0382111761053d576040528054906001600160401b03821683526001600160401b03602084019260401c16825260018101546040840152600281015460608401526004600382015491826080860152015460a0840152156108a2576001600160401b03825116421015908161088d575b501561085d576024351561082f576040810151156107c45760405160043560208201523360408201526044356060820152606081528060808101106001600160401b0360808301111761053d5760808101604052602081519101206040820151905f5b60643560040135811061078957500361075c576004355f52600560205260405f20335f5260205260443561035860243560405f2054611081565b1161072f575b6004355f52600460205261037860243560405f2054611081565b6080820151106106ff5760600151670de0b6b3a764000061039b82602435611153565b91602435096106df575b600254906127106103b683836111d9565b9282096106bf575b906103c891611081565b6001600160a01b037f000000000000000000000000000000000000000000000000000000000000000081811661061c57508134106105f1575f80808085857f0000000000000000000000000000000000000000000000000000000000000000165af1610432611017565b50156105c157813411610560575b6004355f52600460205260405f2061045b6024358254611081565b90556004355f52600560205260405f20335f5260205260405f206104826024358254611081565b90557f000000000000000000000000000000000000000000000000000000000000000016803b1561055c576040516311d15e8b60e21b81523360048201526024803590820152905f908290604490829084905af1801561055157610521575b50604051906024358252602082015233907f2d422c18b05e66a0b22c1c2b24e242e6c19cff65d89543692b3348f7f7ea18d4604060043592a36001805580f35b9091506001600160401b03811161053d576040525f905f6104e1565b634e487b7160e01b5f52604160045260245ffd5b6040513d5f823e3d90fd5b5f80fd5b8134033481116105ad575f80808093335af161057a611017565b506104405760405162461bcd60e51b81526020600482015260066024820152651c99599d5b9960d21b6044820152606490fd5b634e487b7160e01b5f52601160045260245ffd5b60405162461bcd60e51b8152602060048201526008602482015267747265617375727960c01b6044820152606490fd5b60405162461bcd60e51b81526020600482015260036024820152620cae8d60eb1b6044820152606490fd5b34610691576040516323b872dd60e01b60208201523360248201527f0000000000000000000000000000000000000000000000000000000000000000831660448201526064808201859052815260a08101916001600160401b0383118284101761053d5761068c926040526110d9565b610440565b60405162461bcd60e51b81526020600482015260066024820152650dcde40cae8d60d31b6044820152606490fd5b60018201809211156103be57634e487b7160e01b5f52601160045260245ffd5b60018101809111156103a557634e487b7160e01b5f52601160045260245ffd5b60405162461bcd60e51b81526020600482015260086024820152671cdbdb19081bdd5d60c21b6044820152606490fd5b60405162461bcd60e51b8152602060048201526005602482015264616c6c6f6360d81b6044820152606490fd5b60405162461bcd60e51b8152602060048201526005602482015264383937b7b360d91b6044820152606490fd5b9060248260051b606435010135908181105f146107b3575f52602052600160405f205b910161031e565b905f52602052600160405f206107ac565b60a08101511561035e576004355f52600560205260405f20335f526020526107f260243560405f2054611081565b60a0820151101561035e5760405162461bcd60e51b815260206004820152600a602482015269077616c6c6574206361760b41b6044820152606490fd5b60405162461bcd60e51b8152602060048201526006602482015265185b5bdd5b9d60d21b6044820152606490fd5b60405162461bcd60e51b8152602060048201526008602482015267696e61637469766560c01b6044820152606490fd5b6001600160401b03915051164211155f6102bb565b60405162461bcd60e51b81526020600482015260086024820152671b9bc81c9bdd5b9960c21b6044820152606490fd5b604051633ee5aeb560e01b8152600490fd5b3461055c5760208060031936011261055c576108fe610fe0565b61090661108e565b6001600160a01b03908116907f00000000000000000000000000000000000000000000000000000000000000001681146109fa576040516370a0823160e01b8152306004820152908282602481845afa918215610551575f926109c7575b5060405163a9059cbb60e01b938101939093527f00000000000000000000000000000000000000000000000000000000000000006001600160a01b0316602484015260448084019290925290825261001891906109c2606483610ff6565b6110d9565b9280925083813d83116109f3575b6109df8183610ff6565b8101031261055c57915190916109c2610964565b503d6109d5565b60405162461bcd60e51b81526004810183905260076024820152661c185e5b595b9d60ca1b6044820152606490fd5b3461055c5760e036600319011261055c5760043560c036602319011261055c57610a5161108e565b610a59611055565b6001600160401b03908180610a6c61106b565b16911610610b835760a43580151580610b78575b15610b4a577f2364d96f8e444a14ed8b3004830faef01fa84ac1a0bbbb521723f4254b8c9b289160a091845f52600360205260405f2082610abf61106b565b168154906fffffffffffffffff0000000000000000610adc611055565b60401b16916fffffffffffffffffffffffffffffffff19161717815560643580600183015560843591826002820155836003820155600460c435910155610b2161106b565b93610b2a611055565b8160405196168652166020850152604084015260608301526080820152a2005b60405162461bcd60e51b8152602060048201526006602482015265706172616d7360d01b6044820152606490fd5b506084351515610a80565b606460405162461bcd60e51b815260206004820152600460248201526374696d6560e01b6044820152fd5b3461055c575f36600319011261055c575f546040516001600160a01b039091168152602090f35b3461055c57602036600319011261055c576004355f52600360205260c060405f208054906001600160401b03906001810154600282015490600460038401549301549360405195818116875260401c16602086015260408501526060840152608083015260a0820152f35b3461055c575f36600319011261055c57610c5861108e565b610c606110b9565b5f805460ff60a01b1916600160a01b1790556040513381527f62e78cea01bee320cd4e420270b5ea74000d11b0c9f74754ebdbfc544b05a25890602090a1005b3461055c57602036600319011261055c576004355f526004602052602060405f2054604051908152f35b3461055c57602036600319011261055c57600435610ce661108e565b6107d08111610d20576020817f0399aa81c69e33acc2ff42d0f7a0809e6bf4c10ff3c3a7e040b12fedc14602f292600255604051908152a1005b60405162461bcd60e51b81526020600482015260076024820152660666565206361760cc1b6044820152606490fd5b3461055c575f36600319011261055c57610d6761108e565b5f80546001600160a01b0319811682556001600160a01b03167f8be0079c531659141344cd1fd0a4f28419497f9722a3daafe3b4186f6b6457e08280a3005b3461055c575f36600319011261055c576040517f00000000000000000000000000000000000000000000000000000000000000006001600160a01b03168152602090f35b3461055c575f36600319011261055c57602060ff5f5460a01c166040519015158152f35b3461055c575f36600319011261055c57610e2661108e565b5f5460ff8160a01c1615610e6b5760ff60a01b19165f556040513381527f5db9ee0a495bf2e6ff9c91a7834c1ba4fdd244a5e8aa4e537bd38aeae4b073aa90602090a1005b604051638dfc202b60e01b8152600490fd5b3461055c57604036600319011261055c576024356001600160a01b0381169081900361055c576004355f52600560205260405f20905f52602052602060405f2054604051908152f35b3461055c575f36600319011261055c576040517f00000000000000000000000000000000000000000000000000000000000000006001600160a01b03168152602090f35b3461055c575f36600319011261055c576020600254604051908152f35b3461055c575f36600319011261055c57610f3f61108e565b478015610fb5575f908190819081907f00000000000000000000000000000000000000000000000000000000000000006001600160a01b03165af1610f82611017565b5015610f8a57005b606460405162461bcd60e51b81526020600482015260046024820152631cd95b9960e21b6044820152fd5b606460405162461bcd60e51b81526020600482015260046024820152636e6f6e6560e01b6044820152fd5b600435906001600160a01b038216820361055c57565b90601f801991011681019081106001600160401b0382111761053d57604052565b3d15611050573d906001600160401b03821161053d5760405191611045601f8201601f191660200184610ff6565b82523d5f602084013e565b606090565b6044356001600160401b038116810361055c5790565b6024356001600160401b038116810361055c5790565b919082018092116105ad57565b5f546001600160a01b031633036110a157565b60405163118cdaa760e01b8152336004820152602490fd5b60ff5f5460a01c166110c757565b60405163d93c066560e01b8152600490fd5b5f806111019260018060a01b03169360208151910182865af16110fa611017565b9083611241565b805190811515918261112f575b50506111175750565b60249060405190635274afe760e01b82526004820152fd5b819250906020918101031261055c576020015180159081150361055c575f8061110e565b90808202905f19818409908280831092039180830392146111c857670de0b6b3a764000090828211156111b6577faccb18165bd6fe31ae1cf318dc5b51eee0e1ba569b88cd74c1773b91fac10669940990828211900360ee1b910360121c170290565b60405163227bc15360e01b8152600490fd5b5050670de0b6b3a764000091500490565b90808202905f19818409908280831092039180830392146112365761271090828211156111b6577fbc01a36e2eb1c432ca57a786c226809d495182a9930be0ded288ce703afb7e91940990828211900360fc1b910360041c170290565b505061271091500490565b90611268575080511561125657805190602001fd5b604051630a12f52160e11b8152600490fd5b8151158061129b575b611279575090565b604051639996b31560e01b81526001600160a01b039091166004820152602490fd5b50803b1561127156fea26469706673582212200606e5f2f0d2770fee68ab7f295ab67c620a5c43b5b51f90358bec7f3356d96364736f6c63430008180033","linkReferences":{}},"methodIdentifiers":{"buy(uint256,uint256,uint256,bytes32[])":"eae10891","configureRound(uint256,(uint64,uint64,bytes32,uint256,uint256,uint256))":"b318e1cd","feeBps()":"24a9d853","owner()":"8da5cb5b","pause()":"8456cb59","paused()":"5c975abb","paymentToken()":"3013ce29","renounceOwnership()":"715018a6","rescueERC20(address)":"ccec3716","rescueETH()":"20800a00","roundSoldBcdWei(uint256)":"79616d5a","rounds(uint256)":"8c65c81f","setFeeBps(uint256)":"72c27b62","token()":"fc0c546a","transferOwnership(address)":"f2fde38b","treasury()":"61d027b3","unpause()":"3f4ba83a","walletBoughtBcdWei(uint256,address)":"3f47317c"},"id":50}